:1000000000100020D11700003D600000416000009A
:1000100063690300456000004D60000063690300F0
:100020006369030063690300636903006369030094
:1000300051600000808A0400636903006369030063
:100040006369030089C101005D6100006369030009
:10005000D9B9010041CE03003DCE0300A9C1010082
:1000600035CE03005D1F0000CD2000006369030052
:10007000E90F0000F75E0300636903006369030092
:100080006369030063690300E920000063690300FA
:100090006369030063690300636903006369030024
:1000A0006369030063690300636903006369030014
:1000B000DDC1010039CE03002D73000019C201001B
:1000C0006369030075E50100636903006369030068
:1000D00063690300636903006369030063690300E4
:1000E00063690300636903006369030063690300D4
:1000F00063690300636903006369030063690300C4
:100100006369030063690300636903000000000082
:10011000013800D0FCE770472DE9F04FC9B00DF170
:100120001B084FF0FD0B08AFCDF80C80CDF808B0E0
:10013000019799469DF8503105930389009383797F
:1001400004460E46924641888288407814F080FB2F
:10015000054650B10090A38862883D49002014F004
:100160008FFF284649B0BDE8F08F98F800003AF0BC
:100170006BF838B12846A3886288364914F080FFAE
:100180008D25EEE75A4698F8000039463AF02BF8EC
:100190008346002856D0529B1BB1BDF84C31984283
:1001A00050D898F80080A8F141020023012A079353
:1001B0005FFA8BFE37D80EF1FF3E274ADFF8A0C06A
:1001C0005FFA8EFE3946734501F1010125DB059B7F
:1001D00007924FF0040E43BB07A920489FED1A7BFE
:1001E000182303FB0602104682ED027B083072469C
:1001F00040F03EFABAF1000F01D08AF80080B9F160
:10020000000F01D0A9F800B0529B002BA9D05A468C
:1002100008A9184640F02CFAA3E7087842400CFBE6
:1002200002F20133CFE7059B3BB1009623464246DD
:10023000714638460FF0AAFC93E7BEF1080FD9D8F3
:100240003946CAE701258CE70000000000000000E5
:1002500097CC0400C8CC0400C59D1C815017002019
:1002600093010001000000002DE9F04F2DED088BF7
:100270008DB009EE903ADDE920439DED1E7B0A9397
:10028000229B079209EE100AB0EE478AF0EE678AC9
:100290008A46069351EC170B53EC172B35F09CF95B
:1002A00080B1D14B51EC180B4FF0FF3235F0BCF957
:1002B00040B951EC180B4FF0FF326FF4801335F05A
:1002C00095F998B1069B22930A9B079ACDE92043A2
:1002D00019EE100A19EE903A51468DED1E8B0DB0B5
:1002E000BDEC088BBDE8F04F00F0A2B951EC180B43
:1002F0000022002335F07AF9002800F0458118EE3D
:10030000903A18EE108A03F10049069BC9F30A508F
:1003100013F48063A0F2FF3008BF06240B9334F07F
:1003200089FEA1A3D3E9002334F0EEFEA0A3D3E914
:10033000002334F033FDC9F313050F4645F07F5118
:100340000646AA4B0022404641F4401134F024FDF9
:1003500099A3D3E9002334F0D7FE02460B4630467A
:10036000394634F01BFD35F069F9834634F062FEFE
:1003700093A3D3E9002306460F4634F0C5FE9C4BF9
:10038000002234F00BFD35F059F98FA3D3E9002397
:1003900005463946304634F0B7FE064628460F4635
:1003A00034F048FE8AA3D3E9002334F0ADFE0246C0
:1003B0000B463046394634F0EFFC02460B46064603
:1003C0000F4634F0A1FE324641EC1A0B3B46304654
:1003D000394634F0E3FC874B41EC1B0B002251EC17
:1003E0001A0B34F0BBFF844B002234F0D7FC0246DA
:1003F0000B4651EC1A0B34F0B1FF804B002234F065
:10040000CDFC02460B4651EC1A0B34F0A7FF3246E6
:1004100041EC1A0B3B4600204FF0804134F0BCFC0D
:1004200002460B4651EC1A0B34F0B8FC02460B4660
:1004300051EC1B0B34F092FF05F2FF35704B00229C
:1004400034F0ACFC00222B0534F05EFE42464B46F5
:1004500006460F4635F0E8F8002840F09880CDE9D0
:1004600008670BF16303C72B069B34BF04250525E2
:10047000190522D558A3D3E900234046494635F053
:10048000C9F8002800F0BE8055A3D3E900234046F8
:10049000494635F0ABF8002800F0B480069B5C4577
:1004A000C8BFA4EB0B0043F480634FF00005CCBF42
:1004B00000F1FF3400240693AB460A9B9D4238BFEF
:1004C0005E1B069B28BF002613F0020702D0002DFA
:1004D00018BF0026BBF1000F07D040464946DDE9B2
:1004E000082334F03BFF8046894651EC180B00226C
:1004F000002335F07BF810B109F100439946069BC3
:10050000079A029423F40063CDE90363CDE90089DF
:1005100019EE903A19EE100A514600F089F875B3B9
:10052000069B13F0200F00F10106024619EE903AE7
:1005300014BF45206520514619EE104AA0470523F7
:10054000002205938BEAEB700A23CDE90232A0EB7F
:10055000EB704FEADB73013D0193009019EE903A86
:1005600019EE100A0495324651463BF01EFD37B194
:10057000079BC51A079B58190A9BAB424BD80DB075
:10058000BDEC088BBDE8F08F59EC188BBDE61A4B1B
:1005900000223046394634F0E1FE0BF1FF3BCDE955
:1005A00008015EE7AFF30080FB799F501344D33F0F
:1005B000B3C8608B288AC63F61436F63A787D23F69
:1005C00071A379094F930A401655B5BBB16B024030
:1005D000EF39FAFE422EE63F2D431CEBE2361A3F7E
:1005E0000000000080842E41FFFFEF7F0000F83FF5
:1005F0000000E03F00002C400000244000001840B4
:100600000000F03F002C3FF458AF0B9B002B3FF451
:1006100054AF013C51E7024619EE903A19EE104AE8
:1006200051462020A0470135A4E700BF000000008C
:100630002DE9F04F2DED088B8FB0DDE920AB09EEF1
:10064000103ADDE9225308EE100A08EE902A0F4610
:10065000049352465B4650465946249E34F0BCFFF4
:10066000A0B9049B229303232193B94B2396209393
:1006700018EE902A19EE103A18EE100A39460FB00B
:10068000BDEC088BBDE8F04F3BF0C7BB4FF0FF322D
:100690006FF480135046594634F0A8FF30B1049BE4
:1006A0002293042321932396AA4BE0E7AA4B4FF011
:1006B000FF325046594634F0B7FF70B1A74A04994B
:1006C000239606F00403002B08BF0322A44B1CBF93
:1006D00013460422CDE92121C9E799A3D3E90023D8
:1006E0005046594634F0A0FF38B997A3D3E9002308
:1006F0005046594634F07AFF98B1049B2496CDE9D0
:10070000225318EE902A19EE103A18EE100A3946C4
:10071000CDE920AB0FB0BDEC088BBDE8F04FFFF783
:10072000A3BD002200235046594634F05FFF002845
:1007300000F081805B4652460020002134F02CFB03
:10074000012382468B46059316F4806F08BF062569
:1007500006ABA5F12002A9463021B9F1090FA5EB9E
:10076000090406D909F1FF394A4503F8011BF4D100
:1007700020245946504634F061FF7A4B03EBC903FD
:1007800093ED007B0546B0EE47AAF0EE67AA34F081
:1007900051FC02460B465046594634F0FDFA53ECE4
:1007A0001A2B34F0B1FC02460B4643EC1B2B34F001
:1007B0006DFF804634F02EFC02460B4651EC1B0BBD
:1007C00034F0EAFA02460B4643EC1B2B664B002240
:1007D00034F02AFF88B308F10108404634F01AFCCF
:1007E00002460B4651EC1A0B34F00AFF10B10135EA
:1007F0004FF00008B9F1000F50D1284634F01AFC30
:1008000002460B465046594634F0C6FA564B002273
:100810008046894634F0EAFE30B1534B0022404610
:10082000494634F001FF10B1E80700D5013506ABA9
:1008300023440A2259E0059086E74B4B51EC1B0BF1
:10084000002234F0D3FE0028D4D1B8F1000F02D03A
:1008500018F0010FCED008F10108CBE7B8FBF1F09A
:1008600001FB10823032B8F1090F03F8012B09F1B6
:10087000FF3904F1010428D8A14406AA3021202C14
:1008800011D04C4504F1010321D104F138020DEBE4
:1008900002042E2204F8202C1C46C8E706AB234491
:1008A0000A21202CDAD106F00303012B06AB39D143
:1008B000049A002A36D0059A12B916F00C0F02D00D
:1008C000049A013A0492302214E08046E9E7A154E8
:1008D0001C46D4E795FBF2F102FB1155303503F8C5
:1008E000015B01340D460029DDD0202CF2D1DAE77E
:1008F0001A5501340499A14214D9202CF8D1049A34
:100900000093CDE9014219EE103A18EE902A18EE44
:10091000100A039639463BF080FA0FB0BDEC088B05
:10092000BDE8F08F202CEAD0059AFAB104F1380224
:100930006A442D2102F8201C0134E0E7AFF3008067
:100940000000000065CDCD410000000065CDCDC1A7
:10095000FEF9040002FA0400FFFFEF7FF9F904003A
:10096000F5F9040008FA04000000E03F710704D51F
:1009700004F138026A442B21DCE73207BFD504F1C9
:1009800038026A442021D5E770B58EB02C220021B0
:1009900003A83FF095FE64234FF00232CDE9052312
:1009A00008930B238DF83430514B1B880121D80755
:1009B0008DF8101000F19680084622F097FA4D4B02
:1009C0004D494E484E4C0A221A704FF42873ADF828
:1009D00012301DF027F8206020B94A4840F231213A
:1009E00005F02CFA206805213CF092FC20B1454826
:1009F0004FF40F7105F022FA206800F001FB424B22
:100A0000206819683CF08DF823F04CF90C256843F8
:100A1000099023F047F9684307900DEB0501206822
:100A200018F0CAFA20B1374840F2512105F006FA11
:100A30003649206800223CF0FEF820B1314840F2EF
:100A4000532105F0FBF9324E324D96F9000040F289
:100A500003532B807F284FF00503AB7001D122F0A8
:100A6000A5FB3378EB7023F01DF900EB80008000CC
:100A7000A88023F017F90023C000E880AB604FF096
:100A8000FF3019A3D3E900234FF0FF3122F006FC19
:100A9000214920683CF0FEFC206802A93CF0A5F842
:100AA00020B1184840F2862105F0C8F904222068D8
:100AB0000DEB02013BF0ECFF042804D0114840F29A
:100AC000892105F0BBF901A901203DF093F905F05A
:100AD000F9FA012023F0A4FB36F000FB23F0CAFB57
:100AE00022F08AFA0EB070BD0A0020FF4203000017
:100AF000CE46002042540020192F02002C13002063
:100B000018400020DF18050008110020495400207B
:100B1000AF16002004400020B930020010B5054C8B
:100B2000237833B9044B13B10448AFF30080012399
:100B3000237010BD301B0020000000005C1C05006D
:100B400008B5034B1BB103490348AFF3008008BD50
:100B500000000000341B00205C1C0500A3F5803A57
:100B6000704700BF174B002B08BF134B9D46FFF784
:100B7000F5FF00218B460F461348144A121A3FF026
:100B80009FFD0E4B002B00D098470D4B002B00D043
:100B900098470020002104000D000D48002802D0D5
:100BA0000C48AFF3008034F027FF2000290035F017
:100BB00063F934F00DFF00BF0000080000000000E2
:100BC000000000000010002000170020B05400209A
:100BD000000000000000000010B539F097FA02286C
:100BE00010D1FF21084808F063FF24F08DFE01209A
:100BF0000AF000FBBDE810400346044A012104202E
:100C00000AF090BA10BD00BF6C1B00205007040012
:100C10001FB539F07BFA02281BD100900DF10E03AD
:100C200000220321012039F0F6FEBDF80E300F48F6
:100C300063B135F071FFFF210D4808F039FF4FF423
:100C40007A6124F0E7FD05B05DF804FB35F05EFF46
:100C5000F9E70EF001F9074B01900093064A074BA4
:100C6000012104200AF05EFAEDE700BFAC70040039
:100C70004C1B0020B70B0400780704007307040026
:100C80001FB50123009300220DF10F03062139F057
:100C9000C2FE28B99DF80F30044823B135F036FF65
:100CA00005B05DF804FB35F034FFF9E7AC700400E3
:100CB000912808B504D1BDE80840094835F029BF9E
:100CC00090280BD1064835F021FFFF21054808F098
:100CD000EFFEBDE80840002124F09CBD08BD00BF28
:100CE000AC7004006C1B002010B50B4C0B49FF23AB
:100CF0001A46204608F09AFEFF23094909481A4679
:100D000008F094FEFF21204608F0D2FEBDE8104016
:100D1000002124F07FBD00BF4C1B0020110C0000FF
:100D2000D90B00006C1B002010B5034604460D4A89
:100D3000012104200AF0F6F99CB111F047FA0346AC
:100D400020B1094A012104200AF0ECF900200DF03D
:100D50005FFABDE810400346044A012104200AF06E
:100D6000E1B910BD8E070400AC070400DA070400E7
:100D7000024A0023012104200AF0D4B9F507040037
:100D800010B535F034FE044640B9FF21044808F0A0
:100D90008FFE2146BDE8104024F03CBD10BD00BFD1
:100DA0006C1B002030B50A4C0A4B22680A4D1A60B1
:100DB00085B00A4B2B600A4B019304F08BFA2B6829
:100DC000029001A92068039336F082FB05B030BD84
:100DD000A410002068290020642900209810002019
:100DE000986F0400014B186836F086BBA4100020F1
:100DF00038B5084D04F06EFA2B680446D3F8B002FB
:100E000004F05CFA286836F08AFB2046BDE83840DA
:100E100004F054BAA410002038B501F0C5FD0E4806
:100E20000E4C012101F056FA01221146002001F07A
:100E30001FFD022501221146C4F88050002001F058
:100E400017FD0122C4F884501146002001F010FD66
:100E5000C4F88850002038BD30253E0000400E40C8
:100E600008B5254B01225A6402F0B6FD234B90B918
:100E70004AF6E852C3F89021D3F8982142F00402D0
:100E8000C3F89821C3F89001D3F8642142F40052CA
:100E9000C3F8642101E00128F6D0194A136A23F44B
:100EA000441343F488131362A2F58042136843F499
:100EB0008073136002F54052D2F8A43143F4F84332
:100EC000C2F8A43104F0DCF900F0DEFB04F074F9A0
:100ED00004F0C2F904F086F9FFF79EFF36F090FEA9
:100EE00000F0C4FB00F00EFD04F0E0FC01F00AF994
:100EF000BDE8084005F0A2BB00000E4000300E40E7
:100F000000400E4030B5244D0FCD97B00FAC0FC44C
:100F100095E80700302384E807008DF855301F4A14
:100F20001F4BCDE903234FF08073059303F1022398
:100F300006934FF0F0511E23CDE907131022002134
:100F40000BA83FF0BDFB174B4FF44020CDE9090340
:100F50000C238DF82C300D238DF82D30124B0C9373
:100F600020230D9301238DF83930104B009309A9EC
:100F700003AB0FAA0E4804F0C5FB9DF83A30002BD6
:100F800004460CBF032100214FF4E13035F0DAFCB8
:100F9000204617B030BD00BF78700400000001404B
:100FA000004204001C0001405E470020481E002053
:100FB000A41E0020012905D8034B1B68186808B13E
:100FC000436A1847704700BFB010002008B50449B5
:100FD000044805F0DFFBBDE80840FFF793BF00BF02
:100FE000A81000209C1E0020014836F0A4BF00BFBE
:100FF000A41E0020014B1A6A18681047A41E002086
:1010000008B518F00FF8024B00221A7008BD00BF97
:101010007E470020014835F0E5BC00BF9470040015
:10102000014835F070BD00BFAC7004001FB5084921
:10103000034602AA0868097902908DF80C10009204
:1010400005210022012007F0BFFE05B05DF804FB7A
:10105000C47004001FB50A4A03461068029002A932
:1010600090889279ADF80C008DF80E200091442202
:101070004FF44071012007F0A7FE05B05DF804FBB6
:10108000CA7004001FB50849034602AA0868097916
:1010900002908DF80C10009205214222012007F0E9
:1010A00093FE05B05DF804FBD27004001FB508493B
:1010B000034602AA0868097902908DF80C10009284
:1010C00005214022012007F07FFE05B05DF804FBFA
:1010D000C47004001FB5074A039203AA0346009296
:1010E0004FF440714122012007F06EFE05B05DF81B
:1010F00004FB00BF010221211FB50949034602AAD2
:101100000868097902908DF80C1000924FF4407134
:101110004022012007F058FE05B05DF804FB00BF37
:10112000D87004001FB50949034602AA0868097966
:1011300002908DF80C1000924FF440714322012070
:1011400007F042FE05B05DF804FB00BFD870040054
:101150001FB50949034602AA0868097902908DF86B
:101160000C1000924FF440714222012007F02CFE37
:1011700005B05DF804FB00BFCC7004001FB5064A43
:10118000039203AA0092012203460821104607F0A9
:101190001BFE05B05DF804FB010121211FB5074AC4
:1011A000039203AA034600924FF4407108220120E3
:1011B00007F00AFE05B05DF804FB00BF1212212102
:1011C0001FB5094A034610689288ADF80C2002AAA0
:1011D000029000924FF440714B22012007F0F4FD81
:1011E00005B05DF804FB00BFDE7004001FB5074AC0
:1011F000039203AA0092012203464FF44071104665
:1012000007F0E2FD05B05DF804FB00BF01012121FC
:101210001FB5074A039203AA034600924FF4407198
:101220000422012007F0D0FD05B05DF804FB00BFEB
:10123000010121211FB50949034602AA086809795D
:1012400002908DF80C1000924FF44071072201209B
:1012500007F0BAFD05B05DF804FB00BFDF700400C5
:101260001FB5074A039203AA034600924FF4407148
:101270000A22012007F0A8FD05B05DF804FB00BFBD
:10128000020221211FB50949034602AA086809790B
:1012900002908DF80C1000924FF440710022012052
:1012A00007F092FD05B05DF804FB00BFE570040097
:1012B0001FB50949034602AA0868097902908DF80A
:1012C0000C1000924FF440710622012007F07CFDC3
:1012D00005B05DF804FB00BFE57004001FB5064AC9
:1012E000039203AA0346009208210022012007F07E
:1012F0006BFD05B05DF804FB010221211FB5074A13
:10130000039203AA034600924FF440710322012086
:1013100007F05AFD05B05DF804FB00BF0102212172
:101320001FB50949034603AA08888978ADF80C005F
:101330008DF80E10009206214222012007F044FD94
:1013400005B05DF804FB00BFEB7004001FB5094950
:1013500003AA0346009208888978ADF80C0005229C
:101360008DF80E100120114607F02EFD05B05DF836
:1013700004FB00BFEF7004001FB50849034602AA32
:101380000868097902908DF80C1000920821022259
:10139000012007F019FD05B05DF804FBE5700400BD
:1013A0001FB50949034602AA0868097902908DF819
:1013B0000C1000924FF440710922012007F004FD47
:1013C00005B05DF804FB00BFF37004001FB50A4AC6
:1013D00003461068029002A990889279ADF80C003B
:1013E0008DF80E2000914C224FF44071012007F03F
:1013F000EBFC05B05DF804FBF97004001FB509496A
:10140000034602AA0868097902908DF80C10009230
:101410004FF440710222012007F0D6FC05B05DF8C0
:1014200004FB00BF017104001FB50949034602AA6D
:101430000868097902908DF80C1000924FF4407101
:101440000522012007F0C0FC05B05DF804FB00BFD9
:10145000017104001FB50949034603AA0888897869
:10146000ADF80C008DF80E10009208210622012024
:1014700007F0AAFC05B05DF804FB00BF077104008B
:101480000A46014934F010BF148A04000A46014993
:1014900034F00ABF268A04000A46014934F004BF2A
:1014A0000A8A04000A46014934F0FEBED7890400C6
:1014B0000A46014934F0F8BE0F8A04000A46014981
:1014C00034F0F2BE3D8904000A46014934F0ECBE16
:1014D0009A8904000A46014934F0E6BEF389040003
:1014E0000A46014934F0E0BEDC8904000A4601499D
:1014F00034F0DABE4A8904000A46014934F0D4BE09
:10150000538904000A46014934F0CEBE038A040020
:101510000A46014934F0C8BEF88904000A46014968
:1015200034F0C2BEA98904000A46014934F0BCBEA9
:10153000B48904000A46014934F0B6BE3489040077
:101540000A46014934F0B0BE8F8904000A460149B9
:1015500034F0AABED48904000A46014934F0A4BE7E
:10156000D18904000A46014934F09EBECE890400A8
:101570000A46014934F098BE4B8A04000A460149E4
:1015800034F092BE418A04000A46014934F08CBE10
:10159000BF8904000A46014934F086BEC4890400AC
:1015A0000A46014934F080BE678904000A460149B1
:1015B00034F07ABE5C8904000A46014934F074BEF6
:1015C000588A04000A46014934F06EBE4E8A04006F
:1015D0000A46014934F068BE538A04000A460149AC
:1015E00034F062BE3C8A04000A46014934F05CBE15
:1015F0001B8A04000A46014934F056BE318A0400B1
:101600000A46014934F050BE448A04000A460149A2
:1016100034F04ABE608A04000A46014934F044BEF0
:101620005D8A04000A46014934F03EBE7B8904000D
:101630000A46014934F038BEEE8904000A460149E1
:1016400034F032BEE58904000A46014934F02CBE6C
:10165000868904000A46014934F026BEC98904007F
:101660000A46014934F020BE7089040008B50548D7
:10167000012100F02FFE34F007FCBDE8084000F027
:101680001DB800BF00350A000148012100F022BE4C
:1016900000350A0007B5082035F01CFA02238DF842
:1016A00000306846044B019335F01CF9082003B064
:1016B0005DF804EB35F01ABA006A18102DE9F04312
:1016C0003B4D3C4FDFF80091DFF800810FCD89B032
:1016D00001AC0FC495E8070084E80700364C374892
:1016E000012100F0F7FD3846012100F0F3FD01254E
:1016F000334B039301A920468DF8125035F031FC8D
:101700002B4604220621022001F0C6FE2A460023B1
:101710000721022001F0C0FE2B46042208210220EE
:1017200001F0BAFE042211462B46002001F0B4FE5F
:10173000244BA3670B23636710264FF4487006F011
:10174000B9F8C9F80C60142006F0B4F8C8F80C60B9
:10175000232006F0AFF8C9F80C60B921204635F017
:1017600047FC00231A46C8F80C600621022001F04D
:1017700093FE00231A460721022001F08DFE2B461E
:1017800000220821022001F087FE002210462B468D
:10179000042101F081FE204602F076F90021A167C4
:1017A0003846616700F096FD09B0BDE8F08300BFE0
:1017B000648A0400005204000004014000350A005D
:1017C00000127A000B0B000B00A0004400A00046A2
:1017D00008B500F083F8124B12498B4212D3124B1A
:1017E000124900208B4218D3FFF7BCF9186850F853
:1017F0002240586840F82240013298688242F5D36E
:101800000C33EAE70022F8E71C6844F822000132B2
:101810005C68A242F8D30833E4E70022F8E700BF8F
:10182000641C0500701C0500701C0500701C050080
:101830000048704700F04902104AD2F8943003F093
:101840000703023B032B13D8DFE803F00C14020E4E
:101850000B4B1B68D2F80001C0F304200130B3FB2E
:10186000F0F07047074BF4E7074B1B685B08F1E7A4
:10187000054BEEE74FF40043ECE700BF00400E409D
:10188000DC100020D4100020D810002008B5FFF78D
:10189000D3FF054BD3F80831C3F308230133B0FB62
:1018A000F3F0024B186008BD00400E40D01000203D
:1018B000014B1868704700BFD4100020054B18601A
:1018C000054BD3F8943003F00703022B01D1FFF747
:1018D000DDBF7047D410002000400E40044B054A85
:1018E0009A60D3F8882042F47002C3F888207047C9
:1018F00000ED00E000000000014B1868704700BFD9
:10190000DC1000200F4BD3F82838A3F17E62A2F53B
:101910008432B2F5104F10B50ED219680A4A9142BE
:101920000AD10A4C227812F0FD0F08D1DB699847E2
:1019300008B90123237010BD4FF48170FBE700202C
:10194000F9E700BF0000E10F07B0CD5E7F47002040
:1019500070B5D0B1C9B10E4E431E013913F8014F15
:10196000A25D02F00302012A11F8012FB55C05F017
:101970000305204608BF04F12000012D08BF2032D6
:10198000801A01D1002CE9D170BD0120FCE700BF15
:10199000551B050037B5046801210546124800F0C3
:1019A00099FC002361792079012201F075FD6179AC
:1019B000207935F021F8B0FA80F35B092370A37920
:1019C000022B0ED100F02CFB084960792A4600F06A
:1019D00051FB0123617902462079CDE9003301F002
:1019E00015FD002003B030BD00350A00136A030066
:1019F00008B52948012100F06DFC012304220221D1
:101A0000052001F049FD002001F0F4FC234B0122E8
:101A1000C3F810281146042000F02AFF204800F0E7
:101A20009FFD204BD3F8F02042F00102C3F8F020D4
:101A3000D3F8FC2042F08072C3F8FC20A3F55D438C
:101A4000194A1A6000F5D520184B00F2FC40B0FB93
:101A5000F3F0174B013802221861C3F8F0204FF45D
:101A60008072C3F804234FF06043124AC3F8B02FCA
:101A7000114AC3F8802ED3F8002E42F48072C3F8C6
:101A8000002EFF2283F82020D3F8002E22F480724B
:101A9000C3F8002E002008BD00350A000080144263
:101AA00006000E0000ED00E0FF030040F8590D00B5
:101AB000000004E055CEACC5090001004FF06043C2
:101AC00030B5D3F8802ED20715D501240B4D8440B4
:101AD000D5F8FC2042F08072C5F8FC20D3F8002E27
:101AE0002243C3F8002E53F82020002AF0D003F838
:101AF0002010002030BD1120FCE700BF00ED00E009
:101B000010B501210446094800F0E4FB0848012112
:101B100000F0E0FBA37820786178B3FA83F35B09E7
:101B2000042201F0B9FC002010BD00BF40410500B7
:101B300000350A002DE9F04F9A46554B85B01B78C9
:101B4000DDF83C909DF844B0DDF8508006460F4625
:101B50001546002B00F08B80072A00F28A800E9B2E
:101B6000002B00F08680B9F1000F00F08280129BFC
:101B7000B3F5006F7DDC012802D1109B002B78D0DB
:101B8000444B03EB05131B7B002B74D0424C1022FB
:101B9000002168463EF094FD04EB45141022002F0E
:101BA00057D1394620463EF08BFD43F21003638047
:101BB000BBF1000F03D1E37843F00303E370364A2F
:101BC0000E9BCDF800A002EB451CCCE90193129BC3
:101BD000013BC3F30A009DF84C30690103F0030395
:101BE0009B0643EA001E53582C4818404EEA000357
:101BF000012E535041D11323CCF80C309CE80F0038
:101C00000CF1100E8EE80F00DCF81C20109BCCF8B5
:101C100014306FF0030161F39F02012FCCF81C20F8
:101C200003D1CCF81890CCF804301A4A290102EB01
:101C3000051342F801800027159A5A6028469F60D4
:101C40005E732246694601F0ADFC384605B0BDE83A
:101C5000F08F002120463EF033FD4FF44473638043
:101C6000BBF1000FABD1E37843F03003A6E70C489B
:101C7000ECE70C48EAE70C48E8E7B8F1000FD4D1EC
:101C80009CF8023068F304138CF80230CDE700BFF3
:101C900080470020C81E0020481F00200F80FFF34F
:101CA000028000F0018000F0078000F038B5124B90
:101CB0001B780546DBB1E0B134F0DEFF0F4A0023AC
:101CC0001146147B54B92B601A0101EB0313012553
:101CD0008C501D7334F0D6FF204638BD0133082BDD
:101CE00002F11002EDD134F0CDFF0548F5E70548CB
:101CF000F3E70548F1E700BF80470020C81E002039
:101D0000048000F0028000F0018000F013B534F090
:101D1000B3FF0C4A0023147B7CB90133082B02F17A
:101D20001002F8D1019001F0F3FB074B01981C70F1
:101D300034F0A8FF204602B010BD34F0A3FF0348E2
:101D4000F9E700BFC81E002080470020058000F092
:101D50000D4B1B7810B5044693B1072812D834F008
:101D60008BFF0A4B03EB04131A7B2AB100241C736C
:101D700034F088FF204610BD34F084FF0448FAE7B1
:101D80000448F8E70448F6E780470020C81E002012
:101D9000068000F0028000F0018000F013B5164BC1
:101DA0001868019000238DF8043034F065FF134B60
:101DB0001C7824B134F066FF114802B010BD012236
:101DC0001A7034F05FFF0F4B1C731C7783F82C40A4
:101DD00083F83C4083F84C4083F85C4083F86C40C7
:101DE00083F87C4004230DEB03008DF8073001F0ED
:101DF000AFFB2046E1E700BFD08A04008047002007
:101E0000038000F0C81E00200A4A127808B55AB1B3
:101E100007280BD8084A02EB00131B7B43B10021B3
:101E200001F08CFB002008BD0448FCE70448FAE7F9
:101E30000448F8E780470020C81E0020028000F018
:101E4000018000F0078000F00A4A127808B55AB104
:101E500007280BD8084A02EB00131B7B43B1012172
:101E600001F06CFB002008BD0448FCE70448FAE7D9
:101E70000448F8E780470020C81E0020028000F0D8
:101E8000018000F0078000F00A4A127808B552B1CC
:101E900007280AD8084A02EB00131B7B3BB101F06C
:101EA000D3FB002008BD0548FCE70548FAE70548D4
:101EB000F8E700BF80470020C81E0020028000F025
:101EC000018000F0078000F00D4B1B7893B10728CC
:101ED00012D889B10B4B03EB00131B7B73B10A4B78
:101EE0001A6E012303FA00F010401ABF00200B7095
:101EF00008707047054870470548704705487047A7
:101F000080470020C81E002000200E40028000F004
:101F1000018000F0078000F00B4A127810B50C46E3
:101F200062B107280CD859B1084A02EB00131B7B99
:101F300043B101F09FFB2070002010BD0448FCE776
:101F40000448FAE70448F8E780470020C81E00204C
:101F5000028000F0018000F0078000F02DE9F047DA
:101F60001E4E1F4C326EF36E12EA03080FD54FF06F
:101F70000043B3667068C0F30220030104EB001253
:101F8000E3584BB3BDE8F047526800211847DFF82B
:101F900054900127002518EA070F16D02368B7666A
:101FA0009BB1A16862680131A16028469847637BB4
:101FB000012B0AD148B909EB45131A7B60F34102A2
:101FC0001A731A7F60F341021A770135082D4FEA20
:101FD000470704F11004DED1BDE8F08700200E4071
:101FE000C81E0020481F002070B50C4E0446012575
:101FF00004B970BD94FAA4F0B0FA80F006EB0012B8
:1020000005FA00F324EA03045368002BF0D0117B97
:1020100011B191689847EBE79847E9E7482000201D
:1020200008B5122000F06EFD28B1084B4FF4802255
:10203000C3F880211A600A2000F064FD28B1034B28
:102040004FF48062C3F880211A6008BD00E100E00F
:1020500038B505460C4634F00FFE054B03EB05136F
:1020600000225C601A73BDE8384034F00BBE00BF3C
:1020700048200020F8B505460F46164634F0FCFD12
:10208000104B05F0FC02D3F828140023EC1804F0E0
:102090000304144321FA04FC1CF0010F07D00133A0
:1020A000042BF3D1FF2434F0EDFD2046F8BDFF2CC6
:1020B000F9D0054B03EB04130122C3E901761A732F
:1020C000F1E700BF00A0004048200020054BD3F8F6
:1020D0002804D3F81C24104000F05530C3F8240421
:1020E000FFF782BF00A00040054BD3F82804D3F8C7
:1020F0001C24104000F0AA30C3F82404FFF774BF7A
:1021000000A00040024B1968024B186816F0EEBAA6
:10211000E4100020E010002037B5920004460D4680
:10212000019234F0D7FE431C0BD060B9019A2946C6
:1021300020463EF08DFA0028044808BF002003B076
:1021400030BD0348FBE70348F9E700BF10E000F0AB
:1021500021E000F024E000F010B5044601F038FB67
:10216000431C10D088B901F03FFC20F00300234647
:102170002044984201D1002010BD53F8042B0132B5
:10218000F7D00348F8E70348F6E70348F4E700BF51
:102190000EE000F021E000F024E000F008B534F09B
:1021A0005CFD014B186008BD88280020014B1868B1
:1021B00034F057BD882800200C4B984210D90C4BA6
:1021C000984210D9022201230A490B640A49D1F826
:1021D000003123F0807343EA0263C1F80031704795
:1021E00000221346F0E70122FBE700BF0048E801A8
:1021F0000090D0030000C84300400E400F4B5B68C6
:102200000F4B30B500221C46C9B21D798D4202D158
:102210001D6885420DD20132052A03F10803F4D16D
:10222000032206494B6823F0407343EA02634B6084
:1022300030BD04EBC2025279F3E700BF00000E404C
:10224000248B040070B5084C41F67136256C266469
:10225000FFF7EEFA0021FFF7D1FFADB2B5421CBF88
:102260000023236470BD00BF00000E40044BDB6BF5
:102270005B0604D4034AD2F8C830002BFBD1704768
:1022800000300E400000C64308B5FFF7EFFF024BD9
:102290005868C0F3014008BD00300E40044BD3F82D
:1022A0004421D20703D4D3F840211042FBD1704718
:1022B00000400E4070B5064C41F67136256C266420
:1022C000FFF79CFFADB2B5421CBF0023236470BD75
:1022D00000000E4038B5C0F30323013B092B16D88C
:1022E000DFE803F02616151505191C151F23124CDF
:1022F0000023C0F3043513B11846FFF7CFFF04F1F4
:10230000424404F5801405EBC404A400216038BDE8
:102310000A4C0023EDE70A4C0123EAE7094C10239D
:10232000E7E7094C4FF48033E3E7084C0023E0E78C
:10233000074C0023DDE700BFB0400E40C0400E4018
:10234000E0400E40E8400E40F0400E4050410E404C
:1023500000400E40C0F30313013B092B2AD8DFE8ED
:1023600003F0050B0F1929291F23374B274BD3F8EF
:102370000001C0F304207047244BD3F81401F8E7A0
:10238000224BD3F80001C0F30060431C01209840A9
:10239000013870471D4BD3F80C01C0F3082070477B
:1023A0001A4BD3F80801F8E7194B984204D0194B9F
:1023B000984207D000207047144BD3F8203103F027
:1023C0000F03E3E7114BD3F82031C3F30113DDE72B
:1023D000114B98420CD003F5B01303F5805398428B
:1023E000E8D10A4BD3F82801C0F30120031DCDE743
:1023F000064BD3F82831E8E7084B9842DAD1034B73
:10240000D3F8300100F00300704700BF00400E40D9
:102410008006160080162E0090171A00A0091400DE
:1024200000F00F000138072844D8DFE800F0040F5F
:102430001943232D4335244BD3F8943003F007037D
:10244000023B052B38D8214AD05C70471E4BD3F88D
:10245000803003F00703013B032B2FD81C4AF3E71E
:10246000194BD3F8843003F00703013B032B25D825
:10247000184AE9E7144BD3F8883003F00703013B0F
:10248000032B1BD8144ADFE70F4B1B6F13F0010F10
:102490000CBF0720092070470B4BD3F85C3103F0C9
:1024A0003003202B0CD0302B0CD0102B14BF01206C
:1024B00007207047002070470520704701207047B3
:1024C000042070470820704700400E40F88A04003E
:1024D000FE8A0400028B0400FE8A040008B501464F
:1024E000FFF79EFF1A4B994211D01A4B994212D016
:1024F000194B994204D1194BD3F8800000F0070022
:102500000138032821D8DFE800F00A0E1612134B19
:10251000D3F88400F2E7114BD3F88800EEE7BDE86A
:10252000084034F01FBABDE80840FFF7E5B9BDE840
:10253000084034F01ABAFFF77FF9084BD3F800319E
:10254000C3F300630133D84008BD0020FCE700BF9F
:10255000030020000500240002001E0000400E4081
:1025600000F47813B3F5B01F10B5044674D025D825
:10257000B3F5402F5ED010D8B3F5802F49D005D8E1
:102580003BB1B3F5003F4FD0002010BDB3F5202F75
:10259000FAD1BDE81040FFF74FB9B3F5801F00F046
:1025A0008480B3F5A01F4DD0B3F5602FECD14A481D
:1025B000FFF736FF072878D00928E9E7B3F5381F79
:1025C00053D013D8B3F5001F58D00AD8B3F5D01F95
:1025D00056D0B3F5F01FD7D14048BDE81040FFF703
:1025E0007DBFB3F5101FCFD13D48F6E7B3F5481FC7
:1025F0004DD0B3F5781F65D0B3F5401FC4D139482D
:10260000FFF76CFF384BD3F82831C3F301230433B1
:1026100020E0FFF711F9344BD3F80C31C3F3082352
:102620000133B0FBF3F0B0E7FFF706F92E4BD3F818
:102630000831F3E7FFF700F92B4BD3F81431C3F35C
:102640000423EDE72648FFF749FF274BD3F8303145
:1026500003F00303D84098E72048FFF73FFF224BE1
:10266000D3F8203103F00F03F4E71C48FFF736FFDF
:102670001D4BD3F82031C3F30113EBE71948ACE746
:102680001848FFF72BFF184BD3F82831F3E717480A
:10269000FFF7C6FE072808D0082809D004287FF4D1
:1026A00073AFBDE81040FFF703B9114B18686CE732
:1026B000FFF7C2F80C4BD3F80031C3F3042303FB3C
:1026C000000062E7FFF7B8F80146204634F0C0FA90
:1026D000B1FBF0F059E700BF06000E0002001E003B
:1026E000050024000300200000400E40B800320026
:1026F0000411002010B5FFF7A5FD094B07225A670A
:10270000FFF79AF8FFF758FDFFF7C0F80446FFF708
:10271000BBFD01462046BDE81040FFF7CBBD00BF22
:1027200000400E40014B1880704700BFFE1500208E
:10273000014B1880704700BFFC15002010B504281D
:1027400013D8DFE800F047032F132100294AC1F313
:102750000801D2F86838002BFBD1274A136A23F40A
:10276000FF7323F001031943116210BD214A01F0E8
:102770007F01D2F86038002BFBD11F4A136923F088
:102780007F0319431161F0E71A4A01F07F01D2F883
:102790006438002BFBD1184A936923F07F03194357
:1027A0009161E2E7144AD2F89030536A23F0300383
:1027B00043F010035362146B104BC1F3C31003308A
:1027C0000F2803EA040328BF0F20194341EA0071D0
:1027D0001163CAE74F29074A28BF4F21D2F874383E
:1027E000002BFBD1044A936B23F07F0319439163C1
:1027F000BBE700BF0020C84300400E4000F8FF0FB9
:10280000104A536A13F0300F18D0202913D0302902
:1028100014D000290C4B08BF4FF44003D2F890109D
:1028200033EA0101FAD15B0246BFD2F8A000C0F33F
:102830008020012070474FF40003EFE74FF440037E
:10284000ECE700BF00400E40FF33E10702280AD149
:1028500029B1064B4FF48060C3F8A800596612B145
:102860000220FFF7CDBF0120704700BF00400E409F
:102870000428F8B545D8314B314F13F800C0314B1F
:102880001B5C002943D0304C022834F8106039D149
:102890007C6A14F0300F35D12C4CE46B7C6AE40771
:1028A00005D57D6A25F0300545F010057D62244C84
:1028B0002666274C23449B001D68002DFCD002B3E4
:1028C0006444A4002368002BFCD0022819D1C1B1B4
:1028D0001B4D696A11F0010116D001222021FFF77A
:1028E000B5FFD5F89C70012200210220FFF7C0FF40
:1028F000C7F30A010220FFF721FF2E662368002B91
:10290000FCD0F8BD0021D2E7FFF77AFFE9E71149D3
:1029100031F810103966012101FA03F3D7F890104D
:102920001942FBD1002AECD00124054A04FA0CF428
:10293000D2F890302342FBD1E3E700BF068B0400BE
:1029400000400E400B8B0400108B040000300E4042
:102950008004F2101A8B040010B50446C0B901229D
:102960001146FFF785FFFFF76DFCB4B90D4B04224C
:102970005A67FEF761FFFFF71FFCFEF787FF04466B
:10298000FFF782FC01462046BDE81040FFF792BCED
:102990000128E8D102460146E3E7012CE9D1014BC9
:1029A0000322E5E700400E4038B5FEF781FF002125
:1029B000044600F0BDFA1248FFF7FEFB0122114663
:1029C0000220FFF755FFFFF73DFC0CB1FFF74EFC6F
:1029D0000C4B02225A67FEF72FFFFFF7EDFBFEF7C5
:1029E00055FF0546FFF750FC01462846FFF762FCFD
:1029F0002CB920460121BDE8384000F099BA38BD15
:102A00000148E80100400E40012210B511460320A4
:102A1000FFF72EFFFFF716FC084B05225A67FEF75B
:102A20000BFFFFF7C9FBFEF731FF0446FFF72CFC55
:102A300001462046BDE81040FFF73CBC00400E4078
:102A400010B504461120FFF7EBFC00210122022003
:102A5000FFF70EFF184A217C536A23F00103022975
:102A600008BF43F001035362144B2178C3F8A0144C
:102A7000637AA18843EAC123D362136BA07A217AD7
:102A800003F07F630343E08843EAC02343EAC113B2
:102A900003310F2928BF0F2143EA01731363A37B7E
:102AA000617B1B0143EA0133E17B0B43217B43EA5A
:102AB0000143536310BD00BF00400E400000C843F7
:102AC00038B50E4D01461120FFF7AAFCAA6B0C4B3E
:102AD0000C7813401C434B7844EAC3248B7844EAB7
:102AE0000364CB7844EA0324AB6BA34205D00021F6
:102AF00001220846FFF7BCFEAC6338BD00400E4023
:102B000080E4FFF84209054B53F8223000F01F0023
:102B100023FA00F0C04300F00100704700E100E03C
:102B2000034BD86B80F04000C0F38010704700BFAB
:102B300000300E4042EA0323B3F5007F39D016D8A7
:102B4000B3F5807F31D007D85BB3012B1ED00022B4
:102B5000134603600A60704740F201129342F6D1B7
:102B6000184BD3F824321A0EC3F30743F1E7B3F539
:102B7000407F22D040F2013293420ED040F2012237
:102B80009342E4D10F4BD3F8283202E00D4BD3F837
:102B90002432C3F30722DBB2DBE70A4BD3F8283237
:102BA000E1E7084BD3F81C32F3E7064BD3F81C32AD
:102BB000D9E7044BD3F82032EBE7024BD3F82032AD
:102BC000D1E700BF0081E00F08B5FFF7A9FF20B1F2
:102BD000024AD2F8C830002BFBD108BD0000C64322
:102BE00008B5FFF79DFF80B1FFF7EEFF074B1968AF
:102BF0005A68C1F30121C2F3014291421A688CBFA5
:102C000042F0100222F010021A6008BD00300E409F
:102C1000064B1B68DB0608D5054B1B69C3F3044351
:102C2000082B02BF034B044A1A60704700300E4065
:102C300000400E40D8100020C0EA210137B5FFF750
:102C40006FFF38B12E4B1B78C3F102021023934063
:102C50002C4A13612C492D4DD1F8804145F60E03C5
:102C6000C1F880312B6823F0AA03DB05DB0D0B666E
:102C7000FFF7AAFF234B1B68D80604F0010416D502
:102C8000D1F84031DA01FBD4214B1B680B61214B99
:102C90001B78052B0BD1204B18680190FFF794FF90
:102CA000184B01985968C1F30141FFF703FB194B19
:102CB0001B78023B0A2B0AD8DFE803F00616180936
:102CC00009090909091B1E000020FFF745FE2B68B2
:102CD000DB075EBF0C4B02221A661CB10A4B0022B6
:102CE000C3F8802103B030BD0120EEE7FFF75CFEA2
:102CF000EDE7FFF789FEEAE7FFF7FCFCE7E700BF37
:102D00008347002000300E4000400E403C29002048
:102D10004029002081470020D810002010B50B4C1E
:102D20000B4BD4F890201A601120FFF779FB094B68
:102D30001870FFF749FF084B084A5B68C3F301436B
:102D40001370074B22691A6010BD00BF00400E408F
:102D50003C2900208147002000300E40834700209E
:102D600040290020064942780B6823F4407343EA67
:102D70000223022A0B6004BF024B5B6A704700BF4C
:102D800000300E4000400E4010B5044608B1FFF779
:102D9000C5FFFFF725FF164A136943F004031361CB
:102DA00034F080F834F07FF8124B1B68DB0618D53E
:102DB00033F053FF3DF0C8FC33F053FF34F074F8A8
:102DC00003F0A0FE7CB1FFF739FF0A4AD2F84C317C
:102DD00023F00043C2F84C3144B9BDE81040FEF77F
:102DE00055BD30BFEAE7FFF713FFEEE710BD00BFA8
:102DF00000ED00E000300E4038B5044608B1FFF7A2
:102E00008DFFFFF7EDFE1B4B1B4DD3F8802145F6E0
:102E10000E01D207C3F8801148BF00224FF4207181
:102E2000196648BFC3F88021144A136943F00403AC
:102E3000136134F037F82B68DB0615D533F00DFF3E
:102E40003DF082FC33F00DFF03F05CFE74B1FFF740
:102E5000F5FED5F84C3123F00043C5F84C3144B9A8
:102E6000BDE83840FEF712BD30BFEDE7FFF7D0FEFA
:102E7000EFE738BD00400E4000300E4000ED00E0AE
:102E80000378134A002B437870B514BF042600263C
:102E9000002B8378946914BF02250025002B037949
:102EA00024F03F0443EA0403C47814BF082100213E
:102EB000012C08BF43F0010333432B430B439361C1
:102EC0001368417923F4403343EA0143136070BD32
:102ED00000300E4070B504460E46FFF721FE10B3D9
:102EE000FFF772FE104B5B68C3F301439C421AD09C
:102EF0000E4BD3F80031FEF79FFC022C054602D1A1
:102F00002146FFF7D7F9C4F1020210239340064A85
:102F100013610EB1FFF758FE2CB921462846BDE8D3
:102F20007040FFF7C7B970BD00300E4000400E4042
:102F300013B50246FFF7F4FDC8B152B90D4B01912C
:102F4000D3F80041FEF778FCC4F30422019902FB98
:102F50000002094B1B7843B1084B9A4205D8022066
:102F600002B0BDE81040FFF7B5BF0020F8E702B09F
:102F700010BD00BF00400E4082470020002D3101EF
:102F8000034B02781A7001210020FFF7D1BF00BF68
:102F900082470020224B4AF6E85210B5596B5A631B
:102FA0009A6FD207FCD41B6C13F003031EBF1D4A9B
:102FB0000124C2F8B44A834204D110B9194BC3F8B2
:102FC000B40A10BD032B00D09BB9431E012B10D8AF
:102FD000134A4FF40023D362936FDB07FCD4136CC6
:102FE00023F0030343F0010313640D4A536A1C03E7
:102FF000FCD50B4B9A6FD207FCD41A6C22F003025B
:1030000002431A649A6F12F00102FBD10038054C9A
:1030100018BF01200129C4F8B40A08BF5A63D0E7D9
:1030200000300E400000C6432DE9F04F002389B068
:10303000CDE90233CDE90433CDE90633A0F5E163F0
:10304000B3F5966F04460D46914604D900252846EF
:1030500009B0BDE8F08FB0F5E16F674B8CBF01227E
:10306000002240F0BC80D3F81832C3F30721DBB252
:10307000079104934FF4167A4FF4966BDFF87C8136
:10308000D8F84C700192C7F301773B4605A902A816
:10309000FFF750FDD8F8EC60019AC6F301263346DD
:1030A00006A903A8FFF746FD049B0799A4EB0B0EA6
:1030B000A1EB030C0EFB0CFCBCFBFAF213EB020CB5
:1030C0002CBF012300236145C0D3002BBED1069A3B
:1030D0000398131A0EFB03F3B3FBFAF3C0182CBFCB
:1030E000012300238242B1D3002BAFD1059B02996B
:1030F0005A1A0EFB02FEBEFBFAFA11EB0A012CBFB4
:103100004FF0010E4FF0000E8B429FD3BEF1000F27
:103110009CD1B9F1000F10D0D8F85C2022F4FE4207
:1031200022F00202B4F5E16F42EA0C2218BF4FF020
:10313000020E42EA0E02C8F85C20002D4DD02E4B44
:10314000022FD3F830223ED0032F3FD0012F14BFDF
:10315000D2B2C2F30722120312F4702F7FF476AFBB
:10316000264FFB6E23F470431A43234BFA66022E5C
:10317000D3F830222CD0032E2DD0012E14BFD2B282
:10318000C2F30722120312F4702F7FF45FAF1B4EBD
:10319000D6F8EC3023F470431A43C6F8EC20736E73
:1031A000814238BF014623F4FF73E72923F001036E
:1031B00028BFE721B4F5E16F18BF43F0010343EAEC
:1031C0004103736643E7C2F30742C4E7120EC2E746
:1031D000C2F30742D6E7120ED4E7012537E7D3F84A
:1031E0001832190EC3F30743079104934FF4966AFC
:1031F0004FF4E16B42E700BF0081E00F00300E406A
:10320000304B1A6FD96C11F0010F02F0060244D056
:10321000002A42D0132851D9143813288CBF102308
:1032200008232849013BCA6C180322F47F4240EA74
:1032300003231343CB64244BCA6C1B88C2F30322C1
:103240002833013202EB820003EB5303B3FBF0F3AC
:10325000C86C013B072B28BF072320F0EE6040EA33
:10326000036343F48013CB64184BB3F90030002B95
:1032700012DB03F12800C0F34E030344500800EBB7
:103280004202B3FBF2F20B6D072A28BF072223F09C
:10329000700343EA02120A657047D96C01F001011C
:1032A000114304D1092809D90A380928B6E7DB6C8B
:1032B00013F00103B5D01AB92728AFE70423B0E70C
:1032C0000023AEE700300E40F6400020F84000201A
:1032D000064A074BD3F88039136F23F007031843CE
:1032E000044B10671888FFF78BBF00BF00300E40FB
:1032F0000000C643F4400020374A38B502239363E8
:10330000936B03F00F03022B044602D000252846DE
:1033100038BDE3888088B4F90C504A2B4FD9B3F5F7
:10332000FA7F4ED340F6C3118B4294BF4FF0005149
:103330004FF04051D36C23F0405323F00103002D94
:10334000A8BF43F001030B43D364D2F8EC3043F43D
:103350004073C2F8EC30214B1880D36E43F0807379
:10336000D3661F4BD3F8800900B10420FFF7B0FFEC
:103370001C4B218919801C4BB4F90C20A0881A80A1
:10338000FFF73EFFA37BFBB1012B21D00122608818
:103390001146FFF749FE05460028B7D00E4AD36B09
:1033A00043F48063D3636078FFF7F4FDA37AA3F15D
:1033B0002002534253410A4AC2F89437A7E700213A
:1033C000B8E74FF08051B5E7034B084A9A65DDE74F
:1033D000014B074AFAE700BF00300E40F4400020DE
:1033E0000000C643F6400020F840002077402057F8
:1033F000372110B7044AD2F8443423F003031843AA
:10340000C2F84404704700BF00A00040072AF8B586
:1034100001F0030614461F464FF00F0120D8950017
:1034200000FA05F2A940164833F043FD0321154880
:1034300006FA05F2A94033F03CFD13499DF8183017
:103440002144890001220F60C1F880300F4B02FA3D
:1034500004F4C3F824449DF81C30C1F80033F8BDCF
:10346000A2F10805AD0000FA05F2A940084833F0C2
:1034700020FD0321074806FA05F2A940DBE700BF5B
:1034800000A4004008A400408020851000A0004057
:1034900004A400400CA4004000EB4000F8B50D4629
:1034A0001F46040116463AB1164801238B402044BA
:1034B000CFB100F1C0600360072D4FF00F0115D8A8
:1034C000AB00114806FA03F29940204433F0F1FCB6
:1034D00046B90C4A012101FA05F5224477B102F1FF
:1034E000C0621560F8BD00F18060E4E7A5F1080353
:1034F0009B00064806FA03F29940E6E702F1806273
:10350000EFE700BF0CA0004004A0004008A000406E
:10351000084B4FF40072C3F88020BFF34F8FBFF306
:103520006F8F054B0021D9664FF4AA401962FEF750
:10353000D1BE00BF00E100E000200E40034B034479
:103540009B0081F001011960704700BFA001F110DC
:1035500010B5044601214FF4AA40FEF7BBFEB4F8B3
:10356000013022785BBA9BB243EA02630B4A1360D4
:1035700000231362D36253634FF00043D3664FF0CE
:10358000FF339366064A4FF40071C2F88011E37866
:103590005B01DBB282F80933116010BD00200E40E0
:1035A00000E100E02DE9F041C3B201259D40CB7A56
:1035B0008F7A234ED1F800E00C464FF03008097B9B
:1035C00094F80DC0B5661B0508FB006043EA07438D
:1035D00043EA415322F00302C0F880E0C0F888C0FB
:1035E000C0F88430C0F8982033F046FBF36E2B43CC
:1035F000F366237A13B1736B2B437363637A13B14E
:10360000F36A2B43F3620E4B1A68237923B1DB4331
:103610001B0263F47F431A4063790BB142EA032231
:10362000A3790BB122EA0302E3791A43044B1A602F
:10363000044A9562DD63BDE8F04133F023BB00BF6F
:1036400000200E4000200E4410B5C0B2012484407A
:1036500033F012FB054AD36E23EA0403D366044B0E
:103660001C62BDE8104033F00DBB00BF00200E40CF
:1036700000200E4410B5C0B20124844033F0FCFA9F
:10368000074B1A6A224209D19B6A34EA03030CBF32
:103690000124002433F0F6FA204610BD0024F9E797
:1036A00000200E40054B5A685B68054B41F67132AD
:1036B0001A649A6822F001029A60704700300E4046
:1036C00000000E40034B9A6822F001029A6000222B
:1036D0001A64704700000E40094A0A4BD969C907AD
:1036E00005D512B96FF002007047013AF6E7002ADB
:1036F000F8D001221861DA60D86940F38000704781
:103700008096980000000E4070B5C1B10E4A0023AB
:10371000082550F8234094610C4CD5600133D669DC
:10372000F60705D514B96FF0020009E0013CF6E791
:10373000002CF8D0D469A40703D49942E9D1002021
:1037400070BD6FF00100FBE700000E40809698000E
:103750002DE9F8431C4B884641F671311D6C196404
:103760001A49074648684968996841F00101ADB2B5
:10377000996096084FF00009B14501D3002005E09B
:1037800007EB89042046FFF7A7FF48B10E4B9A6864
:1037900022F001029A600DB100221A64BDE8F8839C
:1037A000C4F30A04C4F50064A408A6EB0901A1420D
:1037B00028BF21464046FFF7A7FF0028E6D18944ED
:1037C00008EB8108D8E700BF00000E4000300E4033
:1037D000234B41F671311A6C10B5196421494C68BC
:1037E0004968996841F00101996001211861D96027
:1037F000D9694C0792B209D5996821F00101996005
:103800000AB100221A644FF0FF3026E00221D9608D
:103810001549D869C00700D569B9D86910F0020008
:103820000BD0996821F0010199600AB100221A6455
:103830006FF0010011E00139EBE741B9986820F021
:103840000100986002B119646FF0020005E0996808
:1038500021F0010199600AB1186410BD1046FCE71F
:1038600000000E4000300E408096980010B590FA8F
:10387000A0F2054C2368B2FA82F223EA00009140DC
:103880000143216010BD00BF00500E40014B0122DA
:103890009A60704700500E40134B1449F0B5002257
:1038A0005D68134E1046D6F8E8714C680B687F07C8
:1038B0000BD4B3F5006F06D012D8B3F5007F02D059
:1038C000B3F5806F01D144F480742B4202D02C42B6
:1038D00008BF18430132092A01F10801E3D1F0BD04
:1038E000B3F5803FEEE700BF00500E404C8B040064
:1038F0000040E00F8B784A789B0143EA82030A7804
:103900001343CA7843EA02130A7943EAC2234A7985
:1039100043EA02338A79043043EA42430001014A10
:103920001350704700200440014B1860704700BFDF
:1039300000008442427801790378002A827870B5C9
:1039400014BF04260026002AC27814BF10250025C3
:10395000002A42794FEA023242EA012242EA030295
:10396000837914BF20240024002BC37942EA034347
:1039700043EA0603027A43EA050314BF4FF4004109
:1039800000212343002A14BF4FF4003200220B43CE
:103990001343014A136070BD002004400D4AD2F861
:1039A000E430D2F8E0109B0003F03C03C1F3811136
:1039B0000B438370D2F8E03003F03F034370D2F83A
:1039C000E830D2F8EC2003F0F003C2F30312134303
:1039D0000370704700FF0FE0024BD3F8FC00000EAD
:1039E000704700BF0081E00F044BD3F8E4301B0E9A
:1039F0000A3303F01F030120984070470081E00F55
:103A000070B5054616461C4619B91448FEF7A8FDC0
:103A10000146402C1BD003D8DCB1202C1BD070BD3C
:103A2000602CFCD1042303FB06F2560806EB41137D
:103A3000B3FBF2F30A4A203B02EAC3032A6822F0EE
:103A400060022A602A6814432C606B61E7E7062352
:103A5000E9E71023E7E70823E5E700BF4041050059
:103A6000F8FF7F0038B50546144619B90548FEF73A
:103A700077FD014601396400B1FBF4F10902696187
:103A800038BD00BF4041050040F6AA63C36041F263
:103A90000502002303604260104A83604361C364EF
:103AA0008264036643678367C3670D4B0D4A984280
:103AB00009D0904207D003F50063984203D003F584
:103AC0008063984201D100230365002390428365FF
:103AD00002D0054A904200D1C3657047F9FF01004A
:103AE0000000014000040140000C014038B50446CC
:103AF00039F028F80FCC044D0FC594E80F0085E885
:103B00000F00002038BD00BF4429002047F6FF7396
:103B10009A42F0B56BD002296BD8374D05EBC10640
:103B200015F83130B078012838BF0120012B4FEA59
:103B3000C107044613D1F3781B1A0020984202D320
:103B4000E018C0B2F0BD191AA3EB5101756835F940
:103B500011509542CCBF01F1FF330846EEE7706883
:103B60000028EFD0B0F90030934204DBB0F9023006
:103B70009342B8BF13468288FF2A04BFB0F90610EB
:103B8000B0F908C03D440FBF01260026C8214FF000
:103B9000280C6D78CA1A92FBFCF2324412B295429C
:103BA00001DD002A01DA6A1E12B24FF47A7700EBC7
:103BB000C2060132F188B66812B213FB016121EA34
:103BC000E171954201F15C01B1FBF7F104DD00EB1D
:103BD000C206B6888E42EAD200EBC20232F8040C6A
:103BE000884228BF0846A04238BF2046A9E7FF20E8
:103BF000A8E70020A6E700BF442900200229F0B56D
:103C00005FD8314B13F83100012816D103EBC10105
:103C10008C78C878012C234638BF0123904294BF8A
:103C2000C3EB0003C3EB0203DBB2001B4A68834211
:103C3000C8BF002332F91300F0BD002A3FD003EBC8
:103C4000C1014B68002B3CD08878904202D3B3F975
:103C50000200F1E7CC78B3F900009442ECD94C783B
:103C60009988A1F1FF06013C714203F10405E4B219
:103C7000714103F10C071FFA82FCCEB2B44216D890
:103C800005EBC1014FF47A75B1F9024049686A4306
:103C9000521A04EBD47102EB610292FBF4F29042EF
:103CA000CADBB3F902009042C6DC10B2C4E737F8B1
:103CB00031E0E64501F10106E2D33146DDE7034894
:103CC000BAE70348B8E700BF442900200CFEFFFF15
:103CD0000080FFFF08B50448FFF708FFBDE8084073
:103CE000012038F052BF00BF948B04007FB5094B10
:103CF00009490222CDE901234FF08373CDE9031373
:103D00004FF0FF300D2301A9059338F07BFF07B07A
:103D10005DF804FB006A180006010C00024B034822
:103D20000122C3F8002670470010C84300000F406E
:103D3000094B98420ED003F58063984209D10122C5
:103D4000064B03EBC2035A68054B13449B00002249
:103D50001A6070470022F3E700000F404C8C04000B
:103D60008005F21010B504462369DB07FCD404F18A
:103D7000800032F0CEFF014B236510BD5105450197
:103D80002DE9F04381468BB016461F460C460029AC
:103D90004FD1FFF7C3FF01460446484633F0ABF965
:103DA0004FF0010899F86C5009F15C01C5F10E0360
:103DB0002A460DF109008DF808303CF059FC05F158
:103DC0000903C5F10F01CAB20DEB030000210192F6
:103DD0003CF076FC019A0123C2F110008DF81730F7
:103DE00002AB184400213CF06BFC32F036FF02A914
:103DF000054604F18000019032F08BFF0E4B0198D4
:103E000023652369DB07FCD406A932F09FFF28460F
:103E100032F027FF3A4606A930463CF029FCB8F1BB
:103E2000000F02D02046FFF783FF00200BB0BDE853
:103E3000F0834FF00008B5E7055101002DE9F04F80
:103E400089B00546DDF8489016461F460C4639BB3A
:103E5000FFF764FF01460446284633F04CF94FF063
:103E6000010B6B6C33446B6432F0F7FE8246D6B9BB
:103E7000504632F0F6FEBBF1000F0ED032F0EDFEF0
:103E800005F14C01064604F1840032F05FFF304634
:103E900032F0E7FE2046FFF74BFF09B0BDE8F08F98
:103EA0004FF0000BDDE72B79102EB04628BF4FF006
:103EB0001008012B0DD11022002168463CF000FCB7
:103EC0003946424668463CF0D3FB69462046FFF738
:103ED00049FF394604F18C0032F01BFF124B236579
:103EE000012363652369DB07FCD404A904F1800086
:103EF00032F02CFF04A9424648463CF0B9FB297930
:103F000061B9102268463CF0DBFB494642466846F0
:103F10003CF0AEFB69462046FFF724FFC14447440E
:103F2000A6EB0806A3E700BF4805590330B504888F
:103F300004F4E043B3F5005F35D1C4F30223042B4E
:103F400031D181F0AA6383F4807333F47E1309D0F6
:103F500081F0AA6383F4007333F47E130CBF012352
:103F6000002300E001230BB1C1F30543174D21F4F9
:103F70007E11A94225D1B4F5105F22D1191F0C2959
:103F80001CD813F0010319D1073A062A16D8428823
:103F9000C02A16D0B2F5807F16D0802A14BF6FF0E9
:103FA0008600002030BD42F204039C4204D181F01F
:103FB000052383F48013CFE70023D4E76FF0860056
:103FC000F0E76FF08500EDE71846EBE700014005EC
:103FD0002DE9F04FA7B01D46DDF8D880DDF8EC9054
:103FE0000992DDE9343607468A4629B96FF0860220
:103FF000104627B0BDE8F08F0028F7D0309A002A8D
:10400000F4D0329A12B9339A002AEFD143BB002E72
:10401000ECD1389A002AE9D0B9F1000FE6D03A9AEB
:10402000002AE3D0399A002AE0D03A8802F4E0412D
:10403000B1F5005F79D1C2F30221042975D185F071
:10404000AA6282F4807232F47E1212D085F0AA62E3
:1040500082F4007232F47E120CBF0124002409E0C5
:10406000002ED6D0B8F1000FC0D0379A002AD0D198
:10407000BCE701240CB1C5F30544319AC9F80040EE
:10408000294638463493FFF751FF02460028AFD146
:104090007A88099BB3EBD20F4FEAD20BA6D3379B9A
:1040A0009E4256D83A9B9C4253D8349B434508D2F3
:1040B0009A19904505D21946324640463CF0E6FA38
:1040C0004346702200210AA834933CF0F9FA5A467C
:1040D00051460DF12D00CDF850B03CF0C9FA1E4A02
:1040E00025F47E15954231D13A88349BB2F5105FA4
:1040F0002CD1D9F800200393339B06920293399A6E
:10410000329B0193319B0093CDE90482309B324670
:1041100001210AA833F00BF9024688B9389B1E60CA
:1041200070210AA833F0FBF862E742F204018A42E8
:1041300004D185F0052282F480128BE7002499E7F0
:10414000389900230B60C9F80030E9E76FF0850269
:10415000E6E76FF089024BE7000140052DE9F04FDB
:10416000ABB0DDE938A4DDE93B65894609929846A4
:104170000746002800F0A280002900F09F80349BB1
:10418000002B00F09B80369B1BB9379B002B40F027
:104190009580BAF1000F02D1002C40F08F801DB93C
:1041A0003D9B002B40F08A803E9B002B00F08680D8
:1041B0003A9B002B00F08280359A41463846FFF743
:1041C000B5FE0246002866D17A88099BB3EBD20F70
:1041D0004FEAD20B72D33D9B9C4272D8AA4509D2BA
:1041E0000AEB0402954205D25146224628463CF08D
:1041F0004DFAAA46702200210EA83CF061FA5A46F8
:1042000049460DF13D00CDF860B03CF031FA2E4A40
:1042100028F47E1800219045CDE90A11CDE90C1152
:1042200049D13A88B2F5105F45D1379B0293369B4E
:1042300001930AAF359B00932246CDE90457349B86
:104240000696CDF80CA00EA833F071F80246C8B956
:104250003A9B384603EB060C90469C451FD11EB195
:104260003146384633F05BF8B8F1000F20D03E9A63
:10427000002313601CB12146284633F050F86FF03C
:10428000940204E01EB13146384633F048F87021FC
:104290000EA833F044F810462BB0BDE8F08F10F8AC
:1042A000011B13F801EB81EA0E0148EA0108D4E78B
:1042B0003E9B1C60EBE76FF08502E8E76FF086023B
:1042C000E9E76FF08902E6E7000140052DE9F04FCC
:1042D0002DED048B984609EE100A8BB09246002310
:1042E000B8F1000F19D0D8F800401029CDE90233F9
:1042F000CDE904330CBF0823102308EE903A0025C3
:1043000055450CD3B8F1000F01D0C8F8004000208B
:104310000BB0BDEC048BBDE8F08F4446E5E75CB123
:10432000199B1A9A1B5D525D53401B9A01345355D9
:1043300004F00F040135E3E7FFF7F0FC4FF44043CE
:1043400044600360064632F088FC18EE902A074667
:1043500019EE101A304632F02EFD06F1840318468D
:10436000189908EE103A32F0D4FC384632F079FC55
:104370001B9BAAEB050727F00F07103B2F4406F104
:10438000A00B0193BD4235D11A9B3B4406AD03F10E
:10439000100C186859682A4603C20833634515464D
:1043A000F7D10F2F0ED91B9B3B4402AD103B0DF1F3
:1043B000180C2A4603CA624518605960154603F175
:1043C0000803F6D11B9B06F180091F4403EB0A0585
:1043D000AF4237D132F041FC1899054618EE100A69
:1043E00032F0B4FC284632F03CFC3046FFF7A0FC2B
:1043F000554685E732F031FC224B336581463369FF
:10440000DA07FCD41A9B5846591932F082FC0F2D5A
:104410000ED9019B0DF1080C5A190DF1180E6346C7
:1044200003CB7345106051609C4602F10802F6D13F
:1044300002A906F1800032F089FC484632F011FCF6
:1044400010359FE774B932F008FC0E4B3365834694
:104450003369DB07FCD44846199932F077FC58469B
:1044600032F0FFFB04F128030DEB0302199B12F855
:10447000102C1B5D0134534007F8013B04F00F047E
:10448000A6E700BF480503012DE9F04F8DB0DDE937
:104490001864DDE91A57DDF870A081469B4688460E
:1044A000002900F0B580002A00F0B28016B9002C77
:1044B00040F0AE8015B9002F40F0AA80BAF1000F8D
:1044C00000F0A68054498B4509D01ED853498B452E
:1044D00005D02BF48070A1F5806188425FD1B9F8D6
:1044E0000010B1F5105F5AD1B9F80210B2EBD10F3C
:1044F00055D3802902D0B1F5807F50D16CB9CAF86C
:10450000004000200DB0BDE8F08F45498B45E6D056
:104510002BF40070A1F58071DFE7AE420AD23219A8
:10452000954207D2BC4273D83146224628463CF019
:10453000ADF82E46384AB9F8029093454FEAD909AA
:1045400064D002F5407293452CD0344A934526D16D
:10455000BC425DD814F00F0B5AD105EB0B0300934E
:10456000012206EB0B034946404632F01AFF0028B1
:1045700041D10BF1100B5C45EFD8C0E7179B102B16
:1045800046D1169B0DF1100C03F1100E18685968F6
:10459000624603C2083373459446F7D11DE06FF0BD
:1045A0008500AFE7BC4233D8179B0D2B30D10123D8
:1045B0008DF81030169B0DF1110203F10C0153F828
:1045C000040B42F8040B8B42F9D11B7813700023C3
:1045D0008DF81E3001238DF81F3008AB019304AB1A
:1045E0000093CDE902650023224649464046FFF785
:1045F0006DFE002883D03A46002128463CF060F842
:104600000023CAF800306FF092007BE7BC42B5D9B6
:104610006FF0860076E700BF0010C004004440043D
:104620000012C0042DE9F04F91B0DDE91A4ADDE92E
:104630001C56DDF8788007469B46894629B96FF0FD
:104640008609484611B0BDE8F08F002AF7D014B9AA
:10465000BAF1000FF3D10DB9002EF0D1B8F1000F6F
:10466000EDD0584B9B4514D00BD8574B9B4510D0E1
:104670002BF48071A3F5806399420AD06FF085090D
:10468000DFE7524B9B4504D02BF40071A3F58073F8
:10469000F2E73B88B3F5105FF0D17B88B2EBD30F24
:1046A000ECD3802B02D0B3F5807FE7D1BAF1000FB5
:1046B00003D1C8F800A0D146C3E7AC420BD204EB4B
:1046C0000A039D4207D2B245B9D821465246284630
:1046D0003BF0DCFF2C463B4B7F889B454FEAD707DE
:1046E0005CD003F540739B4523D0374B9B45C5D128
:1046F000B245A4D81AF00F0BA1D148463B4608AAF0
:10470000394632F088FE814600289AD105EB0B032A
:104710000093002204EB0B03394608A832F041FE57
:10472000814690BB0BF1100BDA45EFD8C8F800A01A
:1047300087E7AAF10D0AB24541D801238DF8103060
:104740000DF11102234604F10C0153F8040B42F859
:10475000040B8B42F9D11B78137000238DF81E30A7
:1047600001238DF81F300D3404ABCDE900334846EA
:10477000CDE90245002352463946FFF7A7FDC8F8A8
:1047800000A0814600283FF45CAF32460021284655
:104790003BF096FF0023C8F8003052E7AAF1100A58
:1047A000B2453FF64CAF04AA04F1100C20686168D2
:1047B000134603C3083464451A46F7D1D4E76FF0B3
:1047C00089093EE70010C004004440040012C00400
:1047D00010B54FF42F72044600213BF071FF802387
:1047E000C4F88C30054BC4F88430012384F8883039
:1047F00004F19C00BDE8104032F0BAB85C8C0400B3
:1048000010B5D0F8A0400A4674B933F012F8044647
:1048100040B12D2896BF074B074953F82010074891
:1048200033F057F9204610BDD0F8A4101046A04729
:104830000024F7E7088D0400658C0400CDB5040062
:1048400073B590F8805004461DB10025284602B08B
:1048500070BD32F01CFE0028F7D1012384F88030AF
:1048600094F8883033B1D4F884101A4884F888500A
:1048700033F02FF94FF0FF36D4F8B402421C22D0A7
:10488000C4F8B46210F0FF011BD02046019132F051
:10489000FBFD0199204600F0A7FB0028ECD0204644
:1048A00032F003FE94F888303BB1D4F88410094804
:1048B00033F00FF9002384F88830002384F8803027
:1048C000C4E70125D8E733F0E9F8431CDAD1012524
:1048D000F3E700BF4AB10400F8B50B78302B05466A
:1048E0000E46174604D14B7803F0DF03582B12D045
:1048F0002A49721E12F8014F002C39D10A22214692
:10490000304631F013FA202D03460A4635D1631A9A
:104910005842584118E04A1C204912F8013FA3B9F7
:1049200030463BF0DFFE1E4B2B40032BA0F1020074
:1049300015D16B1C48BF2B1D9B1083420BD1B07847
:1049400037288CBF00200120F8BD5B5C13F04403C6
:10495000E3D11846F8E7CCBF01200020F4E7002D92
:10496000B8BF0335B0EBA50FD4BF01200020EBE7A3
:10497000635C13F00403BDD1EBE727B1084302D019
:10498000013B61F10002012000FA05F5013D1D40E7
:10499000002A08BF9D4218BF0020D5E7551B05001F
:1049A0000300008070B503787B2B16D10C4E0546B2
:1049B0000221002215F8014F7D2C05D1435C63B91B
:1049C000D04300F0010070BDA35D13F0440302D09A
:1049D00001320131EEE7202CFBD00020F3E700BFCD
:1049E000551B050070B506460D463BF07BFE0446A0
:1049F000304633F06EF8044EAC4200D370BD304602
:104A000033F067F80134F7E77CA804002DE9F84F8C
:104A1000044602215048FFF7E5FF1E212068FFF7FA
:104A2000E1FF6368586833F054F84C4833F051F8AC
:104A300067683B7BFD2B12D8D7F80880DFF8189108
:104A4000DFF878A1DFF850B140463BF04BFE0C3761
:104A500005464FF0FF3617F8013BFF2B01D1BDE8AB
:104A6000F88F212B17D8212B33D8DFE803F06D7393
:104A70006F11181A1C1E3232323232323232202278
:104A80002426282A2C2E3232323232323232693007
:104A9000334C1DB31FE0FE2B5AD0324CF9E7324C99
:104AA000F7E7324CF5E7324CF3E7324CF1E7324CA2
:104AB000EFE7324CEDE7324CEBE7324CE9E7324CB2
:104AC000E7E7324CE5E7324CE3E7324CE1E7324CC2
:104AD000DFE7244C05B10136202BBCD0022148462B
:104AE000FFF780FF1E214846FFF77CFF504632F05B
:104AF000F0FF594620463BF0EBFD2849002818BF3F
:104B00002146274832F0E5FF3B78202B02D12B20AD
:104B100032F0D3FF234832F0DCFF4DB118F80630F5
:104B20001F2B05D018F806001F2801D0AE4203DB6A
:104B30000A4832F0CEFF8EE732F0BFFF0136F1E7D0
:104B4000002D88D0184CC6E7184CA2E7184CA0E7F7
:104B5000184C9EE7184C9CE735E90400529204007B
:104B6000D68D0400C08D0400258E0400DC8D040069
:104B70001D8E0400198E0400108E0400068E0400A1
:104B8000FC8D0400118E0400078E0400FD8D0400CE
:104B9000F28D0400EB8D0400E28D0400D38D04003F
:104BA0004AB1040031A30400C88D0400D58D04006F
:104BB000DB8D040009CE0400248E0400E9BA040051
:104BC0002DE9F04F9DB005468846914604933BF091
:104BD00089FD269F049B079000261E600CAA3E605C
:104BE0000BA9284632F096FF0446002840F0C28008
:104BF0000C983BF077FD049B01941860D5F89C302D
:104C000003932646039B1BB920461DB0BDE8F08FD9
:104C1000039B9B680293002B77D02E4416F8013B30
:104C2000202B13D000260C23029A734302EB030BB4
:104C3000D158002964D00B9B019A069393425FDB05
:104C40009BF8083033B106F1010A3FE03B680133BD
:104C50003B60E3E73B68D5F894200591D21A049BAA
:104C60001A60019B1CA800EB830353F8403C099396
:104C700018463BF03FFD82460028E4D10599089193
:104C800008463BF02FFDDBF80430059393F80CC089
:104C9000D7F800B0BCF1FE0FDDE9081302461AD1C7
:104CA000069800F1FF3E0198864514D0059A1846F3
:104CB000126802923BF016FD0BF1010B584438606C
:104CC0003B68EA5C22B1019B013301935646AAE797
:104CD00001333B60F4E7D5F894300991A3EB0B0363
:104CE0009342089221DC40463BF0FCFC089A09996B
:104CF00010447B280DD9204A4946404631F05FFEDA
:104D0000079BEA182B4693422DD1039B1B68039304
:104D100078E70A464046494631F051FE174A49466F
:104D20004046013431F04BFE8DE7BCF1FE0F8AD1D5
:104D3000069B019A013B934285D1059BD3F800A0C5
:104D40005AF80C2B22B9079B3B60049B1A60D7E7EB
:104D50004946404631F033FE084A4946404631F064
:104D60002EFE0134ECE7197811B94FF020011970CB
:104D70000133C8E7344647E72B8E04007CA80400C3
:104D80002DE9F04786B0DDE90EA800241C60064638
:104D900089468AF800401168154888F8004017468F
:104DA0001D468DF81740FCF7D3FD18B92B68013369
:104DB0002B600124D6F89C60002036B914B1012381
:104DC00088F8003006B0BDE8F087B06868B14B469F
:104DD000CDE902A8CDE900750DF11702002132F0EE
:104DE000C7FC9DF81730002BE8D13668E5E700BF17
:104DF000308E04002DE9F0470026ADF5447D0446D1
:104E00007C22314605A80DF1080804963BF058FCB9
:104E1000CDF8008003AB802204A92046FFF7D0FE26
:104E200001283ED104A83BF05DFC0399D8F800307E
:104E3000471A0B44234427EAE777054604A80144B0
:104E40003A4618463BF014FCC655D4F89060039BD4
:104E5000D8F80010D4F890201944B14212DCD4F8EC
:104E60009410E81A0244C4F89020014404AAC4F83B
:104E70009410D41825182B1B002B0DDC0DF5447D48
:104E8000BDE8F087A05C32F018FED4F89030013312
:104E9000C4F890300136DAE714F8010B32F00DFE59
:104EA000E9E7EBDD24AD8022314628463BF008FCE3
:104EB00044AB4FF40072184631463BF001FC0DF153
:104EC000100A034652464FF0010912F8017B002FE9
:104ED00048D143F8296004A83BF004FC29463B462E
:104EE0001AF8016B44AF57F8042B824243D10133C7
:104EF000994501F8016BF3DAD4F89060039BB34253
:104F000042DC374A3748234604A932F0E2FD2846FE
:104F10003BF0E8FB039ED8F8007035443744861B0D
:104F200026EAE672E3191744E01904F19001884279
:104F30004FD904F198018B424BD26A1E1846991939
:104F40000B1A002B39DD12F8013F00F8013BD4F8B1
:104F500090300133C4F89030D4F894300133C4F861
:104F60009430EDE7202F06F1010604BF43F82960D5
:104F700009F10109A9E70DF1100C6244D25CB242BB
:104F8000B1D00022EA54B7E7D4F89030E05C32F0B8
:104F900094FDD4F890300133C4F890300136ADE779
:104FA000D4F890200132C4F89020D4F89420013233
:104FB000C4F89420013B002BF2DC0023E3552E447F
:104FC000731B002B7FF75AAF15F8010B32F075FDFC
:104FD000F6E7184629463BF04BFB3346EBE700BFAC
:104FE0005C8C0400358E04002DE9F843D0E924568A
:104FF00004460F46002294F89830012B06D10A2F60
:1050000006D1002084F89800BDE8F88300F2A08063
:105010001B2F03D1022384F898303BE0A7F10D0247
:1050200053425341082F84F8983035D1002D30DD9C
:10503000B5420FD1384632F040FD202032F03DFD20
:10504000013D384632F039FD00236355013EC4E985
:1050500024561FE0FBDA05F1FF38384632F02DFD0B
:1050600004EB0803A6EB0802611918463BF00EFB9F
:105070000022A25501464E4832F02BFD013E354636
:10508000454501DC4546E2E7082032F016FD013DCA
:10509000F6E7DCD10020B7E77F2F1CD1002EF9DD29
:1050A000B542F7DA6319691C721B214418463BF0BC
:1050B000EDFA00220146A2553E4832F00AFD0820D2
:1050C000013E32F0FAFCB542F9D1D4F89430013BFC
:1050D000C4F89430DEE70D2F01D00A2F0AD10D203D
:1050E00032F0EBFC0A2032F0E8FC0023C4E9243360
:1050F000012089E7092F03D12046FFF77BFEC9E78E
:10510000D4F88C30013BB342C4DDB54204EB050852
:1051100005F101090CDB88F80070D4F89430C4F86C
:1051200090900133C4F89430384632F0C6FCB1E7B1
:10513000721B414604EB09003BF0A8FA404632F0EE
:10514000C8FC0820013E32F0B8FCB542F9DDE2E7C8
:10515000022B06D15B2F01D103235CE784F8982052
:1051600049E7032B96D1413F84F89820032F91D82B
:10517000DFE807F002070A150121204632F045FC5E
:1051800088E74FF0FF31F8E7B54283DA605D32F02F
:1051900094FCD4F890300133C4F890307AE7002DB5
:1051A0007FF778AF013DC4F890500820BDE700BFFD
:1051B0003E8E040016A404007FB5094B6A4603F135
:1051C0001006154618685968144603C40833B342DC
:1051D0002246F7D12846FEF78FF8002004B070BDB4
:1051E000448E040070B5184B86B001AA03F1100676
:1051F000154618685968144603C40833B34222465A
:10520000F7D11B882380114BD3F8B420120311D49B
:10521000D3F8B830C3F308030D48ADF80A30FCF7F3
:105220004DFB2846FDF70CFC3220FDF781FA0020EB
:1052300006B070BD074B1A884FF6FF7140F2471356
:105240008A4218BF1346E7E7548E04000081E00F3E
:1052500000F049020001E00F07B5084B1868019003
:10526000202301A88DF80430FDF72AFC6420FDF707
:1052700059FA002003B05DF804FB00BF668E0400FD
:1052800010B50C480C4C6FF00402A02112F0800FF6
:10529000D3B21BBF03F00F03043BA3181B1802F18A
:1052A00001020CBF83F800131976332AEED10020D7
:1052B00010BD00BF00ED00E000E100E010B50446C5
:1052C00031F0CBFC024B1C6031F0CBFC002010BD58
:1052D0006C29002010B531F0C0FC034B1C6831F084
:1052E000C0FC204610BD00BF6C29002013B513463A
:1052F0000C4618B90192FFF7EDFF019B01462246CB
:10530000044812F0CBF80028D4BF3720002002B0A8
:1053100010BD00BF8D7C030030B5144687B0054634
:10532000104632F0E7FC636983423CBFD4E90331A5
:105330005B181B1A02467BB10F4903910021CDE98E
:105340000131012300930494D4E90013284631F07D
:1053500034FC002007B030BD0122627694F82D2085
:10536000002AF6D084F835301321E36920469847A7
:10537000636A20469847ECE7195300002DE9F0478F
:1053800088B0044688461746994631F075FC824637
:10539000002F7BD0237E03F0FF02002B00F0A380C0
:1053A000204632F0A7FC6669B04205D1637ED4E99D
:1053B00003521544AD1B01E0F9D9851BBD4228BF3E
:1053C0003D4631F059FC94F82D300646002B6ED145
:1053D00061692A4640463BF04BF963692B4463619F
:1053E0002F4621E0037803F0FD0111295CD1216BE8
:1053F000814205D1A3F111014B424B4184F8343075
:10540000013F6369216B8B4203F1010308BF2363F2
:105410006361013295426069E4D1D4E90323216BD1
:105420001344994200D12263D4E903236169207AAD
:10543000134499424FF0000508BF62616576FCF79E
:10544000E3FC204632F056FC6369834232D194F883
:105450002D302576E568656103B12563636A2046D2
:105460009847224B0393002302932369019301235E
:10547000009321686368207A04942A4631F09DFBEA
:10548000207AFCF7E1FC304631F0FCFB5046C9F8CD
:10549000007031F0F7FBD9F80030002B0CBF1B2057
:1054A000002008B0BDE8F08708F8013BA9E72F46C7
:1054B0000022AFE701232376207A0DF11E01FCF7CD
:1054C0002BFD9DF81E30002BDAD00DF11F01207A44
:1054D000FCF7FAFC9DF81F100029D1D1207A224652
:1054E000FFF71AFFCCE71746D0E700BF19530000BB
:1054F000002808DB0123420900F01F0003FA00F036
:10550000014B43F82200704700E100E0002809DB6E
:105510004309012200F01F0002FA00F06033024A42
:1055200042F82300704700BF00E100E070B5044678
:105530000568FFF7CFFE844202D10020FFF7BEFED0
:1055400095F93600FFF7E2FF95F93630002B0DDBB9
:105550005A09012103F01F0301FA03F3203218490D
:1055600041F82230BFF34F8FBFF36F8F95F93700AB
:10557000FFF7CCFF95F93730002B0DDB5A090121DD
:1055800003F01F0301FA03F320320D4941F82230E2
:10559000BFF34F8FBFF36F8F287AFCF775FC287A23
:1055A000FCF7D6FBFCF7B2FB0023C4E90033C4E9E7
:1055B0000433A3602846AB6ABDE87040184700BFBB
:1055C00000E100E02DE9F0410C461546064686B0A4
:1055D0004022002120461F463BF072F8002395E848
:1055E00003002A692376EB68E360C4E904232A7D7B
:1055F00084F82C20AA7D2363012384F8343084F8B6
:1056000035300C9B236284E803000D9B63620E9B84
:1056100084F82D20E761A3622B7A84F836306B7A08
:1056200084F837302D4B73602D4BB3602D4B3361B5
:105630002D4B346073612D4BF360FCF7AFFB38B139
:105640002B4B984204D01024204606B0BDE8F081D0
:10565000002104F10800FCF729FB07460028F2D1DD
:10566000244B33624FF00108234B84F83C80B36134
:10567000224BF3619DF8403084F83B309DF83C307C
:1056800084F83A3084F83900697D84F838802046FF
:1056900032F041FB95F90900FFF738FF95F9090051
:1056A000FFF726FF164B0494CDE902732369CDE979
:1056B00000836368E2682168207A31F07EFA04464C
:1056C0000028C0D195F90800FFF720FF95F90800E0
:1056D000FFF70EFF3046FFF7F1FDB5E7677D0300EA
:1056E0007D530000E37C0300E97C03002D5500009E
:1056F000038000F0B97C0300177D0300EF7C0300FA
:10570000195300002DE9F04186B01C46524B0C9D08
:105710000293524B01930126514B0093CDE903664E
:10572000504B90460A462946FFF74CFF0746002893
:1057300056D123682B6463686B64637A85F84930BB
:10574000237A85F84830E37A85F84B30A37A85F8D8
:105750004A30637B85F84D30237B85F84C30E37B02
:1057600085F84F30A37B85F84E303F483146FCF733
:10577000B1FD3E483146FCF7ADFD617A207A3346F3
:105780000422FDF789FE33460222E17AA07AFDF772
:1057900083FE60683146FCF79DFD88F80070414645
:1057A000206831F0A0FB2268536F43F00303536776
:1057B000936FA17C23F4F85323F01F030B43617C08
:1057C00043EA012303219367516785F8507098F8E5
:1057D0001930202B2CD007D803B3102B09D0232746
:1057E000384606B0BDE8F081302BF8D185F850106E
:1057F00002E085F850603E4600230222617B207B58
:10580000FDF74AFE2368E27CDA675A6E42F0040232
:105810005A665A6F42F010025A6766B92A6C2068BD
:10582000D36C43F00403D364052131F055FBD7E773
:10583000022385F85030E17BA07B00230422FDF792
:105840002BFE2368217DDA6F42EA0122DA675A6F64
:1058500042F020025A67E1E7917E0300857E030053
:105860001D7F0300117F03004041050000350A0041
:1058700007B501F05DFB6A4601F0C0FB18B10448B2
:10588000522100F0DBFADDE9000103B05DF804FB12
:105890006A8E040008B501F087FA18B102487A212F
:1058A00000F0CCFA002008BD6A8E040008B500F0B4
:1058B00029FA0E4A536A43F4E0235362EFF3088354
:1058C0000B4A043B4FF0CD3193420BD2094B0122DE
:1058D0001A6100F049FCFFF7DDFFBDE8084006480B
:1058E000FEF704B943F80419EEE700BF00ED00E04D
:1058F0000000002000300E40948B040007B5042205
:105900000DEB0201002037F0C3F8042804D005484D
:1059100040F2671100F092FA019800F0D3FB03B057
:105920005DF804FB6A8E040010B548400A0A074976
:10593000C0B2082300F00104400804B14840013B14
:1059400013F0FF03F6D1504010BD00BF2083B8ED27
:105950002DE9F047144C154FDFF85890DFF85880C8
:10596000002557F8043B224649460020EEB232F0AB
:1059700096F92378A2460134002BFAD19AF8013027
:105980007BB10B4906F00306032E08BF41460020F9
:1059900032F085F99AF801300135002BE1D1BDE8EC
:1059A000F0874146F3E700BF889A0400001000200A
:1059B00070CF0400CE8E0400519204006B4B1B8804
:1059C00040F6052293422DE9F0410ED8B3F5206F41
:1059D0000DD840F20252934218D040F20172934225
:1059E00020D040F2015293420AD0BDE8F081A3F6E4
:1059F00002235F4C032B1ED8DFE803F0376396B217
:105A00005C490020BDE8F04132F049B95A49002014
:105A100032F045F9564B1A6C5849BDE8F041002068
:105A200032F03DB9524A5649BDE8F041D2E924234B
:105A3000002032F034B95349002032F030F994F8A4
:105A400068309E0703D55049002032F028F994F8B9
:105A50006B305D0603D54D49002032F020F994F9F2
:105A60006B30002BC1DA4A49CBE74A49002032F0BB
:105A700016F994F86430980704D0226C3F4900204E
:105A800032F00DF994F96430002B04DA226F4249A8
:105A9000002032F004F9414FDFF80C810025012687
:105AA000626E06FA05F3134207D057F825201378E3
:105AB0001BB14146002032F0F2F80135082DEFD13C
:105AC00093E73749002032F0EAF82C49226C002095
:105AD00032F0E5F894F86530590703D531490020D4
