:1000000008100020C10100002D2000009F210000E9
:100010002D2000002D2000002D2000002D200000AC
:100020002D2000002D200000BC2800002D20000005
:100030002D200000042900002D2000002D200000AC
:100040002D2000002D2000002D2000002D2000007C
:100050002D2000002D2000002D2000002D2000006C
:100060002D2000002D2000002D2000002D2000005C
:100070002D2000002D2000002D2000002D2000004C
:100080002D2000002D2000002D2000002D2000003C
:100090002D2000002D2000002D2000002D2000002C
:1000A0002D2000002D2000002D2000002D2000001C
:1000B0002D2000002D2000002D2000002D2000000C
:1000C0002D2000002D2000002D2000002D200000FC
:1000D0002D2000002D2000002D2000002D200000EC
:1000E0002D2000002D2000002D2000002D200000DC
:1000F0002D2000002D2000002D2000002D200000CC
:100100002D2000002D2000002D2000002D200000BB
:100110002D2000002D2000002D2000002D200000AB
:100120002D2000002D2000002D2000002D2000009B
:100130002D20000010B5054C237833B9044B13B1C2
:10014000044800E000BF0123237010BD70100020A0
:1001500000000000582A000008B5034B1BB10349FA
:10016000034800E000BF08BD00000000741000203C
:10017000582A0000064B0748DA1C121AC11E22F04A
:100180000302994288BF0022034902F001BB00BF6D
:100190007010002010100020642A0000064B074851
:1001A000DA1C121AC11E22F00302994288BF0022F3
:1001B000002102F0FABA00BF48130020701000209E
:1001C00008B5084B83F30A88074B084AC3E90022A5
:1001D00000F00EF800F040FCFFF7CCFFFFF7DEFF69
:1001E00000F0CCFB0800002008100020A5EDF5FE73
:1001F000044B054A9A60D3F8882042F47002C3F891
:100200008820704700ED00E0000000000023024A53
:100210001370024A13707047C2100020C3100020F0
:1002200038B503780546042B0C4650D008D8012B6E
:100230000AD0032B50D0182340F6031023700DE092
:10024000182B49D0432BF5E7264B42781978D9B9BA
:10025000012A04D0152340F60410237038BD1A700B
:10026000AB781A44FF2AF5D100228021E81C02F065
:1002700038F995F88320C0F30F239A4216D015233E
:1002800040F602102370E9E7174B1B78934204D124
:10029000062340F606102370E0E70133DBB29342F9
:1002A000DED0152340F605102370D7E795F884308B
:1002B000C0B2834204D0152340F601102370CDE76D
:1002C0006A78094B00201A7006232370C6E70623BC
:1002D00040F607100B70C1E7182340F60810237092
:1002E000BCE700BFC3100020C21000200149024833
:1002F00000F03AB8D42700008C10002010B592B05E
:1003000047221849684602F043FA01F022FF0A2208
:10031000C0F30363092B8CBF373330338DF81430AF
:10032000C0F30343B3FBF2F102FB113300F00F0003
:1003300030338DF81730B0FBF2F302FB130001F1FC
:100340003004303003F130018DF819108DF81A00A7
:100350000122472168468DF8164000F027FD002055
:1003600012B010BDE42700002DE9F04F0024ADF5D8
:10037000277D4FF49472064688465CA821468DF886
:10038000134002F012FA2146682206A802F00DFA84
:100390002146682220A802F008FA3C2700F0F4FB6E
:1003A00001244FF0FF35DFF82C93DFF82CA3DFF8A2
:1003B0002CB3062CFDD8DFE814F00B000F00200052
:1003C00043005D005301BF000424F2E70446F0E758
:1003D000FFF794FF0124ECE74FF47A7105A801F0D0
:1003E00073FF40B99DF81430313BDBB2022B8EBF56
:1003F0000446B44AD45C3C27DBE701221121B24811
:1004000000F0D4FC2C220021304602F0CEF920234B
:1004100020AA06A95CA800F06DFE0024FF2301219C
:1004200005207370748000F0CFFB00F00BFD18B155
:100430000121204600F07CFDFFF7E8FE0324B8E729
:10044000432001F0F9FD00214FF47A7000F0BCFB6D
:1004500000F0F8FC18B900F0DDFB0028F8D000F03F
:10046000F1FC0028B0D1013FA3D1182001F0E4FD38
:1004700000249EE7002185220DF1E90002F095F9A4
:10048000002140F6B83000F09FFB00F0DBFC78B3B1
:100490004FF47A730093012305AA19460DF1E90080
:1004A00000F0F4FC9DF8E930012B0DD140F6B83294
:1004B000842100920DF1EA0005AA00F0E7FC059BFB
:1004C0000546842B18D1C8B90DF113010DF1E900CF
:1004D000FFF7A6FE40F607139842054614D1B378FD
:1004E0000BB1F37813B918238DF8133006241DE0EF
:1004F00000F090FB0028C8D040F2047515208DF85C
:10050000130001F099FD54E780B99DF8E930012B03
:100510000CD180233146CDF800803BAA5CA800F0C6
:1005200023FE054610B118238DF813309DF81300F3
:10053000182808BF0624E4E70121002000F0F8FC99
:1005400001210A2000F040FB9DF813300122062B08
:1005500008D140F607139D4204D11B215B4800F0EF
:1005600025FC85E71A21504600F020FCA5F5106314
:10057000B3F5E06F4FF0010222D21121544800F090
:1005800015FC40F606139D4222DD9DF813309F2B8B
:100590004FEA13108CBF3730303000F03FFC9DF82D
:1005A000130000F00F0009288CBF3730303000F006
:1005B00035FC0D2000F032FC0A2000F02FFC57E73C
:1005C0001021584600F0F2FB40F606139D420BDC6A
:1005D000B5F5106FD9DDA5F60213042B2CD8DFE892
:1005E00003F02D25292F3100A5F58053013B092B60
:1005F000CBD8A5F58053013B092BC6D801A252F8F0
:1006000023F000BF590600008B0500008B05000099
:100610005D0600004D06000055060000590600006A
:1006200051060000490600005906000021238DF8FC
:100630001330AAE72223FAE72323F8E72423F6E777
:100640002523F4E72723F2E74123F0E74323EEE7EE
:100650004423ECE74523EAE74F23E8E75023E6E7A6
:10066000B3784BB3F3783BB3337813F004040AD078
:10067000B06A01F072FD00283FF4A8AE4FF40040CC
:1006800000F01CF9F4E69B0711D57368039301F0A1
:1006900060FD039B834204D94FF40040716A00F06F
:1006A000C9F801221321484600F080FB81E640F2A0
:1006B000012000F03FFAF4E740F2032000F03AFA9C
:1006C000D6E600BF2B280000862800006B2800001B
:1006D000972800002E280000512800004128000023
:1006E000F0B5421ED11C034685B019D86E460D4C9C
:1006F00004F11007354620686168083403C5BC4220
:100700002E46F7D10DF10F010F3311F8010912F840
:10071000014F844204D19A42F7D1012005B0F0BDC7
:100720000020FBE7A82800002DE9F04103680446FB
:1007300003F16043B3F5C03F4FF00000A0B029D8EB
:10074000826A636816699E4224D8B3F5801F21D857
:10075000656B06F14003AB4268D8B5F5801F65D8DC
:100760002846FFF7BDFF002860D0284601F0D5FCE1
:1007700080B16B6973B1022B0FD1AB69C4F1040175
:1007800019444FF0FF32204601F03AF8284BC31AC3
:100790005842584120B0BDE8F08140F20463284639
:1007A0000493FFF79DFF08B90020F3E7284601F006
:1007B000B4FC0028F8D00027D7F834804046FFF773
:1007C0008FFF0028F0D0503EB045EDD8284605A94F
:1007D00001F0AAFC0028E7D0BA6A059B12699A4288
:1007E000E2D89C42E0D8B3F5801FDDD806A801F01E
:1007F000B9FE059A2146121B06A801F0BDFE06A807
:1008000001F0BCFE059C01F089F8039001F09EF810
:1008100021460090039B04F1200206A801F004F891
:1008200004900498B0FA80F04009B3E70120B1E7E2
:10083000E320BBDE70B54FF0FF3290B005460C46AA
:1008400000F0DEFF1A4B98422ED11C22002101A895
:1008500001F0ABFF174B29466846043C009301F0BA
:10086000E2FE2146684601F0DEFE684601F0E4FE45
:1008700001F0F3FB0646B8B940F2022000F04EF951
:100880001C22314609A801F090FF0B4B294608A80D
:10089000089301F0C8FE08A8214601F0C4FE08A88C
:1008A00001F0CAFE01F0D9FB002010B070BD00BFFE
:1008B000E320BBDE010005430100064330B50446DA
:1008C00091B01C22002101A801F06FFF114B2146BD
:1008D0006846009301F0A7FE684601F0ADFE01F006
:1008E000BCFB054698B940F2022000F017F91C2223
:1008F000294609A801F059FF074B08A8214608938B
:1009000001F091FE08A801F097FE01F0A6FB00207F
:1009100011B030BD000002430000034310B58CB09D
:100920001C220446002105A801F03FFF0A4B019458
:10093000049301230293094B01A904A8039301F036
:1009400068FE04A801F078FE01F087FBB0FA80F0A1
:1009500040090CB010BD00BF000008430400002097
:1009600040B139B100230B60034B03600B6843F4C3
:1009700000530B60704700BF1424004013B501A85A
:1009800001F022FA9DF80530012B27D12B4A936DF7
:10099000DB0313D4536B23F4FF0323F4FE4343F42C
:1009A000BC1343F4A0635363136B23F4704343F409
:1009B00040431363136B43F4E06313639DF8043007
:1009C00063B94FF000531B681D4B1B681D4B1B6820
:1009D0001D4B1B681D4B1B681D4B1B681D4AD2F825
:1009E000803043F00303C2F8803001F0C9FB00F00F
:1009F0007FF801F01CFB01F01CFB18B14FF40170F3
:100A000000F098F8FFF772FC044601F014FB1CB1EB
:100A100040F203739C4203D140F2012000F08AF8B7
:100A2000A4F20574012C94BF40F203204FF401702E
:100A300000F080F8002002B010BD00BF00C00040F0
:100A4000004000200080002000C0002000000120A5
:100A5000004001200080004013B501244FF04023E6
:100A60008DF806408DF80740D3F894305B060BD51F
:100A700000F074F8A0F2022080B2072804D804FA2B
:100A800000F010F0C90F02D100F0B4FA20B1002339
:100A90008DF806308DF807304FF480435B680133E2
:100AA00008D14FF4027000F039F800238DF80630B9
:100AB0008DF807309DF8073063B14FF48040FFF7A1
:100AC00033FE8DF806009DF806301BB94FF4027016
:100AD00000F024F89DF806302BB14FF48040034B12
:100AE000986001F051FB02B010BD00BF00ED00E0C6
:100AF0004CF23C32014B5A80704700BF000000208E
:100B00004AF6C030044B5B8823F00F039BB21B1ADC
:100B100058425841704700BF00000020044A08B501
:100B20001080FFF7EDFF10B94FF20F03538008BD9F
:100B30000000002008B5FFF7F1FFBFF34F8F054914
:100B4000054BCA6802F4E0621343CB60BFF34F8FDA
:100B500000BFFDE700ED00E00400FA054FF20F01D1
:100B6000084B5A888A4201D1188870473AB91B88C5
:100B700040F20220012B18BF4FF4007070474FF471
:100B800000707047000000201FB500F0EFF94FF42F
:100B90007A23B0FBF3F00A4B10221860002168465C
:100BA00001F003FE01238DF8003040F2FF33694667
:100BB0000448ADF8023001F064FD05B05DF804FBB7
:100BC000B81000200080044030B50D4D0D4A2D684E
:100BD000536A15FB00F010FA83F09CB280B2A04279
:100BE0002CBF00240124084B1880084B1C7011B145
:100BF000536A8342FCD1012305494B61936130BDA7
:100C0000B810002000800440C0100020C410002054
:100C100000A00440094B0A4A5869127800F001000C
:100C20000AB108B9704738B9586A064B1B88984210
:100C300034BF00200120704701207047008004402D
:100C4000C4100020C01000202DE9F0410126DFF87B
:100C50002C81424BD8F80020414F02F13C019960B1
:100C600002F124037B627B6002F580535E6040F6F4
:100C7000AA630024536141F205033A4D3A4802F554
:100C800000519460D465D3601461D461D4648864E5
:100C9000C5F8AC45C5F8C445C5F8BC45C5F8B4456C
:100CA000C5F8B845D3609368936000F05FF92F4BA7
:100CB00005211A6F4FF4E113C2F380223244B0FBD6
:100CC000F2F202F5E1425201B2FBF3F2284B203A74
:100CD00003EAC202D8F800302046DA613346042223
:100CE00000F052FF334632460621204600F04CFF0A
:100CF0001423C5F8AC354FF4A0230422C5F8C4353D
:100D00004FF4C0231146C5F8BC350320334600F02C
:100D10003BFF0522D8F800304FF480215A614FF094
:100D2000F053144A56609360134B546294631464F6
:100D30005465196002311466D46517675960032140
:100D4000A3F50053C2F89040C2F88C4059630223C7
:100D5000966402F580521361BDE8F08150100020C6
:100D60001010002000C00340FFFF01000080004081
:100D7000F8FF7F00000004400040044060100020A5
:100D8000084B586B10F0020006D002229A6203F55D
:100D9000005301205A637047DB6A9B07FBD4022291
:100DA000014BF6E700000440002004407F2938B5DD
:100DB0000446154624D8FFF7E3FF20B32046134B23
:100DC000621890420DD1124B01391A8861F30E124C
:100DD0001A80104AC2F8A0300223936435B900206B
:100DE00038BD10F8014B03F8014BEAE7FFF7C8FFE5
:100DF0000028FBD0084B1A6893699B06FCD5EEE7E8
:100E000041F20310ECE741F20620E9E7C5120020A9
:100E1000501000200000044060100020014608B57A
:100E2000FFF7AEFF0028FBD0054B1B689A69500600
:100E3000FCD5D9639A699206FCD5002008BD00BF95
:100E4000601000200E4BD86E40F2011398420FD074
:100E500040F2022398420DD00A4BC01A0A4B1B687D
:100E600083420AD02ABFC3F50073C01AC018704766
:100E70000020F3E74FF48070F0E70020704700BFD8
:100E800000000440C5100020BC1000202DE9F843EC
:100E9000089F04460D461646F3B9FFF7D3FFA84254
:100EA00028BF284600214FF001084FF002091D4AD3
:100EB000DFF878E013681C4F04EB000C64451DD18B
:100EC00001B1136006B1306041F20423A84234BF7F
:100ED00018460020BDE8F8832FB1FFF755FE00212A
:100EE0003846FFF771FEFFF7ADFFA842D5D2002FBD
:100EF000F9D0FFF78FFE0028F5D0CEE71EF80310DB
:100F00000133B3F5007F04F8011B04D10023C7F8B7
:100F100010900121D2E7B3F5807F08BFC7F8108099
:100F2000F7E700BFBC10002000100440C5100020EF
:100F300010B10222094B9A6271B101220020074BC5
:100F400007499A624A6307491967074908609A6422
:100F5000022203F580531A6100207047000004400C
:100F60000020044010100020BC10002030B51A4BA7
:100F700087B001AA03F110051446186859680833B0
:100F800003C4AB422246F7D11B782370134B1B6F6F
:100F900003F00703032B1BD0114A9368C3F30443E8
:100FA000102B17D818336B4413F8143C0D480E4916
:100FB00043438B4203D19268C2F30162D340074A94
:100FC000106FC0F301300130B3FBF0F007B030BD5B
:100FD000064BF4E7064BF2E754290000008000407E
:100FE0000000014040420F0000093D0000F04902AE
:100FF000C0EA210113B5012304220221032000F0DD
:10100000C3FD00230093009B632B1ADD0222012302
:101010001146032000F0B8FD00230193019BB3F5B6
:10102000FA7F11DB0A4B0022D3F8A44002210123EE
:10103000032000F0A9FD6FEA940000F0010002B067
:1010400010BD009B0133DDE7019B0133E5E700BFE5
:1010500000C0034030B500220C24064B04FB02F113
:10106000CD58854201D1581830BD01320C2AF5D136
:101070000020F9E768290000002370B586B0CDE9AB
:10108000013308231546009304AA044601F047F9EA
:1010900041F20302904206464FF0080323D194F830
:1010A000432052B11A46E06C04A901F065FA04AA83
:1010B00008231146A06C01F044FA059A049B6A606B
:1010C00094F843202B6052B9084A934207D0084A4B
:1010D000934204D00822E06C04A901F04DFA6B6839
:1010E000236500236365304606B070BDF70A0AF732
:1010F000FC0404FC2DE9F04100254FF0FF370446C5
:101100008846164603F0200380F842301822FF215B
:10111000C0E91855A0F8405080F84350A0F844505A
:1011200080F84650C0F88870683001F03EFB882295
:101130002946C4E91286C4F88070C4F8847004F1AA
:10114000900001F032FB074BC4F82071C4E946352A
:1011500084F8245116B1304601F004FA0020BDE8AD
:10116000F08100BF000101012DE9F04FA7B09846C2
:10117000CDE91323002304460E46309D1593159A9E
:10118000424501D30020CBE094F84630132BF7D82A
:10119000DFE813F06000AE00A80048002F00160141
:1011A000D8012F00CB012F0080012F00CB01BC0202
:1011B000300314000C01620262022E034FF000099A
:1011C000636D0F2B00F292801023012716AACDE940
:1011D000003720464023CDF8089013A901F09FF86E
:1011E00041F203030A900A9A9A4200F0D1800A9BC6
:1011F0003CE04FF00109D4E91417B94276D9C91B74
:10120000DDE91472BF1A94F840200329174440F214
:101210009D81032F00F29D81204613A901F05EF805
:10122000002323E00127636D072B00F2D7800823FA
:1012300016AA009320464023CDE9017713A901F0B7
:101240006EF841F203030D900D9A9A4200F03A8134
:101250000D9B0BE016AA204613A9FFF70DFF41F2E4
:1012600003020790079B934207D0079B069341F226
:101270000303069A9A4282D051E0179A1699226582
:1012800000226265AD4A914240F02781022284F833
:101290004620EBE70823012016AACDE9003002978B
:1012A0004023204613A901F03AF841F203030890C5
:1012B000089A9A4201D0089BD8E7169B03F07F4317
:1012C000B3F1407F05D0132384F8463041F209037F
:1012D000CCE7179BD90706D594F8423043F00103B9
:1012E00084F842300027636D072BD3D9012321E115
:1012F000204616AA13A9FFF7BFFE41F20303099087
:10130000099F9F420FD0099F41F203030697069A57
:101310009A423FF434AF069B0BB10023F37006985A
:1013200027B0BDE8F08F1698FFF794FE28B9132375
:1013300041F2080784F84630E6E7437994F824211F
:101340009A4205D9132341F20E0784F84630DBE7B1
:1013500002687B498A4205D00289D20748BF01331F
:1013600084F8243194F84230D9070DD5028994F8D5
:101370004330920706D53BB1132341F2010784F8AD
:101380004630C1E7002BF7D0037984F84630BBE73D
:10139000D4F848A000F0F2FA80230221CDE900033E
:1013A00017AA3B46504601F0A9F809E7226D012330
:1013B000A265002284F84330E26584F84630DEE618
:1013C00000213C2217A816914FF0010901F0EDF918
:1013D000D4E91432934204D884F8469041F20303CE
:1013E00044E7009316AA40232046CDE9019913A9AA
:1013F00000F095FF41F203030B900B9A9A4201D043
:101400000B9B33E716AF06F108030DF1700C3A465B
:1014100003CA624518605960174603F10803F6D104
:1014200010681860337843F001033370D0E73378E5
:1014300043F004033370199BB36273785F0726D5BA
:10144000EB238DF8583017238DF85930A6238DF8EB
:101450005A305E2300208DF85B30236D6066C4F83F
:10146000843094F8453043F0020384F84530EF6847
:101470006FB104222B6816A9B847606E2B684A46E4
:10148000EF6818A90830B847636E103363660B2302
:1014900084F84630636D072BA0D801234FF008096C
:1014A000CDE9013318AA38232046CDF8009013A9BE
:1014B00000F035FF41F203030C900C9A9A42B6D02B
:1014C0000C9BD3E63378179A43F002033370169BD4
:1014D0007360236D083B73622AB1132384F846308E
:1014E00041F20103C2E6042384F8463094F8453003
:1014F000626643F0010384F8453094E6042316AA9B
:10150000009320464023CDE9017713A900F007FF9F
:1015100041F203030E900E9A9A4201D00E9BA5E66B
:10152000236D042B02D9169B23660127636D032BC1
:10153000E4D9092384F8463050E700BFEB17A6032F
:10154000F90707F900236366072336E78F42FFF4A4
:1015500063AE402928BF40218F4228BF0F46032F8A
:1015600088BF27F00307402316AA2046CDE901993A
:10157000009713A900F0D3FE41F203030F900F9AD6
:101580009A4201D00F9B71E694F846A0BAF1070F7A
:1015900004D1D5F808B0BBF1000F1BD1042FC7F15F
:1015A000040B88BF4FF0000B16AB5A46FF21D81929
:1015B00001F0FBF8BAF1090FBB4414D12B465A468F
:1015C000204616A900F02CFF0F900F9B002B3FF434
:1015D00012AED7E73A462B68606E16A9D847626EFE
:1015E0003A44626607E6BAF1040F21D1737898078E
:1015F0007FF501AEEB68002B3FF4FDAD626E042A6F
:101600000BD80BEB0203062B07D917AB9B1A1A68F2
:10161000C4F884204FF0FF321A605A462B68606E7F
:10162000EF6816A9B847626E0BEB02076766E2E542
:10163000BAF10B0F7FF4DFAD737859077FF5DBAD9F
:10164000D5F80CA0BAF1000F3FF4D5AD5A462B687F
:10165000606E16A9D047E6E700218A6A496B1269D5
:10166000503A91423FF63CAF112B0FD194F818310C
:10167000002B7FF43BAE41F206031093109A9A427E
:1016800002D1132384F84630109BEFE594F84430E0
:10169000002B7FF42BAECDE90133402316AA009333
:1016A000204613A900F03BFE41F203031090109A6C
:1016B0009A42E9D1E06C00F061FF94F81831A3B1CF
:1016C00004F1B403E06C00931EAA04F1940316A97C
:1016D00000F0AAF81090109B9BB10023F370132325
:1016E00084F8463041F20603C0E5E76C00F016F9D5
:1016F000059000F02BF9059B00901EAA384616A90C
:10170000E6E70123F37084F84430EFE500234FF05F
:101710000408CDE9013316AA40232046CDF8008005
:1017200013A900F0FCFD41F203031190119A9A42B3
:1017300002D0119B0693F2E5D4F888202F4B9A42F1
:1017400005D0132384F8463041F20503F2E7012364
:10175000F37094F84530DA0707D5EF682FB14246A9
:1017600040462B6804F18401B84794F845309B0744
:1017700007D5EF682FB104222B68104604F18401CD
:10178000B847236E6BB36F685FB34FF0FF3304F15C
:101790008001042212A81293059100F0E9FF28B1FC
:1017A000042248F204002B680599B84704F168093F
:1017B0000422494612A800F0DBFF90B100239B6A87
:1017C0001422D3F8108004F16C0108F10800D5E967
:1017D0000037B847D5E900370422494608EB020034
:1017E000B8470123B3700E2384F846300023A1E7E5
:1017F0000023F37041F2070092E500BFE320BBDE57
:1018000030B501240025074B01445C609D601A61DE
:10181000DC60884201D1586A30BD10F8012B1A6291
:10182000F7E700BF008008402DE9F04399B00E466D
:1018300015461C460746DDF88090002861D0002937
:101840005FD0002A5DD0002B58D02F4B2F4AB9F122
:10185000000F14BF984690461C22002111A800F0EA
:10186000A4FF2B4B414610A8109300F0DCFE202172
:1018700010A800F0D8FE0122264B01940292039397
:10188000CDF810900592069354B1B9F1000F07D02E
:1018900001A910A800F0B3FE04A910A800F0AFFE43
:1018A000079701271B4C07A910A80897099400F077
:1018B000A6FE0AA910A80A960B970C940D950E97F0
:1018C0000F9400F09CFE0DA910A800F098FE10A83F
:1018D00000F0B2FE104B00934FF098435A6CD202C6
:1018E000FCD55B6D40F2046003F470230093009B11
:1018F000002B08BF002019B0BDE8F083DFF80C8092
:10190000AAE740F20160F6E71F2400801F24FC8450
:1019100000000106200000207856341200B591B076
:101920000023402269464FF4807000F027FAB0F59A
:10193000A02F07D0B0F5302F034818BF002011B0FA
:101940005DF804FB0048FAE74CE30F0000B591B0E6
:101950000023402269464FF4807000F00FFAB0F582
:10196000A02F07D0B0F5302F034818BF002011B0CA
:101970005DF804FB0048FAE76CE30F00004870478D
:1019800086E20F002DE9F34799460A9B0C46196839
:1019900005463F29164642D85A68002A41D0224AB5
:1019A000002E14BFB046904601F03F07091928BF2A
:1019B0005A68196024BF01325A60AFB1C7F1400ABA
:1019C000A24521D82946524609EB070000F0E0FE67
:1019D0000123414600934A463346002000F086F832
:1019E000B046403C55443C443F2C0CD9A3092A4600
:1019F000009341463346002000F078F824F03F037E
:101A00001D4404F03F0400272CB12246294609EB6F
:101A1000070000F0BDFE002002B0BDE8F087904650
:101A2000C2E7DFF80480BFE7F829000030B40546BC
:101A3000084611461A46DDE9023425B931B102944F
:101A400030BCFFF79FBF024830BC70470846FBE739
:101A500080AFFFFF2DE9F0411746146886B01E469F
:101A6000E3008DF80F30630952688DF80E30630B78
:101A70008DF80D30630D8DF80C30D30003EB5473EB
:101A80008DF80B3004F03F045309372C8DF80A30E1
:101A90004FEA52334FEA525205468DF808208846E5
:101AA00094BFC4F13802C4F17802CDE900178DF873
:101AB00009300D4903460020FFF7B8FF08214346CF
:101AC0002A4600970DEB0100FFF75CFF284605F161
:101AD000200350F8042B984246F8042BF9D100203B
:101AE00006B0BDE8F08100BF182A0000F0B593B041
:101AF0000E4617460446202200210AA81D4600F083
:101B000054FE01204FF00052019702900392049678
:101B100005900692079508900992002C2FD1189CE9
:101B2000184BA40121460AA80A9300F07CFD0399F2
:101B30000AA80C430394069B04A943F020030693D0
:101B4000099B43F02003099300F059FD01A90AA85D
:101B500000F055FD07A90AA800F05BFD0AA800F0F7
:101B60006BFD4FF098435A6CD202FCD55B6D13F4B9
:101B7000702F0CBF00206FF06F0013B0F0BD6FF03E
:101B80007100FAE700040103F8B504460D461F464C
:101B900016464AB101238B403021194A01FB00222D
:101BA000FFB141F21001535004EB4403072D4FF0F5
:101BB0000F014FEA031317D8A80006FA00F281407C
:101BC0001048184400F001FD56B9012130230C489B
:101BD00001FA05F503FB040077B141F21003C5508B
:101BE000F8BD42F21001DEE7A5F10800800006FA18
:101BF00000F281400448E4E742F21003EFE700BF3F
:101C000000C0034004C003400CC00340F0B5114ABB
:101C1000114C124E00F00105E3695F0713D40DB9B2
:101C2000334213D103EA00078F4207D10B4A1A400F
:101C3000002A14BF6FF001000020F0BD013AEBD183
:101C40006FF00200F9E74FF0FF30F6E76FF00100A8
:101C5000F3E700BF809698000000034002000100F7
:101C600038B541F6713301220C4C0021E569E3637C
:101C70000B4B05F48035DA6002236061212023617B
:101C8000FFF7C4FF10B92120FFF7C0FF0122054B69
:101C9000DA600DB10023E36338BD00BF00000340EC
:101CA00000100340002003402DE9F04F06464FF49A
:101CB000502501202A4CDFF8B4C041F67137CCF82A
:101CC000040044F8265030250024DFF8A4E0DFF8B3
:101CD000A49005FB06E5EC652C662C67214CDFF82B
:101CE00098A0D4F81C80E763E76800FA06F607437B
:101CF000E7604BB9E26818F4803F22F00102E2602D
:101D000000D0E363184628E001F5005000EA09001E
:101D1000401A984228BF18466161D4F81CB0870861
:101D20001BF0040F17D1013F3F0147F060576F666A
:101D3000AA66C5F86CA0CCF82460DEF834703E4288
:101D4000FBD0094F01447E630427CCF8286002448D
:101D500027611B1ACDE74FF0FF30BDE8F08F00BFC1
:101D600000400440000003400020044000100440F4
:101D70000000044000E0FFFF18000340F0B50746F4
:101D80000F4D10488DB0002B08BF05460E46144677
:101D900000211C2205A800F008FD012304A801A9C8
:101DA0003D4344F00054019604950293039400F0DF
:101DB00030FC00F041FC00F019FC0DB0F0BD00BF9C
:101DC00001000AFF010008FF054B5B69C3F38512A0
:101DD000827003F03F021B0B42700370704700BF1C
:101DE00000C007402DE9F04104681E4624F040037E
:101DF000802B05468846174692B002D0B4F5807F06
:101E000043D11C2200210BA800F0CFFC224A234B17
:101E10000121B8F1010F18BF13460A932B1D01933E
:101E2000E4081F4B44F0005402910AA8039404975D
:101E3000059106930796089101A9099300F0DFFB2D
:101E400004A90AA800F0DBFB07A90AA800F0E1FB3F
:101E500029680AA8C90800F0E6FB10210AA800F0CA
:101E6000E2FB00F062FC98B90AA800F0E5FB4FF035
:101E700098435A6CD202FCD55C6D00F058FC04F417
:101E80007024204612B0BDE8F0816FF07100F9E7D0
:101E90004FF0FF30F6E700BF00010104000100042D
:101EA000100000202DE9F04F9BB007468946984668
:101EB0001646DDF894B072B115683B6823F0400215
:101EC000802A03D0B3F5807F40F0A6800BEB090396
:101ED000002400930DE01546EFE795B1249A1BF816
:101EE0000430525D01355340269A05F00F05135515
:101EF00001344C45F1D3002E00F091800020356074
:101F000067E0A9EB040ABAF10F0F57D91C22294642
:101F100013A800F04AFC434B3A6812933B1D03930D
:101F20000123D20842F00052049305923E4A2699BA
:101F3000CDF818802AF00F0A07930892CDF8248074
:101F40000A930B920BEB04020C9221444AF00052CC
:101F50000D9312A80E920F9103A91093119200F005
:101F60004EFB06A912A800F04AFB0CA912A800F02B
:101F700046FB0FA912A800F04CFB09A912A800F01B
:101F800048FB396812A8C90800F04DFB514612A859
:101F900000F049FB00F0C9FBC8B912A800F04CFBE7
:101FA0004FF098435A6CD202FCD55B6D544403F455
:101FB0007023019300F0BBFB019B5BBB269B0BEBEB
:101FC000040A1C44009B9A4506D14C4691E74FF009
:101FD000FF301BB0BDE8F08F8DB942460121384675
:101FE000249BFFF7FFFE0028F3D108F1100212F83E
:101FF000013D0133DBB213700BB99045F7D1249A40
:102000001AF8013B525D0135534004F8013B05F0DD
:102010000F05D7E71846DCE76FF01F00D9E7304619
:10202000D7E700BF0303000410000020FEE700F024
:1020300012B8FEF763B9704710B50446FEF7EEFE1E
:10204000182C07D12046FEF7E9FE2046BDE81040D7
:10205000FEF7E4BE10BDFEF7F7BD4FF098435A6C93
:10206000D202FCD5586D00F470207047C0F30C0309
:102070002DE9F04105460F4616460BB900F006F96A
:1020800005F5005424F4FF5424F01F0405EB060862
:10209000A04507D8324639462846BDE8F04102231C
:1020A00000F0FBB8204600F0F1F804F50054EFE72B
:1020B00070B40025AD6A03462E69864206D86C6965
:1020C00013449C4202D370BCFFF7D0BF70BC704772
:1020D0001FB510F5004F00F50043144603931AD2C4
:1020E000039BB3F57E2F16D2039BC3F57E23934249
:1020F00011D348B9836A5A69B2F5004F04D91869F7
:10210000019100F0C3F801992246039804B0BDE89C
:102110001040FFF7ABBF04B010BD036913F0FE0F12
:102120000CBF01200020704738B504460D46FEF76D
:10213000D7FA48B16369012B09D12046FFF7EDFFBB
:1021400008B1A3692B6038BD01202C60FBE700209B
:10215000F9E700239B6A986870474FF0FF3313B587
:10216000044601A80193FEF7D9FB20B1019BA342CD
:102170002CBF0020012002B010BD4FF4004070477A
:1021800000207047002070474FF4804318460168D4
:1021900081F3088881F3098840688746FEE74FF499
:1021A0000170FEF7C7BCB1F50D7F10B504460FD323
:1021B0004FF40D72002100F0F8FA04F5DE7204F518
:1021C000AA7104F12C000023BDE81040FEF792BF75
:1021D00040F2052010BD13B50446009101462C3095
:1021E000FEF7C2FFC4F8300218B141F2070398426B
:1021F00009D1A3784BB140F2032040F20223E278E8
:10220000002A08BF184602B010BD40F20120FAE7CC
:102210002DE9F04387B00DF1080904460E46174634
:102220000021102248461D46DDF8388000F0BDFA36
:1022300000211C22C8F80010284600F0B6FA3246E9
:102240003B462146CDF8009004F12C00FEF78CFFB0
:1022500023789A0744BF6268C8F80020DB0709D5D5
:1022600004F1080304F1240253F8041B934245F8D7
:10227000041BF9D1237840F20640002B18BF002040
:1022800007B0BDE8F0834FF40D70704708B5FFF755
:10229000E7FCB0FA80F0400908BD072B10B50446F2
:1022A00018460FD862B142EA04039B070AD11346CD
:1022B0000A462146FFF7F8FCB0FA80F0400910BD4D
:1022C0000120FCE70020FAE7012307B50022009176
:1022D0001946FEF7DBFD03B05DF804FB70B5D1E9EC
:1022E0000152AA4205D290F840302B449B1A402B51
:1022F00010D9002012E00A6890F84040D65C90F8AF
:1023000041200133224402F03F02013486548B60A5
:1023100080F840408B689D42EDD8012070BD2DE9CA
:10232000F84390F840C017469E46D1E90123089D26
:10233000D21A6244954204460E469DF824909DF8B8
:1023400028800AD9FFF7CAFF002867D1132341F27A
:10235000020084F84630BDE8F883754555D800235F
:1023600094F840200AB19D4235D1D6E9012191422D
:1023700001D29D4241D89D424DD129463846D4F8DC
:102380008820FFF73DFAC4F88800B9F1000F04D0A7
:102390002A463946E06C00F0EFF8B8F1000F08D09B
:1023A00094F843308BB12B463A463946A06C00F086
:1023B000C8F894F8433043B1E36DA26D2B449342C7
:1023C000E36524BF002384F84330636D41F20300CA
:1023D0002B446365BFE794F84120A25CFA5494F85B
:1023E00041200133013202F03F0284F8412094F889
:1023F0004020013A84F84020B2E73268525CFA5437
:10240000B26801330132B260AFE741F20100132339
:1024100084F846309FE741F20200F8E700209AE78F
:102420002DE9F743044658680E461746984600289B
:1024300042D011F0030342D19B6A206E1B6902EB6C
:10244000000C1D1D65451CD81C33984219D28542CD
:10245000294638BF01469C4594BFC1EB0C02C1EB35
:102460000302081AC5F1680506EB00096818204444
:102470004946019200F08CF9FF214846019A00F08C
:1024800094F948F20403226E9A420BD848F20701ED
:10249000B818884206D99B1AF258C4F880204FF029
:1024A000FF32F2503A46D8E90035206E3146A8474F
:1024B0000020226E3A44226603B0BDE8F08341F268
:1024C0000200F9E749BA89B24840C0F30313584003
:1024D00003B283EA0033580100F4FF509BB2584026
:1024E000704738B5044645181046AC4200D138BD97
:1024F000014614F8010BFFF7E5FFF6E7F7B50446D0
:10250000203016461D460F46019000F012F9DDE915
:102510000812019800F011F9002384F858706364E0
:102520003368C4F859307368C4F85D30B368C4F8D0
:1025300061302B0C6DBA84F86530A4F8665003B096
:10254000F0BD1FB50C46194600F14803CDE9014224
:10255000009300F1440200F158032030FFF7A2FC81
:1025600004B010BD10B5044600F00BF82046BDE8DD
:102570001040002100F009B800F00CB8014600F04E
:1025800016B86822002100F010B90023C0E900331A
:102590001846704707B500F128030190009300F139
:1025A00008030020FFF742FA03B05DF804FB02467F
:1025B0000B4600F128010830FFF74CBAEFF310800A
:1025C00072B6704700B962B6704770B505461446DA
:1025D0000E46FFF7F3FF296881EA040202EA0604C7
:1025E0004C402C60BDE87040FFF7ECBF4FF09843C3
:1025F0005A6CD202FCD5586D00F4702070474368C5
:1026000013B9416070475B685A68012AFBD1596071
:102610007047836813B9816070475B685A68012A04
:10262000FBD159607047C369032B9FBF00EB830246
:102630000133D160C3617047C369042B15D84FF0D3
:102640009842116CC902FCD504339B0013650168E4
:10265000103B116041680C30116050F8041C0344B9
:1026600011604FF09842984200D1704750F8041B17
:102670001160F8E7036BDA0702D503695B06F9D44A
:10268000704710B5FFF7F6FF012200F500531A63FB
:102690000B79044648881B0243EA8043487A034387
:1026A0004878002814BF402000200343887A00287F
:1026B00014BF802000200343C87A002814BF2020C4
:1026C00000200343087B002814BF10200020034390
:1026D000487B002814BF082000200343887B002883
:1026E00014BF4FF40060002003438879002814BF12
:1026F0004FF4803000200343636004F580531A6375
:102700000A780AB90223E36000236362C8790B7A6E
:10271000497943EA8003002914BF102100210B43AB
:10272000A3600AB10123E36010BD002070470020C0
:1027300070472422002100F038B870B515460E46C7
:1027400024220021044600F030F825F04003802BBD
:1027500002D0B5F5807F08D12046314640F8045BB1
:10276000EA0800F015F8002070BD6FF01F00FBE7CD
:102770000139024410B5904201D1002005E00378F0
:1027800011F8014FA34201D0181B10BD0130F2E730
:102790000A44431E914200D1704710B511F8014B15
:1027A000914203F8014FF9D110BD02440346934210
:1027B00000D1704703F8011BF9E70000F8B500BF2E
:1027C000F8BC08BC9E467047F8B500BFF8BC08BC12
:1027D0009E46704700000000B1200000000000008D
:1027E000D12000000D0A4765636B6F20426F6F7444
:1027F0006C6F616465722076582E59592E5A5A0DA5
:102800000A312E2075706C6F61642067626C0D0A4E
:10281000322E2072756E0D0A332E2065626C20698F
:102820006E666F0D0A424C203E20000205000D0A24
:102830004661696C656420746F20626F6F740D0A65
:10284000000D0A66696C65206572726F72203078BF
:10285000000D0A53657269616C2075706C6F61645C
:102860002061626F727465640D0A000D0A5365720F
:1028700069616C2075706C6F616420636F6D706C42
:102880006574650D0A000D0A626567696E207570D2
:102890006C6F61640D0A000D0A626C6F636B2065DA
:1028A00072726F7220307800B814B6F1E0CFF3ADD9
:1028B000B7DD25C9FA79B7130000000007B0CD5E77
:1028C0000200000002000302C82A000000400000CD
:1028D00000001000F004100081210000852100009C
:1028E00029070000A7210000D721000000000000F8
:1028F0001122000087220000000000006109000092
:102900007B21000013B779FAC925DDB7ADF3CFE01D
:10291000F1B614B80102000000000000C42A000053
:102920004000000002000302000000000000000060
:102930000000000000000000000000000000000097
:102940000000000000000000000000000000000087
:10295000000000000400000700000D1013001A2002
:102960002630384050000000EB17A603020100009B
:1029700003000000FA0606FA0F040000030000003E
:10298000F40A0AF40505000001000000EB17A65E3A
:102990000A06000001000000F50909F50307000020
:1029A00001000000F60808F606080000000000001C
:1029B000FE0101FE0808000000000000FD0303FD09
:1029C0000C08000000000000F90707F910090000DA
:1029D00002000000F30B0BF3110A000003000000DB
:1029E000F70A0AF7120B000003000000FC0404FCC5
:1029F0000D0C0000030000006A09E667BB67AE85A6
:102A00003C6EF372A54FF53A510E527F9B05688CD0
:102A10001F83D9AB5BE0CD198000000000000000EF
:102A200000000000000000000000000000000000A6
:102A30000000000000000000000000000000000096
:102A40000000000000000000000000000000000086
:082A500000000000000000007E
:0C2A5800642A000010100020180000008C
:102A6400F00F100300000000C51000201300000048
:102A74000900000000010000020200001300000031
:102A8400F00F100300000000C51100201300000027
:102A9400090000000002000001010000D3FFFFFF55
:102AA400F07F1030C512002000000000000000007C
:102AB400008005402100000059010000350100009C
:04000003000001C137
:00000001FF
