:1040000000100020654D0000E58B0000E98B0000EA
:1040100095080300ED8B0000F58B00009508030068
:104020009508030095080300950803009508030010
:10403000F98B0000C88F0300950803009508030062
:104040009508030095080300950803003552000009
:1040500095080300950803009508030095080300E0
:1040600095080300950803005DA90000054D0000B8
:10407000AD050300950803009508030095080300AB
:1040800095080300950803009508030095080300B0
:1040900095080300015800009508030095080300E7
:1040A0009508030095080300950803009508030090
:1040B00095080300CF46030095080300B54D0100A5
:1040C000D5460300D146030075450100E1460300D3
:1040D000D9460300794D0100DD460300AD330100F0
:1040E000F54D01009508030095080300058D0000BB
:1040F0009508030095080300950803009508030040
:10410000950803009508030095080300950803002F
:10411000950803009508030095080300950803001F
:10412000950803009508030095080300950803000F
:1041300095080300000000002DE9F04F2DED088BDD
:104140008DB09DED1E7B09EE903ADDE920430A9388
:10415000229B09EE100A8A460792069351EC170B30
:1041600053EC172BB0EE478AF0EE678A2BF02EFF48
:1041700080B14FF0FF3251EC180BCF4B2BF04EFFBC
:1041800040B94FF0FF326FF4801351EC180B2BF055
:1041900027FF98B1069B514622930A9B19EE100AFD
:1041A000CDE9204319EE903A079A8DED1E8B0DB0A4
:1041B000BDEC088BBDE8F04F00F0A2B9002200234F
:1041C00051EC180B2BF00CFF002800F0448118EE86
:1041D000903A18EE108A03F10049069BC9F30A5081
:1041E00013F48063A0F2FF3008BF06240B932BF07A
:1041F0001BFCA1A3D3E900232BF080FCA0A3D3E9EF
:1042000000232BF0C5FAC9F313050F4645F07F5183
:1042100006460022A94B404641F440112BF0B6FA65
:1042200099A3D3E900232BF069FC02460B463046E4
:1042300039462BF0ADFA2BF0FBFE83462BF0F4FB56
:1042400093A3D3E9002306460F462BF057FC002228
:104250009B4B2BF09DFA2BF0EBFE8FA3D3E90023B1
:104260000546394630462BF049FC064628460F469F
:104270002BF0DAFB8AA3D3E900232BF03FFC0246A4
:104280000B46304639462BF081FA02460B4606466D
:104290000F462BF033FC324641EC1A0B3B463046BE
:1042A00039462BF075FA002241EC1B0B854B51EC83
:1042B0001A0B2BF04DFD0022834B2BF069FA0246BE
:1042C0000B4651EC1A0B2BF043FD00227F4B2BF0D9
:1042D0005FFA02460B4651EC1A0B2BF039FD3246C1
:1042E00041EC1A0B3B4600204FF080412BF04EFA78
:1042F00002460B4651EC1A0B2BF04AFA02460B46CB
:1043000051EC1B0B2BF024FD05F2FF350022704B06
:104310002BF03EFA00222B052BF0F0FB42464B46D9
:1043200006460F462BF07AFE002840F09780CDE934
:1043300008670BF16303C72B069B34BF04250525D3
:10434000190521D558A3D3E90023404649462BF04F
:104350005BFE002800F0BE8055A3D3E90023404651
:1043600049462BF03DFE002800F0B48000255C4556
:10437000CCBFA4EB0B000024AB46069BC8BF00F1EA
:10438000FF3443F4806306930A9B9D4238BF5E1B53
:10439000069B28BF002613F0020702D0002D18BF8D
:1043A0000026BBF1000F07D0DDE90823404649464F
:1043B0002BF0CEFC804689460022002351EC180BDE
:1043C0002BF00EFE10B109F100439946069B5146B1
:1043D00023F40063CDE9036319EE100A19EE903A55
:1043E000CDE90089079A029400F08AF875B3069B1C
:1043F000024613F0200F00F1010619EE903A14BFA7
:1044000045206520514619EE104AA0470523002299
:1044100005930A238BEAEB70CDE90232A0EBEB7037
:104420004FEADB73013D0193009019EE903A32465A
:10443000514619EE100A04952EF049FF37B1079B3B
:10444000C51A079B58190A9BAB424CD80DB0BDEC5E
:10445000088BBDE8F08F59EC188BBEE60022304681
:104460003946194B2BF074FC0BF1FF3BCDE90801E9
:104470005FE700BFAFF30080FB799F501344D33F49
:10448000B3C8608B288AC63F61436F63A787D23F5A
:1044900071A379094F930A401655B5BBB16B024021
:1044A000EF39FAFE422EE63F2D431CEBE2361A3F6F
:1044B0000000000080842E41FFFFEF7F0000F83FE6
:1044C0000000E03F00002C400000244000001840A5
:1044D0000000F03F002C3FF457AF0B9B002B3FF444
:1044E00053AF013C50E7024619EE903A5146202066
:1044F00019EE104AA0470135A3E700BF00000000F5
:104500002DE9F04F2DED088B8FB0DDE920AB08EEE3
:10451000100A0F4608EE902A09EE103ADDE9225300
:104520005246049350465B465946249E2BF04EFD5E
:10453000A0B9049B2396229303232193B84B209385
:1045400018EE902A19EE103A394618EE100A0FB0FC
:10455000BDEC088BBDE8F04F2EF0F1BD4FF0FF32FF
:104560006FF48013504659462BF03AFD30B1049B4E
:104570002396229304232193AA4BE0E74FF0FF32C6
:1045800050465946A84B2BF049FD70B1A74A06F09A
:104590000403002B08BF0322A54B1CBF13460422B3
:1045A00004992396CDE92121C9E7504698A3D3E980
:1045B000002359462BF032FD38B997A3D3E90023E5
:1045C000504659462BF00CFD98B1049B18EE902AEA
:1045D000CDE92253394619EE103A18EE100ACDE90A
:1045E00020AB24960FB0BDEC088BBDE8F04FFFF771
:1045F000A3BD00220023504659462BF0F1FC0028B1
:1046000000F081805B465246002000212BF0BEF86E
:10461000012382468B46059316F4806F08BF06255A
:104620003021A94606ABA5F12002B9F1090FA5EB8F
:10463000090406D909F1FF394A4503F8011BF4D1F1
:104640002024594650462BF0F3FC7A4B054603EBE9
:10465000C90393ED007BB0EE47AAF0EE67AA2BF0FA
:10466000E3F902460B46504659462BF08FF853ECBF
:104670001A2B2BF043FA02460B4643EC1B2B2BF074
:10468000FFFC80462BF0C0F902460B4651EC1B0B99
:104690002BF07CF802460B4643EC1B2B0022664BAA
:1046A0002BF0BCFC88B308F1010840462BF0ACF9B4
:1046B00002460B4651EC1A0B2BF09CFC10B14FF04C
:1046C00000080135B9F1000F51D128462BF0ACF9A3
:1046D00002460B46504659462BF058F80022564BDE
:1046E000804689462BF07CFC30B10022404649468A
:1046F000514B2BF093FC10B1E80700D5013506AB08
:104700000A2223445AE0059086E7002251EC1B0B55
:10471000494B2BF065FC0028D4D1B8F1000F02D032
:1047200018F0010FCED008F10108CBE7B8FBF1F08B
:1047300001FB1082B8F1090F02F1300209F1FF39D3
:1047400004F1010403F8012B28D83021A14406AA62
:10475000202C11D04C4504F1010321D104F1380281
:104760000DEB02042E2204F8202C1C46C7E70A2178
:1047700006AB2344202CD9D106F00303012B06AB52
:1047800039D1049A002A36D0059A12B916F00C0FC6
:1047900002D0049A013A0492302214E08046E9E7FC
:1047A000A1541C46D4E795FBF2F102FB11553035BC
:1047B00003F8015B01340D460029DDD0202CF2D135
:1047C000DAE71A5501340499A14214D9202CF8D102
:1047D000049A0093CDE9014219EE103A18EE902A9E
:1047E000394618EE100A03962EF0A9FC0FB0BDEC66
:1047F000088BBDE8F08F202CEAD0059AF2B12D216C
:1048000004F138026A4402F8201C0134E0E700BFDA
:104810000000000065CDCD410000000065CDCDC198
:104820008FA6030093A60300FFFFEF7F8AA6030075
:1048300086A6030098A603000000E03F710704D598
:1048400004F138022B216A44DDE73207C0D504F1B8
:10485000380220216A44D6E770B58EB02C220021A0
:1048600003A834F06DFB64234FF00232012108935A
:104870008DF81010CDE905230B238DF83430504B03
:104880001B88D80700F1958008464E4C17F0C8FBEE
:104890004D4B0A224D494E481A704FF42873ADF81B
:1048A000123010F021FB206020B940F2312149483C
:1048B00004F096F8052120682FF095FA20B14FF406
:1048C0000F71444804F08CF820680C2500F02CFA95
:1048D000414B206819682FF0FEFA18F067FA684318
:1048E000099018F063FA68430DEB05010790206802
:1048F0000AF0A0FE20B140F25121364804F070F8D1
:104900000022364920682FF079FB20B140F2532174
:10491000304804F065F8324E40F20353314D96F9B9
:1049200000002B8005237F28AB7001D117F0D8FC45
:104930003378EB7018F03AFA00EB80008000A88022
:1049400018F034FA0023C0004FF0FF31E8804FF038
:10495000FF30AB6018A3D3E9002317F01FFD2249F5
:1049600020682FF04EFF02A920682FF01CFB20B119
:1049700040F28621174804F033F8042220680DEB3A
:1049800002012FF095FA042804D040F28921114841
:1049900004F026F801A9012031F038F804F066F996
:1049A000012018F08DFC2CF058F918F0C1FC17F01C
:1049B000BDFB0EB070BD00BF0A0020FF4203000027
:1049C000A2630020505C0020176900204DC0010048
:1049D00080120020CBC90300281100201E6900208E
:1049E0009E1600203C5C0020EDC1010010B5054C76
:1049F000237833B9044B13B1044800E000BF01230E
:104A0000237010BD382A002000000000ECCC030009
:104A100008B5034B1BB10349034800E000BF08BDC4
:104A2000000000003C2A0020ECCC0300A3F5803AF3
:104A3000704700BF174B002B08BF134B9D46FFF775
:104A4000F5FF00218B460F461348144A121A34F022
:104A500077FA0E4B002B00D098470D4B002B00D05F
:104A600098470020002104000D000D48002802D0C6
:104A70000C4800E000BF2BF0C7FC200029002BF001
:104A80004CFD2BF0ADFC00BF000008000000000052
:104A90000000000000100020A824002090690020E1
:104AA000000000000000000010B51E4C2BF0B6FF07
:104AB000236F23F0070343F0020323672BF0B5FFB6
:104AC000D4F82031002023F0070343F00103C4F899
:104AD0002031D4F8403123F0030343F00203C4F83B
:104AE0004031D4F8603123F0030343F00203C4F8EB
:104AF0006031D4F8403223F0030343F00203C4F8DA
:104B00004032D4F8003223F0070343F00203C4F824
:104B10000032D4F8083223F0070343F00203C4F84C
:104B2000083210BD0080005007B501A801F0F2FD69
:104B30009DF80530012B27D1244A936DDB0313D454
:104B4000536B23F4FF0323F4FE4343F4BC1343F4F9
:104B5000A0635363136B23F4704343F44043136324
:104B6000136B43F4E06313639DF8043063B94FF0B3
:104B700000531B68164B1B68164B1B68164B1B68B3
:104B8000164B1B68164B1B68164AD2F8803043F050
:104B90000303C2F8803002F0AFFE2BF03BFE02F0C0
:104BA00095FE02F051FE02F057FEFFF77DFF02F086
:104BB00039FE2BF02DFE00F005FB03F0B7FB00F0F3
:104BC00069FE03B05DF804EB04F0F6BF00C00050CE
:104BD000004000200080002000C0002000000120D4
:104BE000004001200080005030B5204D95B00DAC44
:104BF0000FCD0FC495E80700032384E807000124C4
:104C00008DF84D301A4A1B4B0021CDE903231A4B76
:104C1000102209A8CDE9053434F092F94FF480212F
:104C2000164B0DAACDE907130B238DF824300C2366
:104C30008DF82530124B07A90A9320230B93114BB3
:104C40001148009303AB8DF8314003F0D3F80446CC
:104C50009DF832304FF4E130002B0CBF03210021CE
:104C60002BF009FE204615B030BD00BFAC8F03000D
:104C70000080055021000500060004022480055034
:104C800046640020542A0020AC2A0020831E012BF9
:104C900010B512D8012910D8114B04221B69052127
:104CA0000020C3F3401301F0A5FB0E4B1B681868EE
:104CB000A8B1BDE81040436A18478B1E012B0CD8E1
:104CC00001280CD8BDE810400022054B05211B69C6
:104CD0001046C3F3401301F08DBB0129E5D910BD87
:104CE00000C00350BC10002008B50449044805F07A
:104CF0000DF8BDE80840FFF777BF00BFA410002003
:104D0000A42A002001482CF0B8BB00BFAC2A002028
:104D1000014B1A6A18681047AC2A0020014B18781A
:104D2000704700BF6664002008B50AF0B9FC002295
:104D3000014B1A7008BD00BF6664002007B508204B
:104D40002BF0FCFD02238DF80030054B68460193E3
:104D50002BF061FD082003B05DF804EB2BF0FABDE9
:104D6000006A181008B500F02DF8124B12498B425A
:104D700012D30020114B12498B4218D3FFF75AFE71
:104D8000186850F82240586840F82240013298686C
:104D90008242F5D30C33EAE70022F8E71C6844F8B6
:104DA000220001325C68A242F8D30833E4E7002213
:104DB000F8E700BFF4CC030000CD030000CD0300F2
:104DC00000CD03006FF00100104B114A10B59A603E
:104DD000D3F888200F4942F47002C3F8882001F507
:104DE0000052106641F2FF7050660220C3F8D000F6
:104DF000BFF34F8FBFF36F8F08244FF44033064843
:104E0000C0F88041D36004600B6110BD00ED00E08C
:104E1000004000000080004400E100E0014B186801
:104E2000704700BFC4100020014B1860704700BFDE
:104E3000C4100020084B1B6F03F00703022B04D0A3
:104E4000032B05D0012B05D0FEE7044B18687047F3
:104E5000034BFBE70348704700800050C41000205C
:104E6000C8100020002D310108B5FFF7E3FF054B06
:104E70001B6FC3F301330133B0FBF3F0024B186037
:104E800008BD00BF00800050C010002000487047DF
:104E900000B4C404014B1868704700BFC81000205C
:104EA000054B1860054B1B6F03F00703032B01D163
:104EB000FFF7DABF704700BFC81000200080005025
:104EC00000487047002D3101174B9868C0F304402B
:104ED0000C2822D8DFE800F0092121212121071721
:104EE00019211B1D1F00114870479B6803F0407378
:104EF000B3F1807F13D0B3F1007F12D00C4A002BA6
:104F000008BF104670470B4870470B4870470B4866
:104F100070470B4870470B487047002070470A489D
:104F200070470A48704700BF0040015A405DC60004
:104F300000093D000024F400C0EA210180BA8C0180
:104F40000048E801005A620280841E0040420F00BF
:104F5000014B1868704700BFCC100020BFF34F8F83
:104F60000549064BCA6802F4E0621343CB60BFF305
:104F70004F8F00BFFDE700BF00ED00E00400FA0521
:104F800000239B6AB3F5804F03D21968064A914209
:104F900003D00023037083607047012202709A6877
:104FA0009B694260F7E700BF07B0CD5E73B5494B20
:104FB00004461A781AB102221A7002B070BDCDE907
:104FC00000220028F9D001261E702BF047FD424D2B
:104FD000424B18600DF0C4F82B785BB900F05AFC16
:104FE00040B93F4808233F4A3F49006809F038FD6F
:104FF00000B92E703D4B5A68E2603D4A9A601A6EC5
:1050000022605A6E6260D3F87021A2601B6E5C044D
:1050100040D5384AD368D807FCD4374B1A68531C9C
:105020003DD04FF480139340344A13660423334C2D
:1050300023664FF4806323662BF050FC01300ED0C2
:105040002BF04CFC40F20113984208D04FF48043FF
:1050500023664FF4004323661023C4F870311023F5
:10506000264C4FF0804223664FF400536846236677
:1050700001A9226663662BF016FC009B2366019B48
:1050800063662B78002B98D0164B1A6822665B68F3
:10509000636692E71A4AD368D907FCD4BDE7194B77
:1050A0001B78002BC2D1184B5A68144B12B94FF41D
:1050B00080121A66154A526812B94FF400121A6625
:1050C000134B5B68002BB1D14FF480020B4B1A6677
:1050D000ACE700BF6964002067640020E82A002074
:1050E000D4100020E02A0020007108000080004455
:1050F00055CEAC0000000440D010002000900044C9
:1051000000000450686400200080055000C0055075
:105110000000065038B5224D04462B78012B02D0F2
:1051200001232B7038BD0028FCD02BF0D7FB0130B9
:1051300009D02BF0D3FB40F20113984203D0194A57
:10514000D368DB07FCD42268174B1A6662685A667C
:10515000A268C3F87021E268D40744BF00229A60B5
:10516000124B1A68013213D1114A127882B91149CF
:105170004968C80748BF1A600F4A5268D10744BF40
:1051800001221A600D4A5268D20744BF02221A60F7
:105190000CF0EEFF0A4B18682BF066FC0023C0E70A
:1051A000696400200000044000800044D01000200A
:1051B000686400200080055000C0055000000650C3
:1051C000E82A002070B50024A36AB3F5804F22D2EC
:1051D0001A68124B9A421ED1114E337813F0FD0516
:1051E00017D11048FFF7E2FE08214FF480330E4A32
:1051F0000E48C2F88011C36011600D4A1361AB6A9A
:10520000DB69984704460748FFF784FF0CB9012380
:105210003370204670BD4FF48174FAE707B0CD5E5D
:1052200068640020D02A002000E100E000A00044D3
:105230000090004413B51F4B1B7803B9FEE7002311
:105240001D4CCDE900336A4608231C49206809F04B
:1052500007FCF0B91A4AD2F84031D2F840211F2B8E
:105260004FF0010310D9203A9340019A1343019360
:1052700008236A461149206809F0A8FB4FF0005343
:10528000104A1A60FFF76AFE9340009A1343009396
:10529000EEE70D4B9842F1D1094AD2F84031D2F8ED
:1052A00040211F2B4FF0010302D9203A9340DEE743
:1052B0009340ECE769640020D410002000710800DE
:1052C000008000440B020FF00BE000F008B5032152
:1052D00001230422002001F08DF800202BF0DCFBDC
:1052E0000122244B0C20C3F84424234AD2F88030F6
:1052F00043F00303C2F8803000F03AFD1F4B00F585
:10530000D520D3F8F02000F2FC4042F00102C3F8AF
:10531000F020D3F8FC2042F08072C3F8FC20184A39
:10532000A3F55D431A60174B0222B0FBF3F0164B56
:1053300001381861C3F8F0204FF48072C3F80423D9
:105340004FF06043114A0020C3F8B02F104AC3F851
:10535000802ED3F8002E42F48072C3F8002EFF2274
:1053600083F82020D3F8002E22F48072C3F8002E98
:1053700008BD00BF00D003500080005000ED00E0E9
:10538000FF030040F8590D00000004E055CEACC505
:10539000090001004FF06043D3F8802E30B5D207EA
:1053A00015D501240B4D8440D5F8FC2042F08072C5
:1053B000C5F8FC20D3F8002E2243C3F8002E53F882
:1053C0002020002AF0D003F82010002030BD11204A
:1053D000FCE700BF00ED00E02DE9F04F9A46564B88
:1053E00085B01B7806460F461546DDF83C909DF8C3
:1053F00044B0DDF85080002B00F08D80072A00F2C9
:105400008C800E9B002B00F08880B9F1000F00F01B
:105410008480129BB3F5006F7FDC012802D1109BC2
:10542000002B7AD0454B03EB05131B7B002B76D06A
:10543000434C10220021684633F082FD04EB4514F2
:105440001022002F59D13946204633F079FD43F21E
:1054500010036380BBF1000F03D1E37843F0030333
:10546000E370374A0E9B02EB451CCCE90193129B7B
:105470006901013BC3F30A009DF84C30012E03F093
:1054800003034FEA836343EA001E53582D48CDF8C7
:1054900000A000EA03004EEA0003535041D1132359
:1054A0000CF1100ECCF80C309CE80F008EE80F00C9
:1054B0006FF00301DCF81C20109B61F39F02012FA9
:1054C000CCF81C20CCF8143003D1CCF81890CCF8D0
:1054D00004300027194A290102EB051342F8018024
:1054E000159A28465A60694622469F605E7301F00D
:1054F0000FF8384605B0BDE8F08F0021204633F0A4
:105500001FFD4FF444736380BBF1000FA9D1E37812
:1055100043F03003A4E70C48ECE70C48EAE70C48FA
:10552000E8E7B8F1000FD4D19CF8023068F3041317
:105530008CF80230CDE700BF6A640020EC2A00201E
:105540006C2B00200F80FFF3028000F0018000F040
:10555000078000F038B5124B05461B78DBB1E0B18F
:105560002BF07CFA0F4A00231146147B54B92B60B0
:1055700001251A0101EB03131D738C502BF074FAF3
:10558000204638BD0133082B02F11002EDD12BF07B
:105590006BFA0548F5E70548F3E70548F1E700BF72
:1055A0006A640020EC2A0020048000F0028000F0F1
:1055B000018000F013B52BF051FA00230B4A147B45
:1055C0007CB90133082B02F11002F8D1019000F0F0
:1055D00053FF074B01981C702BF046FA204602B08F
:1055E00010BD2BF041FA0348F9E700BFEC2A002078
:1055F0006A640020058000F00D4B10B51B7804464E
:1056000093B1072812D82BF029FA0A4B03EB0413A5
:105610001A7B2AB100241C732BF026FA204610BDF9
:105620002BF022FA0448FAE70448F8E70448F6E7C2
:105630006A640020EC2A0020068000F0028000F05E
:10564000018000F0154B13B51868002301908DF808
:1056500004302BF003FA124B1C7824B12BF004FA1F
:10566000104802B010BD01221A702BF0FDF90E4B4C
:1056700001A81C731C7783F82C4083F83C4083F806
:105680004C4083F85C4083F86C4083F87C400823EE
:105690008DF8073000F012FF2046E2E71890030073
:1056A0006A640020038000F0EC2A00200A4A08B552
:1056B00012785AB107280BD8084A02EB00131B7B5B
:1056C00043B1002100F0ECFE002008BD0448FCE7D7
:1056D0000448FAE70448F8E76A640020EC2A00204E
:1056E000028000F0018000F0078000F00A4A08B54F
:1056F00012785AB107280BD8084A02EB00131B7B1B
:1057000043B1012100F0CCFE002008BD0448FCE7B5
:105710000448FAE70448F8E76A640020EC2A00200D
:10572000028000F0018000F0078000F00A4A08B50E
:10573000127852B107280AD8084A02EB00131B7BE3
:105740003BB100F033FF002008BD0548FCE70548E9
:10575000FAE70548F8E700BF6A640020EC2A002059
:10576000028000F0018000F0078000F00D4B1B78F4
:1057700093B1072812D889B10B4B03EB00131B7BA5
:1057800073B10A4B1A6D012303FA00F010401ABFDF
:1057900000200B7008707047054870470548704737
:1057A000054870476A640020EC2A0020000004507D
:1057B000028000F0018000F0078000F00B4A10B575
:1057C00012780C4662B107280CD859B1084A02EB8E
:1057D00000131B7B43B100F0FBFE2070002010BDC6
:1057E0000448FCE70448FAE70448F8E76A64002044
:1057F000EC2A0020028000F0018000F0078000F019
:10580000204B2DE9F0471F6D5A6D1F4C174010D5E6
:105810004FF000411D4A1165D868C0F30420030110
:10582000E35804EB00125BB3BDE8F0470021526877
:10583000184701260025DFF85480DFF854903742DE
:1058400017D02368C8F850609BB1A1682846013181
:105850006268A1609847637B012B0AD148B909EBC4
:1058600045131A7B60F341021A731A7F60F34102F9
:105870001A770135082D4FEA460604F11004DED1EF
:10588000BDE8F08700000450EC2A002000200450FE
:105890006C2B0020024B1968024B186808F0C0BF3F
:1058A000D8100020D410002037B5920004460D46D1
:1058B000019233F06DFB431C0BD060B929462046A2
:1058C000019A33F006FB0028044808BF002003B00B
:1058D00030BD0348FBE70348F9E700BF10E000F0E4
:1058E00021E000F024E000F010B5044633F048FB5E
:1058F000431C10D088B900F01BFF234620F00300A2
:105900002044984201D1002010BD53F8042B0132ED
:10591000F7D00348F8E70348F6E70348F4E700BF89
:105920000EE000F021E000F024E000F008B52BF0DC
:1059300086F8014B186008BDAC320020014B186896
:105940002BF081B8AC32002041F6713310B5104C09
:10595000104AA0428CBF4FF480140024D169D36355
:10596000936801F4803123F44013234393600A4B7E
:1059700098420A4BD3F818228CBF42F0020222F060
:105980000202C3F8182211B10022024BDA6310BDE3
:10599000005A62020000035080F0FA0200C0075073
:1059A0002E4B98424AD022D82D4B984240D014D842
:1059B0002C4B984239D00AD82B4B984232D02B4BE3
:1059C00098422FD02A4B98422CD000207047294B68
:1059D0009842FAD1284B186F7047284B98422AD02A
:1059E000274B9842F1D1244BD3F880007047254BC8
:1059F00098422BD009D8244B984223D0234B98426D
:105A0000E3D11D4BD3F88C007047214B984221D035
:105A100003F5740303F510539842D6D1164BD3F80F
:105A200098007047144B986D7047134B586E704731
:105A3000114B586F7047104B986F70470E4BD3F84F
:105A4000840070470C4BD3F8880070470A4BD3F89A
:105A500090007047084BD3F8940070470048E80165
:105A60000024F400C0CF6A0080841E0000093D00BD
:105A700040420F00405DC6000080E00FC0EA2101F7
:105A800080BA8C01007E560380D54302006CDC0294
:105A90000090D00338B5134B0546D3F820010C46CF
:105AA00000F00700042804D8DFE800F01A0A0E12FC
:105AB00016000023184605B1286004B1236038BDE4
:105AC000FFF7ACF90423F6E7FFF7E4F90323F2E765
:105AD000FFF7FAF90523EEE7FFF7F2F90223EAE709
:105AE0000123E8E70080005037B50C460021124A38
:105AF0000191D2F88021054602F00302022A0ED05D
:105B0000032A11D0012A14D101A8FFF7C3FF0D23E6
:105B10000DB1019A2A6004B1236003B030BDFFF7D4
:105B2000D3F905230190F3E7FFF7CAF902230190A7
:105B3000EEE70B46ECE700BF0080005038B5104B95
:105B40000546D3F840310C4603F00303022B0BD07B
:105B5000032B0DD0012B0FD12AF09FFE082305B196
:105B6000286004B1236038BDFFF7F2F90723F6E798
:105B70002AF096FE0923F2E701230020EFE700BF99
:105B80000080005038B5104B0546D3F860310C4604
:105B900003F00303022B0BD0032B0DD0012B0FD1ED
:105BA0002AF07BFE082305B1286004B1236038BDCC
:105BB000FFF7CEF90723F6E72AF072FE0923F2E792
:105BC00001230020EFE700BF0080005038B5144BE0
:105BD0000546D3F800020C4600F00700042804D85C
:105BE000DFE800F01B0A0E1216000023184605B16C
:105BF000286004B1236038BD2AF04FFE0823F6E781
:105C0000FFF7A6F90723F2E72AF04AFE0923EEE799
:105C1000FFF72AF90C23800AE9E70123E7E700BF31
:105C20000080005038B5144B0546D3F808020C46E6
:105C300000F00700042804D8DFE800F01B0A0E1269
:105C400016000023184605B1286004B1236038BD52
:105C50002AF023FE0823F6E7FFF77AF90723F2E795
:105C60002AF01EFE0923EEE7FFF7FEF80C23800A58
:105C7000E9E70123E7E700BF0080005038B5104B8B
:105C80000546D3F840320C4603F00303022B0BD039
:105C9000032B0DD0012B0FD12AF0FFFD082305B1F6
:105CA000286004B1236038BDFFF752F90723F6E7F7
:105CB0002AF0F6FD0923F2E700231846EFE700BFBC
:105CC0000080005038B5104B0546D3F800310C4623
:105CD00003F00303022B0BD0032B0DD0012B0FD1AC
:105CE000FFF7D8F8032305B1286004B1236038BD5D
:105CF000FFF72EF90723F6E72AF0CDFD0623F2E79A
:105D000001230020EFE700BF0080005038B50C46AB
:105D100005462AF094FE064B9A6A82EA040101EADB
:105D2000050454409C62BDE838402AF08CBE00BF98
:105D300000C00050032814D005D8012805D002283F
:105D400009D0002005E00F28FBD1084B186FC0F3E5
:105D5000013001307047054BD3F89000C0F3046068
:105D6000F7E7024B186FC0F38020F2E70080005085
:105D70001FB500230193252817D8DFE800F0131A78
:105D80001D262B353A50555A5F646977161A3F160F
:105D900016551A262B26351A5026773A3A3A3A26BD
:105DA00026265A5FFFF746F80190019805B05DF886
:105DB00004FBFFF759F8F7E7FFF73CF8024602202B
:105DC000FFF7B8FFB2FBF0F0EEE7FFF74DF8024641
:105DD0000320F5E7FFF748F802460320FFF7AAFF84
:105DE000B2FBF0F04008DFE7002101A8FFF77CFEDE
:105DF000DBE7002101A8FFF74DFED6E702934FF045
:105E0000E0231B695B0705D5FFF72EF80290029B84
:105E10000193CAE703A902A8FFF790FEF7E7002164
:105E200001A8FFF78BFEC0E7002101A8FFF7AAFE3B
:105E3000BBE7002101A8FFF7C9FEB6E7002101A8D2
:105E4000FFF7F0FEB1E7002101A8FFF73BFFACE749
:105E5000094BD3F8803003F00303022BA9D0032BA6
:105E600001D00020A0E7FFF72FF89DE7002101A84F
:105E7000FFF704FF99E700BF0080005008B501203C
:105E8000FFF776FFBDE80840034988428CBF022136
:105E90000121032000F002B880F0FA02032810B5B7
:105EA0000C4627D004D8012804D0022817D010BDF2
:105EB0000F28FCD12AF0A6FD2AF0ACFD124B013CC4
:105EC000196F21F4405141EA04341C67FEF7CCFFFE
:105ED0000021FFF739FDBDE81040FFF7CFBF0A4BA7
:105EE000013CD3F8901021F0F85141EA0464C3F862
:105EF0009040DCE7044B013C196F21F4806141EADA
:105F000084241C67D3E700BF008000501FB5002326
:105F10000193252821D8DFE800F013202020202A33
:105F20002F454A4F54595E7120203420204A2020AA
:105F300020202A204520712F2F2F2F2020204F5442
:105F4000314B1B6F03F00703013B032B05D8DFE840
:105F500003F00C02080A04230193019805B05DF8D0
:105F600004FB0323F8E70623F6E70223F4E7002007
:105F700001A9FFF7B9FDF0E7002001A9FFF78AFDAD
:105F8000EBE702934FF0E0231B695B0705D5FEF7B3
:105F90006BFF0B230393039BDEE703A902A8FFF724
:105FA000CDFDF8E7002001A9FFF7C8FDD5E70020E7
:105FB00001A9FFF7E7FDD0E7002001A9FFF706FEE2
:105FC000CBE7002001A9FFF72DFEC6E7002001A9BD
:105FD000FFF778FEC1E70C4BD3F8803003F00303E2
:105FE000022B03D0032B05D00023B5E7FEF73CFFBF
:105FF0000B23B1E7FEF768FF0523ADE7002001A9F9
:10600000FFF73CFEA9E700BF0080005038B5054609
:10601000FFF7C6FC214B04465A68012A04D12049E7
:106020004A609A699207FCD10020FFF76FFF0428AD
:1060300003D12AF0E7FC2AF0EDFC1A4A24F0407361
:10604000954221D0184A954221D0184AD16811F0C2
:10605000060FFBD190689360916803F4F81301F484
:10606000F8118B4216D12846FEF7DEFE0020FFF71E
:106070004DFF042810D1FEF7F7FE0021FFF764FC66
:10608000BDE83840FFF7FABE43F00073DDE743F0A8
:106090008073DAE79060E9E738BD00BF00C00150C7
:1060A00000E0015040420F0080841E0000000150BB
:1060B00070B504460020FFF729FF03287CD045F681
:1060C0000E030221414AC2F88030414B99620121FE
:1060D00003F580539962936DD903FCD4D4E900137E
:1060E0001B0543EA0163E17B94F822500B43217BBB
:1060F00094F8236043EA0143617B43EA0133A17BC7
:1061000043EA811313619169D4E904031B0643EA4E
:10611000806301F000410B43A17EE07E0B43217EB2
:1061200043EA0143617E43EA01239361136AE26912
:1061300023F00D03002A0CBF0021082143EA0203CB
:1061400043EA8003214A43EA0103136294F82030B2
:106150004FEA431331D1906A94F8211020F03300B4
:1061600043EA0113034343F001039362194B916D1A
:1061700033EA0101FBD10221154B9962936D5B005B
:10618000FCD41069A36820F4700040EA0350106149
:106190004FF000420E4B9A611DB9022203F5805365
:1061A0009A6216B901220C4B9A6294F824301BB102
:1061B000064B0A4AC3F8802070BD916A21F0330172
:1061C00031430B4343EA45039362EEE700C00050BE
:1061D00000D000500300014000E00050F1A7FFFF95
:1061E00013B5184CA16AA36D13F4803F18BF0122A8
:1061F000154B18BF9A6202229A62A36D5B00FCD411
:10620000124BA26993F9003022F47F02034400028A
:1062100022F47F4280B283F30803104340EA034034
:10622000A06102200191FFF771FDA36D019913F4A4
:10623000803F05D0012002B0BDE81040FFF766BDE9
:1062400002B010BD00C0005000D000506B640020B0
:1062500037B5104CA16AA36D13F4803F18BF01221B
:106260000D4B18BF9A6202229A62A36D5B00FCD4A8
:106270000220A5690191FFF749FDA36D019913F46F
:10628000803FC5F3072502D00120FFF73FFD2846D8
:1062900003B030BD00C0005000D00050014B93F956
:1062A000000070476B64002001231248124A816A83
:1062B0009362836D03F00303032BFAD102239362ED
:1062C0000C4B9A6D5000FCD40C4A986D32EA0000D9
:1062D000FBD10122084B1A65A3F580539A6D9207F2
:1062E000FCD49A6D9007FCD59A6D9207FCD50320DB
:1062F000FFF70CBD00C0005000D0005003000100AB
:10630000F0B5D0E901434FF4D1560227164A41783F
:1063100005785662154E4F2977604FF0010728BF68
:106320004F2106F5805677601669F603FCD441EAE2
:10633000052151611B01417B43EA04230B43017B8F
:1063400043EA41039360C37B817B1B0143EA411312
:10635000417C0B43017C43EA41035360837C13B1CE
:106360006FF4D1535362F0BD000002500010025090
:10637000014B1880704700BF1A160020014B18808F
:10638000704700BF181600200A4A10B5136904466A
:1063900043F00403136103F07BFE2AF068FB30BF77
:1063A0002AF066FB03F090FE1CB9BDE81040FEF732
:1063B0005BBD10BD00ED00E0084A10B5136904464E
:1063C00043F00403136103F063FE30BF03F07CFE6F
:1063D0001CB9BDE81040FEF747BD10BD00ED00E060
:1063E000034A0179D36E23F030030B43D366704721
:1063F00000400050F8B504460D461F4616464AB107
:1064000001238B403021194A01FB0022FFB141F2E8
:106410001001535004EB4403072D4FF00F014FEAD6
:10642000031317D8A80006FA00F281401048184458
:106430002AF021FB56B9012130230C4801FA05F559
:1064400003FB040077B141F21003C550F8BD42F2DE
:106450001001DEE7A5F10800800006FA00F2814095
:106460000448E4E742F21003EFE700BF00C0035026
:1064700004C003500CC003504FF40012064BC3F885
:106480008020BFF34F8FBFF36F8F0022FF21034B9C
:106490005A6599625A60704700E100E000000450BC
:1064A000044A054B002918BF1346012202FA00F0E6
:1064B00018607047402004504010045030B50478F4
:1064C00045788178C27801200F4B41EA05412406C6
:1064D00058609C609961FF21996200219963196459
:1064E0004FF0004159654FF0FF314FF4001003F5B4
:1064F0000053196505491301DBB2C1F8800181F829
:106500001533086030BD00BF0000045000E100E01A
:106510002DE9F04101250C46C3B2DFF888E0D1F83F
:1065200000809D408F7ACB7A94F80DC0097BCEF81D
:1065300050500EF5005E4EF820804FF0300E184E91
:106540001B050EFB006043EA074343EA415322F078
:106550000302C0F860C0C36502672AF07FFA736D5A
:106560002B437365237A13B1336C2B433364637A03
:1065700013B1B36B2B43B3632279A37943EA02438C
:10658000084A93616179E37943EA014306498B61E3
:10659000034B55639D64BDE8F0412AF065BA00BF26
:1065A00000000450002004500010045010B50124D5
:1065B000C0B284402AF052FA044B5A6D22EA040217
:1065C0005A659C62BDE810402AF04EBA00000450A3
:1065D00010B50124C0B284402AF040FA074BDA6AB1
:1065E000224209D15B6B34EA03030CBF012400246F
:1065F0002AF03AFA204610BD0024F9E700000450C2
:1066000041F67132034BDA63012203F50053DA607D
:10661000704700BF0000035041F671320121044B66
:10662000DA6303F50052D1600022DA63704700BFDD
:1066300000000350014BD3F8940070470040005015
:10664000CB784A7810B55B010C7843EA82030A796B
:10665000234343EA02130C22424302F1B042136384
:10666000012C02BF8A78024B43F8202010BD00BFE6
:10667000D080035008B54FF0B0435A6802B960B1FA
:106680005B680BB12AF00FFA4FF0B04130B1012036
:10669000074B58602AF007FAC86008BD2AF003FAD1
:1066A0000223CB602AF0FFF90122024B5A60F4E783
:1066B00000100058002000584FF0B0435B6870B5E0
:1066C0000BB12AF0F0F90121104B4578596083781D
:1066D0000679002BC37814BF02240024002B14BFBA
:1066E000042200224379DB0043EA06132B432343B1
:1066F00013434FF0B0429360054B59600378002B71
:1067000014BF0B460223D36070BD00BF00200058A9
:1067100000100058054B5B69C3F38512827003F0CB
:106720003F021B0B42700370704700BF00C0075050
:106730000120034B9B680A3303F01F039840704706
:106740000080E00F0D4B984208D1A3F50033C3F849
:106750008411C36D43F08003C3657047084B9842B2
:1067600004D1A3F51033C3F89411F2E7054B984216
:1067700004BFA3F52033C3F8A411EAE70080055055
:1067800000C005500000065070B5054616461C4670
:1067900019B90320FFF7ECFA0146402C1BD003D8AF
:1067A000DCB1202C1BD070BD602CFCD1042303FB7A
:1067B00006F2560806EB4113B3FBF2F3094A203BFD
:1067C00002EAC303AA6822F06002AA60AA6814431E
:1067D000AC60EB61E7E70623E9E71023E7E708236E
:1067E000E5E700BFF8FF7F00012200F5805310B5F8
:1067F0005A6040F6AA6341F2050243610023124940
:106800008360C365C26000F500520361C361C36465
:1068100091640E498365884206D00D4CA04203D096
:1068200004F58044A0420BD18842036506D0084B92
:10683000984203D003F58043984201D10023436579
:106840000123536010BD00BFFFFF01000080055011
:1068500000C0055070B50D46FFF7C6FF012300F5D7
:1068600080567360AB7C04461BB1836843F0804361
:106870008360EB7C1BB12046297DFFF763FF2A8AEA
:106880006B7B20461343EA891343E3602B7BD5E9F6
:106890000112FFF779FF6B7D1BB1A36843F48033CE
:1068A000A360AB7D1BB1A36843F40043A360EB7D01
:1068B0002A7E1B07120502F4E00203F0E0431343B3
:1068C000A3656A7E931E012B214B20D89C421AD0CF
:1068D00003F580439C4218D003F580439C420CBFD3
:1068E00002234FF0FF3341F2AC5102205B0103F170
:1068F000A04303F570335850032A23D10423F365D2
:106900002B78636170BD0023EDE70123EBE79C4228
:1069100014D0104B9C4213D003F580439C420CBF13
:1069200002234FF0FF3342F2AC5102205B0103F12E
:10693000A04303F570335850012ADEE70023F2E745
:106940000123F0E7042204F50053DA65D8E700BF1D
:106950000080055000C0055038B50446054D2DF0A7
:10696000CBFA0FCC0FC594E80F0085E80F0000208C
:1069700038BD00BF6033002047F6FF739A42F0B580
:1069800066D0022966D8344DCF0015F8313005EBBA
:10699000C100012B847813D10025C3781B1B9D42B5
:1069A00002D3E018C0B2F0BD591B4668A3EB5101F9
:1069B00036F911609642D4BF0D4601F1FF33EEE780
:1069C00040680028EFD0B0F90030934204DBB0F902
:1069D00002309342B8BF134682883D44FF2A19BF54
:1069E000C8214FF0280CB0F90610B0F908C0A1EB8F
:1069F00003020CBF0126002692FBFCF26D783244A4
:106A000012B2954201DD002A01DA6A1E12B24FF479
:106A10007A7700EBC206F188B668013213FB016198
:106A200012B221EAE1715C319542B1FBF7F104DD6C
:106A300000EBC206B6888E42EBD200EBC20232F8FF
:106A4000040C884228BF0846A04238BF2046A9E768
:106A5000FF20A8E70020A6E7603300200229F0B558
:106A600053D82B4800EBC10410F83110636801299A
:106A70000FD1E078A478904294BFC4EB0001C4EB3E
:106A80000201001BCAB28242C8BF002233F91200C1
:106A9000F0BD002B39D0A178914202D3B3F90200A6
:106AA000F6E7E178B3F900009142F1D9998864786A
:106AB000A1F1FF06013C714203F10405E4B271410A
:106AC00003F10C071FFA82FCCEB2B44216D805EBD4
:106AD000C1014FF47A756A43B1F902404968521A0C
:106AE00004EBD47102EB610292FBF4F29042CFDB33
:106AF000B3F902009042CBDC10B2C9E737F831E0BD
:106B00004E1CE645E3D33146DEE70248C0E700BF4E
:106B1000603300200080FFFF08B50448FFF71CFF2A
:106B2000BDE8084001202DF00ABA00BF40900300E4
:106B30007FB50222084B0949CDE901234FF00073CC
:106B4000CDE90313052301A94FF0FF3005932DF084
:106B500037FA07B05DF804FB006A18000002040071
:106B60002DE9F0418CB08846DDE912761D460446D9
:106B7000002847D0002945D0002F43D0002E41D017
:106B800013F00F033ED120482049A360002A18BF0C
:106B90000146E361C4E90013404609A92AF03FF920
:106BA00068BB2046099929F09AFF2946204629F01A
:106BB00096FF694640462AF0D1F900BB6946204657
:106BC00029F079FF404603A92AF0D3F9B8B9204645
:106BD00003A929F070FF06970127204645F00055CC
:106BE00006A90797089529F066FF204609A9099686
:106BF0000A970B9529F069FF20462AF09AF80CB005
:106C0000BDE8F0812120FAE7000101040001000441
:106C10002DE9F04F97B0894690461F460546DDF8AE
:106C200080A0002800F0BD80002900F0BA803AB1B1
:106C3000229B002B00F0B580239B002B00F0B1803D
:106C4000BAF1000F00F0AD80219B002B00F0A9806D
:106C500077B13C680026229B43440293464509D302
:106C6000002F00F0A08000203C6017B0BDE8F08F3E
:106C70003C46EFE75CB1229B219A9B5D125D01349B
:106C80005340239A04F00F0493550136E6E7A8EB2E
:106C9000060BBBF10F0F58D9444B4846C5E90034E9
:106CA000AC60EC6113A92AF0BAF80028DDD12846BF
:106CB00013992BF00F0B29F012FF5946284629F0A3
:106CC0000EFF484604A92AF049F90028CDD12846EC
:106CD00004A929F0F0FE484607A92AF04AF900283D
:106CE000C3D1284607A929F0E6FE01232299304A9C
:106CF000CDF828A00B930C928A190D9228464BF0E0
:106D000000520AA90E9303920F9229F0D4FE28464E
:106D10000DA929F0D0FE239B039A99190123109104
:106D200011931292224A284610A9CDF84CA0149330
:106D3000159229F0CAFE284613A929F0C6FE284656
:106D400029F0F7FF5E4400288FD1229B03EB060B4E
:106D5000239B1E44029B5B4501D146467EE7ACB9AE
:106D6000219B2246CDE900A3494610232846FFF780
:106D7000F7FE00287FF479AF0AF1100212F8013D06
:106D80000133DBB213700BB99245F7D1219A1BF88E
:106D9000013B125D0134534006F8013B04F00F043F
:106DA000D8E7212061E738465FE700BF030300040E
:106DB000100000202DE9F04F97B00F461446994679
:106DC0008346209EDDF88880DDF890A0269D00286F
:106DD00000F09F80002900F09C801DB1259B002BB6
:106DE00000F09780B9F1000F00F09380B8F1000F28
:106DF00003D0219B002B00F08C803CB1239B002B07
:106E000000F08780BAF1000F00F08380C6F10F0216
:106E1000D2B2032A05D80121D20001FA02F2A2421D
:106E200077D9022D75D0102D73D815F0010270D1CD
:106E3000F11F06296DD838490AEB0400884268D250
:106E400036493846CBE90012CBF80820CBF81C2095
:106E500013A929F0E4FF002858D15846139929F0C6
:106E60003EFE584645EA064129F039FE414658465D
:106E700029F035FE2146584629F031FE384601A951
:106E80002AF06CF8002841D1584601A929F013FED8
:106E9000384604A92AF06DF8002837D10127584652
:106EA00004A929F008FE239B48F000520793219B78
:106EB000584644F000540DA946F00056089709942E
:106EC0000A930B970C92CDF834900E970F9629F0F9
:106ED000F2FD58460AA929F0EEFD584607A929F007
:106EE000EAFD259B584610A945F00055CDF840A075
:106EF0001197129413931497159529F0E6FD5846AF
:106F000013A929F0E2FD584629F013FF17B0BDE898
:106F1000F08F2120FAE700BF008001200000050467
:106F20002DE9F04F99B00F4614469B468046229EAD
:106F3000DDF89890289D002800F0B280002900F02C
:106F4000AF80279B002B00F0AB80BBF1000F00F05F
:106F5000A780249B1BB1239B002B00F0A1803CB198
:106F6000259B002B00F09C80B9F1000F00F0988069
:106F7000C6F10F03DBB2032B06D80121DB0001FAB7
:106F800003F3A34240F28C80022D00F089806B1E37
:106F90000F2B00F2858015F0010A40F08180F31F6D
:106FA000062B7DD83F4B09EB0401994278D23E4B2A
:106FB0003846C8E9003AC8F808A0C8F81CA015A9C6
:106FC00029F02DFF0346002866D14046159929F087
:106FD00086FD404645EA064129F081FD4046249958
:106FE00029F07DFD2146404629F079FD384603A968
:106FF00029F0B4FF034600284ED1404603A929F0EA
:107000005AFD384606A929F0B4FF0346002843D1AB
:107010000127404606A929F04EFD259B40460993CD
:1070200044F000530A9701930B93239B46F00056BC
:107030000C93249B0D9743F000510E910FA9CDF8AE
:107040003CB01097119629F036FD40460CA929F066
:1070500032FD404609A929F02EFD019B404612A9A8
:10706000CDF848901397149329F02FFD279B4046A5
:1070700015A945F0005515931697179529F01BFD96
:10708000404629F056FE034630B101902246514653
:10709000484631F055FF019B184619B0BDE8F08F06
:1070A0002123F9E700800120000006047FB50E4689
:1070B0001D460446F0B102B9E3B9012301920293DF
:1070C00045F00053039300230B4AA360C4E9002357
:1070D000E361204601A929F0EEFC3146204629F063
:1070E000FEFC2046294629F0FAFC204629F021FE24
:1070F00004B070BD2120FBE70000094330B50488CF
:1071000004F4E043B3F5005F34D1C4F30223042B4D
:1071100030D181F0AA6383F4807333F47E1309D0F5
:1071200081F0AA6383F4007333F47E130CBF012350
:10713000002300E001230BB1C1F30543164D21F4F8
:107140007E11A94221D1B4F5105F1ED14188B1F55D
:10715000807F03D021F04001802919D1191F0C290B
:1071600016D8DB0714D4073A062A8CBF6FF08600C6
:10717000002030BD42F204039C4204D181F005237B
:1071800083F48013D0E70023D5E76FF08500F0E7A4
:107190006FF08600EDE700BF000140052DE9F04FDC
:1071A0002DED028B99B08146DDE9287608EE102A94
:1071B0001D468B46DDF8A880DDF8BCA041B138B192
:1071C000249B2BB1269B0BB9279B0BB91FB94EB142
:1071D0006FF0860486E02EB1B8F1000FF8D02B9B3B
:1071E000002BF5D02C9B002BF2D0BAF1000FEFD082
:1071F0002E9B002BECD02D9B002BE9D0B9F8003052
:1072000003F4E042B2F5005F72D1C3F30222042A14
:107210006ED185F0AA6383F4807333F47E1309D0B2
:1072200085F0AA6383F4007333F47E130CBF01234B
:10723000002300E001230BB1C5F30543294648466E
:10724000259ACAF80030FFF759FF0446002849D1B3
:10725000202201460DEB020031F072FE2022214671
:1072600010A831F06DFE08A829F076FD002858D14D
:1072700018EE102A5946484610AB29F0E8FE04469D
:1072800000282FD12B9B9E424ED8DAF800302E9A40
:10729000934249D8474508D2BB19984505D239468B
:1072A0003246404631F032FE4746214B25F47E15EA
:1072B0009D4228D1DAF80030324606932D9B039781
:1072C000CDE90483279B10A90293269B08A801936C
:1072D000259B0093249BFFF76DFD21281BD0E8B967
:1072E0002C9B1E60204619B0BDEC028BBDE8F08FD0
:1072F00042F20402934204D185F0052383F4801303
:1073000092E7002397E76FF0880400232C9A13601C
:10731000CAF80030E6E76FF08604F6E76FF09204F3
:10732000F3E76FF09204DDE76FF08904DAE700BF5E
:10733000000140052DE9F04F99B08A46DDE9266548
:107340009346984681462A9F28B96FF086042046C6
:1073500019B0BDE8F08F0029F7D0229B002BF4D0A4
:10736000249B13B9259B002BEFD10EB9002DECD136
:1073700017B92B9B002BE8D12C9B002BE5D0289B29
:10738000002BE2D041464846239AFFF7B7FE044659
:107390000028DCD1202201460DEB020031F0D0FDA7
:1073A0002022214610A831F0CBFD08A829F0D4FCFA
:1073B00010B16FF09204CAE75A465146484610ABE6
:1073C00029F045FE04460028C1D12B9B9D422AD8B6
:1073D000BE4208D273199F4205D231462A4638462A
:1073E00031F094FD3E46144B28F47E1898451DD18B
:1073F000299B2A460693289B0396CDE90473259B77
:1074000010A90293249B08A80193239B0093229B1D
:10741000FFF786FD212898D02C280AD00028C8D153
:107420002C9B1D6093E76FF0890490E76FF0880450
:107430008DE76FF094048AE700014005084B9842FD
:1074400002D0084B984207D10B88B3F5105F0CBFF0
:1074500000206FF0850070476FF08500704700BF17
:10746000004440040013C0042DE9F04F9846002367
:10747000A3B08246DDE92E75DDE93069CDE906333A
:10748000CDE90833CDE90A33CDE90C33DDF8C8B0D6
:1074900005920491002900F0E580002A00F0E280C6
:1074A00017B9002D40F0DE802C9B1BB92D9B002BC3
:1074B00040F0D8801EB9B9F1000F40F0D380BBF185
:1074C000000F00F0CF8051464046FFF7B7FF04465B
:1074D00078B90146202212A831F032FD202221463F
:1074E0001AA831F02DFD12A829F036FC28B16FF052
:1074F0009204204623B0BDE8F08F5046DDE9041227
:107500001AAB29F0A4FD04460028F2D11A9829F0FC
:107510005AFD04460028ECD115B9CBF80000E8E785
:10752000B7420BD27B199E4208D24D4500F29A8099
:1075300039462A46304631F0E9FC37464F4B9845EC
:107540001BD003F54073984517D04D4B984540F03C
:107550008C804D4500F2868015F00F0240F082804D
:107560002B46CDE900761AA912A8FFF7F9FA0746CB
:10757000002846D1CBF80050BBE700234D45CDE9AC
:107580000E33CDE910336DD83E4B98452D9B46D137
:107590000D2B67D101238DF838302C9B0DF139026A
:1075A00003F10C0153F8040B8B4242F8040BF9D1A0
:1075B0001B78137001238DF8473015F00F0825F064
:1075C0000F0A55D007EB0A030DF1280C03F1100E3A
:1075D000624618685968083303C273459446F7D168
:1075E000BAF1000F2ED006AB01930EABCDE90276B7
:1075F0000093524600231AA912A8FFF709FB074679
:10760000E8B14A460021304631F09AFC0023012FB0
:10761000CBF800307FF46BAF6FF08B0469E7102B71
:1076200020D12C9B0DF1380C03F1100E6246186826
:107630005968083303C273459446F7D1BDE7B8F1E2
:10764000000F97D00AAB029306AB06EB0A02019338
:107650000EAB03920093424600231AA912A8FFF72B
:10766000D7FA84E76FF0860443E76FF0850440E7BC
:10767000BAF1000F3FF47EAFB5E700BF0010C004C1
:10768000004440040013C0042DE9F04F9946002344
:107690009FB08246DDE92865DDE92A78CDE9063329
:1076A000CDE90833CDE90A33CDE90C33DDF8B0B0CC
:1076B0000592049129B96FF0860420461FB0BDE8F9
:1076C000F08F059B002BF6D00EB9002DF3D117B922
:1076D000B8F1000FEFD1BBF1000FECD05146484696
:1076E000FFF7ACFE04460028E7D1014620220EA891
:1076F00031F026FC2022214616A831F021FC0EA8EC
:1077000029F02AFB002844D1DDE90412504616ABCB
:1077100029F09DFC04460028CFD1169829F053FC8F
:1077200004460028C9D115B9CBF80000C5E7BE4210
:107730000AD273199F4207D24545BCD831462A4622
:10774000384631F0E3FB3E46344B99454BD003F5C8
:107750004073994520D0324B994556D1454557D86D
:107760002B07A8D12B460122CDE9006716A90EA848
:10777000FFF7F6F90646CBF8005000289DD04246A8
:107780000021384631F0DCFB0023012ECBF800301D
:1077900041D06FF0920490E70D3D454538D8012364
:1077A0008DF8283033460DF1290206F10C0153F80B
:1077B000040B8B4242F8040BF9D11B780D36137081
:1077C00000238DF8363001238DF8373006AB019356
:1077D0000AAB00932A460023CDE9026716A90EA83A
:1077E000FFF716FAC6E7103D454511D833460DF1AF
:1077F000280C06F1100E624618685968083303C257
:1078000073459446F7D11036E0E76FF0850454E7EE
:107810006FF0890451E76FF08B044EE70010C0044D
:107820000044400413B50024064A6846536F43F0F1
:107830000103536700948DF80440FEF7D1FD204604
:1078400002B010BD0040005008B50248FEF7DEFB54
:10785000002008BD00B4C40430B58BB06C46174D91
:107860000FCD0FC40FCD0FC495E8030084E80300CB
:10787000134BD3F84C21120317D4D3F85041E4B280
:107880008DF81940FEF70AFD204480F308008DF8BA
:1078900018000C48FDF704FB6846FEF709FC32208F
:1078A000FEF76CFD00200BB030BD074B1C884FF677
:1078B000FF739C4208BF8124E2E700BF2C910300C4
:1078C0000080E00F00F049020001E00F30B5094DE3
:1078D00087B001AC0FCD0FC42B6801A823604F23E4
:1078E0008DF80530FEF70CFD6420FEF741FD002009
:1078F00007B030BD549103006FF00402502110B561
:107900000A480B4C12F0800FD3B21BBF03F00F03D9
:10791000043BA3181B1802F101020CBF83F80013EB
:1079200019763D2AEED1002010BD00BF00ED00E029
:1079300000E100E010B5044629F081F8024B1C601C
:1079400029F081F8002010BD8033002010B529F007
:1079500076F8034B1C6829F076F8204610BD00BF6E
:107960008033002013B513460C4618B90192FFF777
:10797000EDFF019B01462246044805F087FD0028E3
:10798000D4BF3720002002B010BD00BF4711030054
:1079900010B5002400F024F80348044B84604360D1
:1079A000FFF7C8FF204610BD84330020B1790000E6
:1079B00013B5064C23780093054B1B8829F0E0FB98
:1079C00010B923780133237002B010BD6C6400201D
:1079D0001C160020014B1880002070471C16002048
:1079E00008B5074B1A6842B9012208201A6028F02E
:1079F000A5FF0449044802F089F9002008BD00BF32
:107A0000983300200C1100209033002030B514462C
:107A1000054687B0104629F012FC6369024683428E
:107A20003CBFD4E903315B181B1A7BB10F492846D0
:107A300003910021CDE90131012304940093D4E99D
:107A4000001328F094FF002007B030BD01226276B9
:107A500094F82D20002AF6D084F835301321E369FC
:107A6000204698472046636A9847ECE70D7A000065
:107A70002DE9F04788B0044688461746994628F015
:107A8000EDFF8246002F7AD0237E03F0FF02002B09
:107A900000F0A280204629F0D2FB6669B04205D1F1
:107AA000637ED4E903521544AD1B01E0F9D9851B6F
:107AB000BD4228BF3D4628F0D1FF94F82D30064640
:107AC000002B6DD12A464046616931F012FA636994
:107AD0002F462B44636121E0037803F0FD01112957
:107AE0005BD1216B814205D1A3F111014B424B4186
:107AF00084F83430013F6369216B01328B4203F11A
:107B0000010308BF2363636195426069E4D1D4E94E
:107B10000323216B1344994200D122630025D4E949
:107B2000032361691344994208BF6261207A657634
:107B3000FDF7BCFD204629F082FB6369834232D108
:107B4000257694F82D30E568656103B125632046FC
:107B5000636A9847214B2A460393002302932369C3
:107B6000216801930123207A00930494636828F02C
:107B7000FEFE207AFDF7BAFD304628F075FF50462C
:107B8000C9F8007028F070FFD9F80030002B0CBF46
:107B90001B20002008B0BDE8F08708F8013BAAE7E9
:107BA0002F460022B0E70123207A23760DF11E0133
:107BB000FDF704FE9DF81E30002BDAD00DF11F01F9
:107BC000207AFDF7D3FD9DF81F100029D1D1224660
:107BD000207AFFF71BFFCCE71746D0E70D7A0000AD
:107BE000002808DB0123420900F01F0003FA00F01F
:107BF000014B43F82200704700E100E0002809DB58
:107C00000122430900F01F0002FA00F0024A60332B
:107C100042F82300704700BF00E100E070B5044661
:107C20000568FFF793FE844202D10020FFF782FE31
:107C300095F93600FFF7E2FF95F93630002B0DDBA2
:107C400001215A0903F01F0301FA03F318492032F6
:107C500041F82230BFF34F8FBFF36F8F95F9370094
:107C6000FFF7CCFF95F93730002B0DDB01215A09C6
:107C700003F01F0301FA03F30D49203241F82230CB
:107C8000BFF34F8FBFF36F8F287AFDF74FFD287A30
:107C9000FDF7B2FCFDF78EFC00232846C4E9003353
:107CA000C4E90433A360AB6ABDE87040184700BF65
:107CB00000E100E02DE9F0410C461546064686B08D
:107CC0004022002120461F4631F03AF995E8030092
:107CD00000232A692376EB6884E80300C4E90423BF
:107CE0002A7DE36084F82C20AA7D2363012384F895
:107CF000343084F835300C9B84F82D2023620D9BA2
:107D0000E76163620E9BA3622B7A84F836306B7A4C
:107D100084F837302D4B346073602D4BB3602D4B9E
:107D200033612D4B73612D4BF360FDF78BFC38B144
:107D30002B4B984204D01024204606B0BDE8F081B9
:107D4000002104F10800FDF705FC07460028F2D1E8
:107D50004FF00108234B3362234B84F83C80B3611E
:107D6000224BF3619DF8403084F8390084F83B30B1
:107D70009DF83C30204684F83A30697D84F838809C
:107D800029F06DFA95F90900FFF738FF95F9090018
:107D9000FFF726FF164B0494CDE902732369CDE962
:107DA00000836368E2682168207A28F0E0FD0446D9
:107DB0000028C0D195F90800FFF720FF95F90800C9
:107DC000FFF70EFF3046FFF7B5FDB5E7AF12030032
:107DD000717A00002D120300331203001D7C000095
:107DE000038000F0031203005F1203003912030046
:107DF0000D7A00002DE9F0414FF001081C46584B68
:107E000086B00293574B0C9D0193574B1746009336
:107E10000A46CDE903882946544BFFF74BFF064637
:107E2000002876D1236804222B64237985F8443016
:107E3000A17985F84610607985F84500237A85F8A0
:107E40004830E37985F84730A37A85F84A30637A79
:107E500085F84930237B85F84C30E37A85F84B3040
:107E60004346FEF7C7FA43460222217AE079FEF73D
:107E7000C1FA3E7039462068FEF7ECFC1421A27B63
:107E80003B4B03EB4210C0F8AC1594F806C0617987
:107E90002E3203EB421341EA0C415960227AE37916
:107EA00043EA0243C0F8BC3585F84D607B7E032B66
:107EB00053D8DFE803F01F02324D0123002785F875
:107EC0004D3000230222A17A607AFEF793FAA17A5C
:107ED000627AA37B42EA014241F2B4515B0103F1B1
:107EE000A04303F570335A500422236803F58053EE
:107EF000DA65AFB963792A6C85F84530A379052135
:107F000085F84630D36C206843F00403D36428F02E
:107F10000DFE304606B0BDE8F081022385F84D30F5
:107F200000230422217BE07AFEF764FA41F2AC528E
:107F30000221A37B5B0103F1A04303F57033995049
:107F4000217BE27A42EA014241F2B8515A50D1E72C
:107F50000323012785F84D30B3E72326D9E700BF77
:107F6000D9130300CD1303005D1403005114030063
:107F700000C0035010B51C46044B18682BF05FFA84
:107F8000002820600CBF1B20002010BD1411002011
:107F900013B5064C23780093112329F0F1F810B99A
:107FA00023780133237002B010BD00BF8D64002020
:107FB00010B5FFF715FD0F4C20602BF04EFA202274
:107FC0000D4901230D4805F0E3FA0D4B18600D4BE8
:107FD000204663600C4BA360FFF7ACFC28F02FFD3C
:107FE00001210446084601F019FE204628F02BFD29
:107FF000002010BD9C3300206D6400206E910300B2
:1080000014110020917F0000757F000000F0FD0337
:10801000112B05D0182B03D0A0F17D03012B07D81D
:108020000122044B80F020001A70034B18707D2051
:10803000704700BF9564002096640020F8B50E4696
:108040001446204B00B3204A2049107000221A70B9
:1080500022700A704FF6FF721D4B1A801B4D2B7851
:10806000EBB91B4F3046398829F0D5FA164A3880CB
:108070001378013BDBB213706BB901232B703046D0
:10808000BDE8F840FFF7C2BF1A78002AE6D01870A2
:10809000104B1878F8BD237801332370EFE7012BDC
:1080A00005D102232B700A4B1888000AE8E7022B3F
:1080B00004D103232B70064B1878E1E7FF237E20C1
:1080C0002370E7E795640020946400209764002003
:1080D000325D0020966400202DE9F047394E884635
:1080E000337817465BB9384A1370384A1370384AE8
:1080F0001370384A13704FF6FF72374B1A807D2881
:108100004FD02CD8182850D01A2852D00022314BEA
:108110002D4D1C781A702B78DFF8B490DF2B9CBFA4
:1081200001332B702B784440022B12D9DFF8A8A022
:1081300099F80000BAF8001029F06DFA2B78AAF827
:108140000000DF2B9FBF99F80020023B88F8002039
:108150003B701E4B1A781C7089F8002006E07E28C0
:10816000D4D1194B1B781BB91A4A1370202011E087
:10817000FF2B20D0184A1188154A1078134A12781C
:1081800002EB0022914218D1022B18D9DF2B8CBFB1
:108190007A200020A0F12002534253413370BDE801
:1081A000F08720200B4B1870F4E7FF22064B1A7063
:1081B000DCE77420EEE77720ECE77620EAE7792029
:1081C000E8E700BF8E6400209364002090640020E4
:1081D0009164002092640020305D002008B529F0F1
:1081E000ABF9044B08B1188008BD4FF6FF721A8036
:1081F000FAE700BF2E5D002010B5074C208850B173
:1082000029F09AF92388C01A044B00B21B889842BF
:10821000B4BF0020012010BD2E5D00202C5D002089
:108220004FF07E624FF6FF732DE9F041B2F84670D1
:10823000B2F84460154D9F4208BF4FF448679E4214
:1082400008BF4FF4C8762C88DFF8448050B1640032
:108250002C802B88BB4215D92F800023A8F8003032
:10826000BDE8F081B8F80030002BF2D029F064F9B5
:10827000B8F80030C4EBC404C01A80B204EB800428
:10828000E408E5E7B34238BF2E80E6E72C5D002026
:108290002E5D002008B529F04FF94FF07E634FF6B0
:1082A000FF72B3F85430934208BF4FF47A73184406
:1082B00010F47F6FC0F3071208BFFF22014B1A7042
:1082C00008BD00BF8F64002010B5084C237843B16F
:1082D00029F032F92378C3EB101003065CBF0023AA
:1082E00023702078B0FA80F0400910BD8F64002020
:1082F00007B502F05FF96A4602F0C2F918B15221DF
:10830000034800F06DFBDDE9000103B05DF804FBFC
:108310008491030008B502F089F818B17A21024867
:1083200000F05EFB002008BD8491030008B500F05A
:108330008BFA0E4A536A43F470235362EFF30883B7
:108340004FF0CD310A4A043B93420BD20222094B33
:108350001A6700F0DFFCFFF7DDFFBDE808400648C4
:10836000FEF7FABA43F80419EEE700BF00ED00E0AB
:1083700000000020004000504090030007B5042298
:1083800000200DEB02012BF093FD042804D040F2F5
:108390006711044800F024FB019800F067FC03B06B
:1083A0005DF804FB84910300102870B522D00DD82D
:1083B000032801D9002070BD013802281AD8DFE84F
:1083C00000F002172F000023022215E02038C3B26C
:1083D000032BEFD80328EDD801A353F820F000BFFA
:1083E000C7830000F1830000218400001D84000089
:1083F0000123E9E7002303220B490C4D0C680021FF
:10840000C8B28442D6D955F8200028B1067A9642DF
:1084100002D1467A9E42CED00131F1E70323D3E761
:1084200002231A46E8E700BFA08F0300981000203F
:1084300010B5FFF7B9FF044630B1037A022B03D120
:1084400003680BB11B6823B940F23321064800F0E2
:10845000C7FA23681B681B6C986900F44830A0F5C4
:1084600000535842584110BD84910300082310B5B1
:1084700048400A0A0649C0B200F00104400804B1AD
:108480004840013B13F0FF03F6D1504010BD00BF40
:108490002083B8ED2DE9F0470025144C144FDFF888
:1084A0005890DFF8588022464946002057F8043B90
:1084B000EEB228F051FE2378A2460134002BFAD107
:1084C0009AF801307BB10B4906F00306032E08BF72
:1084D0004146002028F040FE9AF801300135002B7B
:1084E000E1D1BDE8F0874146F3E700BF449E0300B9
:1084F00000100020CA910300CD9103005C95030099
:1085000040F605226A4B2DE9F0411B8893420ED8B4
:10851000B3F5206F0DD840F20252934218D040F2CA
:108520000172934220D040F2015293420AD0BDE83A
:10853000F081A3F602235F4C032B1ED8DFE803F083
:10854000376396B25C490020BDE8F04128F004BED4
:1085500000205A4928F000FE564B1A6C0020BDE856
:10856000F041574928F0F8BD524A0020D2E92423AF
:10857000BDE8F041534928F0EFBD0020524928F0F2
:10858000EBFD94F868309E0703D500204F4928F092
:10859000E3FD94F86B305D0603D500204C4928F0CC
:1085A000DBFD94F96B30002BC1DA4A49CBE70020A0
:1085B000494928F0D1FD94F86430980704D0002090
:1085C000226C3F4928F0C8FD94F96430002B04DA8E
:1085D0000020226F414928F0BFFD00250126404FB1
:1085E000DFF80881626E06FA05F3134207D057F8E8
:1085F000252013781BB14146002028F0ADFD013540
:10860000082DEFD193E73749002028F0A5FD2C492C
:108610000020226C28F0A0FD94F86530590703D59E
:108620000020314928F098FD94F96530002B04DAD8
:108630000020226F294928F08FFD0825284E2B4F56
:10864000636EEB40DA0707D556F8252013781BB187
:108650003946002028F080FD0135102DF0D194F826
:10866000640000287FF463AF21496DE721490020B1
:1086700028F072FD0020226C114928F06DFD1025B4
:10868000174E1A4F636EEB40DB0707D556F82520CF
:1086900013781BB13946002028F05EFD01351A2DF4
:1086A000F0D144E70020144928F056FD226C55E72C
:1086B000345D002000100020D791030015920300C4
:1086C00046920300619203007D920300969203009C
:1086D000D1920300059303004293030068930300C3
:1086E000B89C03008F930300A793030086930300B5
:1086F000EE9303001F940300399403002DE9F04F1B
:10870000434C85B0636BD4F83CA05A0744BF0026A5
:10871000B046D4F84CB05FBFD4F838A0D4F848B015
:10872000D4F850803B4E54BFDFF81091DFF8109121
:1087300013F0080F384B394A18BF1A46B6EB080732
:108740001FBF64237D0803FB0B55B5FBF7F50CBF7A
:108750003D46ADB24B4632490020CDE9016ACDF825
:108760000080BFB228F0F8FC2B460020CDE900972E
:108770002C491FFA8BF228F0EFFCB24501D8C24514
:1087800004D24A460020284928F0E6FCD4E9170321
:1087900018433AD00020254928F0DEFC00250126A8
:1087A000234FDFF8A080E26D06FA05F3134207D0ED
:1087B00057F8252013781BB14146002028F0CCFC47
:1087C0000135202DEFD100250126194FDFF87480E7
:1087D000226E06FA05F3134209D007EB8503D3F89E
:1087E000802013781BB14146002028F0B5FC0135EC
:1087F0001D2DEDD100200F4928F0AEFC00200D49C1
:1088000005B0BDE8F04F28F0A7BC0B49F4E700BF66
:108810000010002000100020689403006F940300F3
:1088200077940300A9940300E394030002950300E6
:10883000509D03005D950300369503005B94030093
:10884000609403003295030010B5FDF7F3FE044673
:1088500028F023F90022012101FA02F3234018D065
:10886000204B214933F81230062B18D040F2072252
:10887000934211D14FF000524FF20F0054888442BE
:108880000AD11088984207D14CF23C3353800880BB
:1088900010BD0132102ADFD1134A138012E04FF0CD
:1088A00000534FF20F025888904218D11B88B3F53D
:1088B000406F28BF4FF4C0630B804CF23C324FF046
:1088C00000535A80084B1A8840F201739A4201BF44
:1088D000064B074AD2E90001C3E90001D8E74FF48B
:1088E000C063E9E7109F0300345D0020A833002037
:1088F00090100020014B1888704700BF345D0020A5
:10890000014B1888000A7047345D0020164B1B8805
:108910001A0A13F0FF03104604D1012A22D140F0B5
:1089200080007047072AFAD801A353F822F000BF4D
:10893000678900001F8900005189000055890000E7
:1089400055890000598900005D8900006189000097
:108950000920704702207047032070470B207047A2
:108960000620704718467047345D0020044B0548C8
:108970001B881A0AB3F5406F38BF00EB82007047BE
:10898000345D0020309F0300044B1888044B020A1A
:1089900053F82230C0B203EB80007047345D0020F2
:1089A000209D030010B5044628F050F84FF0005306
:1089B0004FF20F021C805A80BFF35F8FBFF34F8FBF
:1089C0000549064BCA6802F4E0621343CB60BFF36B
:1089D0004F8F00BFFDE700BF00ED00E00400FA0587
:1089E00038B504460D4600F0C7F928F02FF82B469D
:1089F00022460549002028F0AFFB29462046BDE865
:108A0000384028F016BE00BF4C9503006C4A2DE993
:108A1000F0416C4B55686C4C5D65516A99656B49CA
:108A2000D1F80002D865D1F80412586B1966916A22
:108A300010F0040F5966D16A4FF000009966116B6F
:108A4000D966516B1967D26BD8645A67D3E90E2186
:108A500008BF11465E4A91421A655DD301F12000BC
:108A6000A04259D88869C5F308051864CE69062D57
:108A70005E6455D1574DA84252D3574DA8424FD2AC
:108A800005884DF6426085424AD11868C3F89000C7
:108A90005868C3F8940040F20170A242154604D20F
:108AA0002E680432B6F1CD3FF7D00022C3E91E2272
:108AB000C3E92022C3E92222641B434EDFF814C11C
:108AC000DFF814E19C648E422DD8D3E91EC7D3E9A8
:108AD0002065D3E922414FF0000E013AD2B2FF2ABD
:108AE0003DD1BEF1000F05D0C3E91EC7C3E9206523
:108AF000C3E92241B3F85430C3F308030C2B3CD82C
:108B0000022B52D9DA1E092A4FD8DFE802F055327B
:108B100041444E4E4E4E4E4B0021C3E910112C499C
:108B20004FF42060B9E756F8044D6445CBD3744543
:108B3000C9D2E507C7D50625284F57F8048BA045AD
:108B4000C1D0013D15F0FF05F7D10AB9052201E0BA
:108B5000013AD2B202F11E0543F82540B3E7E046E0
:108B60004FF0010EBC4637462E4625460C46414680
:108B7000B3E740F60220BDE8F0813B2B15D1184B3E
:108B80009B6913F0020F40F2025318BF1846F2E738
:108B900040F60320EFE740F60423B0F5206F08BF4E
:108BA0001846E8E740F60520E5E740F60722013BD6
:108BB0004B2B98BF1046DEE740F60120DBE700BFF5
:108BC00000ED00E0001000200010002000E100E0B7
:108BD0000000002034410000688F0300781000205E
:108BE0000080015A00F00CB800F00AB800F008B894
:108BF00000F006B800F004B800F002B800F000B8C9
:108C000072B61EF0080F09D01EF0040F0DD0DFF869
:108C100050E0AEE8FF1F6FF002000CE0DFF840E02C
:108C2000AEE8FF1F6FF00E0005E0DFF834E0AEE8BD
:108C3000FF1F6FF006006946EFF309828EE8070018
:108C400086460848084C854501D3A54501D384F3E1
:108C50000888FFF7DBFE84F30888FFF7A3FE000017
:108C600000100020400000200010002082B2074BBE
:108C70004AB1000C1A8008BF4FF6CE22044B14BF35
:108C800018801A8070474BF6EF62F2E71E1600203C
:108C9000201600200B4BB3F900201888002AB8BF1B
:108CA00080F0620042001A80074AB2F9001013886F
:108CB0000029BCBF83F4805383F00B03590011805B
:108CC000584070471E1600202016002008B501F0FD
:108CD0009FFE60B10A4B0344072B0DD8072B0BD81E
:108CE000DFE803F004060A080A0A0A0CC22008BDDD
:108CF000C320FCE7C420FAE7C520F8E7C120F6E767
:108D0000FF1FFF0F024B9A6903F500539A617047EA
:108D10000080015A1FB50D2400212246684630F01C
:108D20000FF901238DF800300323104A8DF8094014
:108D30008DF80A30D2F800320D4C23F0070343F0CF
:108D4000010369462046C2F8003227F023FF4FF4A2
:108D500000610223074A04F50050C2F884118361C0
:108D6000516004F58054E36104B010BD00800050F0
:108D70000080015A00E100E0014827F0FABE00BF80
:108D80000080015A10B5094A137813F002040CD17F
:108D90000749084809780078884206D0064863F0F9
:108DA0007D03048005481370017010BD9B64002092
:108DB00098640020A06400202E5D00209D640020A7
:108DC000054B064A19881288914202BF0121044AC4
:108DD000117000221A807047385D00203A5D002033
:108DE000A464002007B50346009102223D200349F8
:108DF0002BF005FE03B05DF804FB00BF6D9F030080
:108E000007B5064B02221B783D20009304498123BD
:108E10002BF0F5FD03B05DF804FB00BFA264002059
:108E20006D9F030038B50C4D0C4C2A7823789A427C
:108E300000D138BD00210A482DF011FC094B1B88D8
:108E4000834202BF0122084B1A702378013303F0DA
:108E500007032370E9E700BF986400209E640020A8
:108E6000365D00203A5D0020A4640020074B93F992
:108E70000030002B08DB064A137803F0410140293B
:108E800004BF43F005031370704700BFA2640020C5
:108E90009B640020282307B5054A3D20CDE9003218
:108EA0000449702302222BF0AAFD03B05DF804FBF5
:108EB0003800E00F669F0300702807B504D103B0A7
:108EC0005DF804EBFFF7E6BF074B02221B7807496A
:108ED0000193074B1B78009303463D202BF08FFD39
:108EE00003B05DF804FB00BFA56400206C9F030085
:108EF000A264002008B50A4815F0D8FE094815F00C
:108F0000D5FE094815F0D2FE084815F0CFFE0848F6
:108F100015F0CCFEBDE80840064815F0C7BE00BFFE
:108F2000385D00203E5D0020405D0020365D002061
:108F30003A5D00203C5D002008B5DC220021044899
:108F40002DF0EEFA0122034B1880034B1A7008BD76
:108F5000A76400203A5D0020A464002030B585B0ED
:108F6000FFF7EAFFFFF708FF4FF07E634FF6FF724F
:108F7000B3F84C30224D934208BF4FF47A732B80E4
:108F80000023204C2380FFF729F9FFF735F900284B
:108F9000FBD04FF07E634FF6FF72B3F8423093423E
:108FA00008BF4FF4C8632B8000232380FFF7AEFC7B
:108FB000431E154DDBB20A2B144C287019D8012220
:108FC00002FA03F340F20352134212D00222C123E9
:108FD0000290CDE900323D2084230D492BF00FFD96
:108FE000FF232B70D023237005B0BDE83040FFF77E
:108FF00051BFFFF74FFFA023237005B030BD00BF66
:109000002C5D00202E5D00209A6400209B640020CF
:109010006B9F030037B504460D4616F037F802285B
:1090200025D840F217111B48FFF7DAFC1A4B1978C4
:1090300001F14003DBB2022B1FD901F0A003A02BEA
:1090400004D00B0619D57E20FFF7CCFE4FF07E63CF
:10905000B3F8403013B1204628F005FBB5B100222B
:1090600021460E4803B0BDE830402DF091BA2046AD
:1090700016F00CF8DC28D4D8D8E7CDE90014842306
:1090800002223D2006492BF0BAFCDFE72A462146A2
:109090000448E7E7719F0300836500203E5D0020E0
:1090A000B29F0300405D00202DE9F74FFFF7A4F8C1
:1090B000AB4C48B32378580626D599074CBFA94B2B
:1090C000A94BAA4A1B7812789A4232D00120FFF7A6
:1090D000A7F87320FFF7F0FEA54A4FF6FF7113784B
:1090E0000133DBB213704FF07E62B2F848208A423F
:1090F00008BF0322934219DD51229E4B72201A7041
:10910000FFF7DAFE202323709B4D9C4E94F900203C
:109110002378002A18DA13F030030ED01A2028F032
:10912000C1FA237803F07F032370EFE7FFF72AFEED
:10913000EAE70022924B1A80E6E72A78022AF0D169
:109140008F4A2B701380E9E72A78012A00F0F78014
:109150000DD9931E012BD9D83178FF2900F0248135
:10916000002940F0F480874B19783246EDE09A07E9
:1091700019D57C497D4A7C4892F800C007780A7866
:10918000ACEB0200BA1A02F0070200F007009042AE
:1091900098BF81F800C00A78BA4204D123F00203D4
:1091A0002370FFF73FFE237813F0300F1FD013F02A
:1091B000200F744F15D0C2233B706E4B1B78BB70D1
:1091C00002237B702378032023F03C0323700123C8
:1091D0002B7032466B4B1978FEF730FF28F062FA9D
:1091E00094E7C1233B70FFF791FBB870E8E713F0F9
:1091F0000C011FD0644F13F0040F3978614B0FD06E
:109200006039C9B219708020FFF7ECFD237823F094
:109210000C0301203A7823705C4B28701A70D8E751
:1092200081F0800119707E20FFF7DCFD237823F0A8
:109230000803EEE79B0737D5DFF82881544A98F8F2
:109240000030127801919B1A03F0070A27F006FC00
:10925000019981464F482DF095F90746DFF834B162
:10926000BAF1000F16D1484627F0FEFB4A4B3846AC
:109270001F8015F00BFF444B98F800201B7801303D
:1092800043EA02133F4A43F0080313700323C0B2BA
:109290002B709EE7394658462DF0C6F90AF1FF3388
:1092A00007465FFA83FADBE7304B4FF6FF70197819
:1092B0004FF07E63DB8F2C4F834208BF05233A7843
:1092C0000B44013B521A5B1A02F0070203F007033A
:1092D0009A42DFF8B48028DC30482DF04EF9E0B92E
:1092E0002E482DF04AF92D4A2D4B0021002808BFA9
:1092F00013462C4A184613602DF044F9264B18806B
:1093000015F0C4FE3A7898F80030013043EA0213B1
:109310001C4AC0B213700223BAE721482DF02DF980
:1093200018B9FEF7D1FF0028DAD1184B1A7898F84F
:1093300000309A425ED0237843F00803F4E6337895
:10934000FF2B4DD032460F49C95C002044E7124B39
:109350000139C9B2188816F09BF8014605E700BF2D
:109360009B6400209D640020A0640020986400207D
:109370009C6400209A640020A6640020A164002060
:109380002E5D0020836500209F64002099640020EA
:109390009E640020365D00203C5D00203E5D002084
:1093A000405D0020B0330020022A1CD1134A002166
:1093B0001378013303F007031370114B18682DF075
:1093C0004EF9104B002219880F482DF0E1F80F4B91
:1093D0001B880BB9FEF702FF0D4B1A780D4B1A7064
:1093E00000232B7092E60C4A1378013303F0070335
:1093F0001370ECE703B0BDE8F08F00BFA06400205D
:10940000B03300203C5D0020365D00202E5D002042
:109410009F640020996400209D6400202DE9F04F96
:109420008246DFF8FC9285B00023DFF8F882AAF8C4
:10943000003098F800301BB989F80030FFF7C0FC05
:10944000A94DAA4E0DF10E0028F030F92728044648
:1094500016D04A469DF80E000DF10F0199F800B0A4
:10946000FEF73AFE10F0DF0704461BD0FFF7A8FC1A
:109470007A2827D8732807D82028DAD0272821D19E
:10948000204605B0BDE8F08FA0F17404062C19D871
:10949000DFE804F00418444A184C4E007420FFF72B
:1094A0000BFDC6E799F800309B4506D0022B0FD87C
:1094B0009DF80F208E4B03F80B20202CC2D0002CDF
:1094C00000F0FD8040F255118A48FFF789FAB0E7B5
:1094D000032B10D1884B1A786AB12A8801213046B3
:1094E0001F7032802DF06AF9012300933A463188CB
:1094F000824815F087FF2B8830889842DDD115F01F
:10950000C5FDC7B2791C2846C9B22DF057F93946B6
:109510009DF80F20288815F0CFFFCEE77620FFF7C3
:10952000CBFCFFF7A3FC84E77720F8E77920F6E788
:109530007A20F4E70A060DD4032B2BD933785B0687
:1095400004D56F4B1B78B3EB111F01D0FFF738FC2C
:10955000012519E001F0E002802A06D1012B19D182
:109560007D20FFF73FFC02250CE0A02A06D1012B4D
:1095700010D17F20FFF736FC032503E07B20FFF7A7
:109580009BFC0025FFF71CFC3078430604D4202305
:10959000337049E77C20F2E76B1E022B16D859493D
:1095A000DFF884B198F800700A789BF8003007F073
:1095B0000707A7EB020C9B1A0CF0070C03F007033C
:1095C0009C4515D97820FFF777FC0025AB1E012BB1
:1095D0002ED898F8003013F0080326D0FEF75AFE74
:1095E000032D69D0002D7FF41FAFFFF73FFC1BE771
:1095F0009742EBD00023444A10F002000F70137022
:1096000008D0424A1380424B1B78BB42DED0FEF7A3
:10961000E5FDDBE7FEF704FE9BF80030BB4201D01E
:10962000FEF7DCFDFFF7FEFBD0E73A4A1370D7E701
:10963000012DD5D1324998F800200B78C2F30210E1
:1096400098422DD1294D288830B92620FFF70EFCED
:109650002624FFF731FC13E7013303F007030B70F7
:109660004FF07E63170742BF327842F00802327033
:10967000327822F005023270B3F840300BB127F097
:10968000F2FF2B880222019398F800303D200093CE
:10969000214985232BF0B3F92B88AAF80030EFE697
:1096A0001107337802D543F0080371E7DA079CD439
:1096B0007520FFF701FC98E7FFF764FBB4E6DFF8DD
:1096C000308099F8003098F80010144EC0297FF4CB
:1096D00031AF012B7FF45EAFFFF792FB0425FFF75C
:1096E0008FFB27F03EFF4DE73A5D0020385D0020FC
:1096F000A2640020719F0300A4640020A3640020E2
:109700009F640020986400209C6400202E5D00204F
:109710009D6400208F640020B29F03009B640020A2
:10972000A56400208E640020A064002008B5114BC1
:109730001B781BB1002000F0010008BD0E4B1A7809
:109740000E4B1B789A42F5D110F03EFD0028F1D166
:109750000B482CF012FF0028ECD00A482CF00DFF2B
:109760000028E7D0084B1B78002BE3D10120FEF73F
:109770005FFEE0E78E640020996400209F64002073
:10978000405D00203E5D0020A6640020F0B519B3C6
:10979000002820DA2D23B0F1004F137000D0404292
:1097A000012119E0801B8642ECB205F10105F9D9CF
:1097B00014B9BCF1000F05D04FF0010C4D1C303432
:1097C0005454E9B2013B13F0FF0309D13030505437
:1097D000481CC0B2F0BD002109234FF0000C024F1D
:1097E000002557F8046BDEE7B89F03002DE9F04F22
:1097F000002495B02146029480461646A146442294
:10980000274603A802AC9B4625462FF099FB0DF195
:10981000480A317859B9641BE4B22246294600202F
:10982000C047002840F0AF803C44E0B2ACE02529BE
:109830001AD0B9F1000F1BD1204600F8011B0446D5
:109840005445C0F0F580641BE4B22946224600204E
:10985000C0470146002840F0968027444822284609
:10986000FFB22FF06DFBE2E0B9F1000F00D101363D
:109870003278782A06D8612A07D8252A5DD039D8C7
:10988000002AC8D04FF00009DAE7A2F162011629D8
:10989000F8D801A353F821F047990000D9990000A6
:1098A000359A000085980000859800008598000092
:1098B0008598000085980000859800008598000034
:1098C000359A000085980000859800008598000072
:1098D000EB9900008598000085980000EB99000046
:1098E00085980000359A0000859800008598000052
:1098F0002B990000392A16D82F2AC3D9717801F084
:10990000DF01582940F0C380322A06F1010940F0F6
:10991000AB805BF8041B2046042289B227F0D6FEF8
:1099200004464E46AEE7582AACD15BF8041B02222F
:109930002046C9B227F0CAFE55E0214601F8022BA5
:1099400062700C469EE74FF00009DBF8003001938F
:10995000DBF804300093009B994502D10BF1080B12
:1099600090E7019B2046022213F8091027F0AEFE73
:109970005045044612D3441BE4B229462246002037
:10998000C047014618B1002015B0BDE8F08F48224D
:10999000284627442FF0D4FA2C46FFB2009B5A1ECB
:1099A0004A4581BF2046202200F8012B0446544539
:1099B0000FD3641BE4B2294622460020C04701466B
:1099C0000028E0D14822284627442FF0B9FA2C4637
:1099D000FFB209F10109BEE75B4653F8042B2046AC
:1099E0009B4600F8012B04464CE7621BD2B2294685
:1099F00000205BF8049B0092C04704460028C2D1B7
:109A0000009A0146174428464822FFB22FF098FAE0
:109A1000E2B219F8020001340028F9D14946009257
:109A2000C0470028AFD18146009A1744FFB22C46A8
:109A30000136EEE66C2ADBF800000BF104090ED1CA
:109A40007378752B14BF0121002101D0642B00D144
:109A500001362246FFF79AFECB46044412E7752AE8
:109A60000CBF00210121F4E7342A10D15E4656F8DC
:109A700004BB04224FEA1B41204627F027FE1FFAB1
:109A80008BF1042227F022FEB346044649E74FF04B
:109A90000109D5E6054B1A782AB95B78002B14BF6B
:109AA0000220032070470120704700BF8E65002010
:109AB0000329F8B598BF124B05460E468CBF00240B
:109AC0005C5C032805D8DFE800F002080B0E44F0C8
:109AD00002040C4B1F684FB9F8BD44F00804F8E7C6
