:10400000C00A0020894B0000396F0200396F02009E
:104010009B7E0200396F0200396F0200396F020087
:10402000396F0200396F0200396F0200214200002F
:10403000396F02007C410300B14100005D8A02003B
:10404000396F0200AD6E0000396F02006D50000044
:10405000396F0200396F02003D560000396F0200CF
:10406000396F0200396F0200D1A20000396F0200DF
:10407000A98E0000396F0200396F0200396F02000B
:10408000396F0200396F0200396F0200396F020088
:10409000396F0200D1530000396F0200396F0200FE
:1040A000396F02006955000049550000396F020060
:1040B000396F0200B5350300396F0200CD4A0200A6
:1040C000BB350300B73503008D420200C73503003E
:1040D000BF350300914A0200C3350300AD29020039
:1040E0000D4B0200396F0200396F0200396F020078
:1040F000396F0200396F0200396F0200396F020018
:10410000396F0200396F0200396F0200396F020007
:10411000396F0200396F0200396F0200396F0200F7
:10412000396F0200396F0200396F0200396F0200E7
:10413000396F0200000000000000000000000000D5
:104140000B4A1168086806C881F30B88022181F3C5
:104150001488203080F30988BFF36F8F4FF0000080
:1041600080F31188104700BFAFF30080AFF30080E9
:10417000CC990020000000000000000000000000BA
:1041800007480068006880F3088862B661B6BFF32C
:104190004F8FBFF36F8F02DF00BF00BFAFF3008010
:1041A00008ED00E00000000000000000000000003A
:1041B000EFF309801EF0100F08BF20ED108AEFF317
:1041C0000B82734620E9FC0F114A116808604FF01A
:1041D000300080F31188BFF34F8FBFF36F8F09F06A
:1041E00067FA4FF0000080F31188094A11680868E7
:1041F000B0E8FC0F13F0100F08BFB0EC108A82F388
:104200000B8880F309881847AFF30080AFF3008074
:10421000CC99002000000000000000000000000019
:104220001EF0040F0CBFEFF30880EFF30980044980
:10423000084700BFAFF30080AFF30080AFF300800A
:10424000F5940200000000002DE9F04F2DED028BE7
:10425000DFF808828BB0D8F800309A0706D440F215
:104260009A61754B754A764821F0CEFCDFF8F0B1C3
:10427000DBF8003023B940F29B61724B6F4AF2E7E2
:10428000D8F80010222011F0100118BF012106F00B
:1042900059FFDBF800306C4C9B880DF113018DF851
:1042A0001330012320681A462EF0BFFB9DF813201F
:1042B000DBF80010023A0023096892B220682EF061
:1042C000B4FB624B07AD93E80700DBF8003085E8EC
:1042D00007001B681B7813F0200977D020682EF0A8
:1042E00060F900286ED020682EF05BF982460998AC
:1042F00020F0DCFD064650460F4620F0D7FD024672
:104300000B4649A1D1E9000120F074FF02460B469B
:104310003046394620F08EFC21F054F809904FF0D9
:10432000010A20682EF059F99DF8133000284FD06B
:10433000981DC00020F0CAFD3DA3D3E9002320F062
:104340002FFE41EC180B20682EF047F903900998D6
:1043500020F0ACFD039B064618460F4620F0A6FD54
:1043600002460B4651EC180B20F044FF02460B4668
:104370003046394620F05EFC21F024F80990DBF845
:1043800000202068966991796EBBD8F80030DB0672
:1043900024D5099B92F8202003F5FA7309932C4B3E
:1043A0009A702C4A1278DA70524600952DF073FEFE
:1043B00048BB0146252006F0C5FE0BB0BDEC028BC4
:1043C000BDE8F08F099BC0330993A8E7CA46A8E768
:1043D0000998063300EB43130993D0E72B46524666
:1043E0002DF043FEE4E7D36952463344059300239E
:1043F000ADF81830184B0195009305AB2DF056FE23
:1044000001460028D6D0B9F1000118BF01212620AD
:1044100006F098FE4FF4805006F072FE24F00EFB7A
:10442000CBE700BFAFF300800000000060E366410F
:104430000000000080842E414C4903009C4D030085
:10444000164703003A49030090860020EC4B030016
:10445000640B0020740C0020580B00209486002070
:1044600064930020000000008D4B2DE9F0411C6892
:1044700014F0010440F00B818A4F8B4BDFF8AC82C3
:10448000C7E9003407F11003BB6041F60B2340225B
:104490007F218648A8F80430C8F800402FF0DFFBE1
:1044A0004FF07F32824B214638461A6017F080FC6D
:1044B000054630B940F21F417E4B7F4A7F4821F0CC
:1044C000A3FB4FF001112EF048FA20B140F2274132
:1044D0007B4B794AF2E7022128462EF043F820B1BF
:1044E00040F22A41764B744AE8E72846754918F0AD
:1044F0003FFE20B140F22D41714B6F4ADEE70121B2
:1045000028462EF0FEFB20B140F232416C4B6A4A45
:10451000D4E7012128462EF00BFC064620B140F2DC
:104520003541674B644AC9E70146E02266482FF0EF
:1045300096FB80233246284607F111012EF08BFAB4
:10454000802804D040F23C41604B5B4AB6E7604FA4
:1045500001202DF085FD50A3D3E900234FF0FF305B
:104560004FF0FF313D6006F03BFD3146404606F01E
:1045700033FC0121084606F0A3FC012138682DF028
:104580003FFF20B140F2CC414D4B524A96E74FF4E9
:104590000862214650482FF062FB234622464F49CD
:1045A0004F4DE8188833B3F5086F8A8041F8280B1F
:1045B000F7D14C4B4C499A8019604FF000014B4B9E
:1045C0006FF063009A804A4A1A604A4A11704A4A58
:1045D0005A6109F0DBFE0B2006F006FB474B186022
:1045E00020B940F2E441464B3A4A67E702F0A8FBA3
:1045F000002006F025FD0822386811462EF086F8C6
:1046000020B140F2E9413F4B324A57E722F0A2FE87
:10461000054622F0BBFE08B145F40035284622F0DD
:104620009BFE06F061FC22F0A8FE002814BF224683
:104630000822082138682EF069F820B140F64C5164
:10464000314B324A3AE7324B1B78C3B90022002380
:1046500041F20D012F4806F0C3FC002007F0D8FE00
:1046600000222D4B2D481A702D4B2E4ABDE8F041EB
:104670001A602D4A5A60FF221A8125F0FEB822F0F6
:104680007CFE0028E2D041F20D03224AE0E7BDE8BB
:10469000F08100BFAFF300800BE020FFE2030000D9
:1046A000948600206C890020E5B20000A0AF0020B5
:1046B0007EAF0020494A0300E14C03001647030087
:1046C000FF440300EC4D0300048A0020584A030015
:1046D000908600207A4D0300E48A0020F02A002012
:1046E000EC8A0020C82A0020E1AF0020702D0020B5
:1046F00066B0002060B00020982D0020008A0020C5
:10470000904A0300AB4A03002F4B03006D4C03009B
:10471000750C0020C00D030084AF0020D54B0300B2
:1047200060890020A0860020C002FF00988600203B
:10473000002370B5404C05468AB0E36318B1008889
:10474000236014F0C1FE3D482DF0F9FE3C4E3D4B78
:10475000304633603C4B736014F0FAFE0021304663
:1047600017F026FB32A3D3E90023A062C4E9062395
:1047700022F0EAFDD4E90623194310434FF0FF333A
:10478000C4E90601CDE900014FF0FF32A06A2DF027
:10479000A2FF02224FF0FF31A06A2DF0B7FF0120E7
:1047A00014F0FAFA4FF4007300222849A06A2EF0A0
:1047B00052F9B0F5007F38D100239422CDE90733B8
:1047C00009933C23CDE9033205939623A06A03A9FC
:1047D000069317F049FF35B3287C14F077FF0546A0
:1047E000F0B9A06A2EF0F4FA14F018FF14F0B6FA3B
:1047F00020B14FF4807000210FF0C6F914F0BEFA1A
:1048000020B14FF4006000210FF0BEF92CF04DFBF9
:1048100001202DF025FC0E4A0E49A06A02F0AEF8E8
:1048200028460AB070BDFF20D7E70725F8E700BF8C
:104830000DD501552000000020540020690345ECEF
:1048400020A60020358C010014A6002014A400200E
:10485000F31103003312030010B5054C237833B96C
:10486000044B13B1044800E000BF0123237010BDC6
:104870004859002000000000E48A030008B5034BFB
:104880001BB10349034800E000BF08BD0000000061
:104890004C590020E48A0300A3F5803A704700BF1A
:1048A000174B002B08BF134B9D46FFF7F5FF002168
:1048B0008B460F461348144A121A2FF0D0F90E4BAC
:1048C000002B00D098470D4B002B00D098470020BC
:1048D000002104000D000D48002802D00C4800E023
:1048E00000BF21F0DBF92000290022F070FA21F04E
:1048F000AFF900BF00000800000000000000000049
:10490000C00A00203C0E002018B400200000000067
:1049100000000000014B1868704700BF6459002078
:1049200008B524F05AFF054B186028B93F21044B05
:10493000044A054821F068F908BD00BF6459002009
:10494000484103005B41030052410300014B1868DA
:1049500007F032BF6459002010B50446074B1868B1
:10496000204001D002F0D2F8054B1868204003D057
:10497000BDE8104022F009BD10BD00BFFC0A0020B8
:10498000000B002013B515F06BF8044668BB4FF41C
:10499000005015F03FF8032012F01EFD2CF077FCBC
:1049A00028F010FB10F0F0F929F0FAFE2BF0C0F817
:1049B00028F07BFF10F0BEFF2246032104202CF0DC
:1049C00064FC14F0B5FD6B46094A92E8030083E8E5
:1049D0000300184602F0AEF82CF035FC0321042049
:1049E00002B0BDE810400DF0E1BC02B010BD00BF48
:1049F0007441030010B51E4C22F085FB236F23F099
:104A0000070343F00203236722F084FBD4F820312C
:104A1000002023F0070343F00103C4F82031D4F849
:104A2000403123F0030343F00203C4F84031D4F8CB
:104A3000603123F0030343F00203C4F86031D4F87B
:104A4000403223F0030343F00203C4F84032D4F8A9
:104A5000003223F0070343F00203C4F80032D4F815
:104A6000083223F0070343F00203C4F8083210BDF4
:104A70000080005007B501A801F0A6FC9DF80530A4
:104A8000012B27D1234A936DDB0313D4536B23F4FB
:104A9000FF0323F4FE4343F4BC1343F4A0635363C6
:104AA000136B23F4704343F440431363136B43F4D9
:104AB000E06313639DF8043063B94FF000531B6843
:104AC000154B1B68154B1B68154B1B68154B1B685A
:104AD000154B1B68154AD2F8803043F00303C2F827
:104AE000803004F0E7FF22F0F6F904F0CDFF04F087
:104AF00089FF04F08FFFFFF77DFF04F071FF22F0C4
:104B0000E8F900F07BFA00F03FFD03B05DF804EB3C
:104B100007F0E2BE00C000500040002000800020EE
:104B200000C0002000000120004001200080005053
:104B3000014B1878704700BF3AAF002010B504460B
:104B400022F006FC30B9204618F050FB0123034A3E
:104B5000137010BD03230220F9E700BF3AAF002015
:104B600007B5082022F075FA02238DF80030054BB6
:104B70006846019322F0B0F9082003B05DF804EB19
:104B800022F073BA006A181008B500F02DF8124B25
:104B900012498B4212D30020114B12498B4218D379
:104BA000FFF77EFE186850F82240586840F822400F
:104BB000013298688242F5D30C33EAE70022F8E725
:104BC0001C6844F8220001325C68A242F8D3083322
:104BD000E4E70022F8E700BFEC8A0300F88A03004C
:104BE000F88A0300F88A03006FF00100104B114AA5
:104BF00010B59A60D3F888200F4942F47002C3F8C8
:104C0000882001F50052106641F2FF7050660220C4
:104C1000C3F8D000BFF34F8FBFF36F8F08244FF45A
:104C200040330648C0F88041D36004600B6110BD7A
:104C300000ED00E0004000000080004400E100E0E2
:104C4000014B1868704700BFC40A0020014B186070
:104C5000704700BFC40A0020084B1B6F03F0070316
:104C6000022B04D0032B05D0012B05D0FEE7044B0B
:104C700018687047034BFBE70348704700800050FB
:104C8000C40A0020C80A0020002D310108B5FFF732
:104C9000E3FF054B1B6FC3F301330133B0FBF3F0AC
:104CA000024B186008BD00BF00800050C00A002001
:104CB0000048704700B4C404014B1868704700BF37
:104CC000C80A0020054B1860054B1B6F03F0070353
:104CD000032B01D1FFF7DABF704700BFC80A0020DD
:104CE0000080005000487047002D3101174B986834
:104CF000C0F304400C2822D8DFE800F0092121216C
:104D00002121071719211B1D1F00114870479B689F
:104D100003F04073B3F1807F13D0B3F1007F12D062
:104D20000C4A002B08BF104670470B4870470B48D1
:104D300070470B4870470B4870470B48704700207E
:104D400070470A4870470A48704700BF0040015A40
:104D5000405DC60000093D000024F400C0EA2101C6
:104D600080BA8C010048E801005A620280841E006B
:104D700040420F00014B1868704700BFCC0A00206A
:104D8000BFF34F8F0549064BCA6802F4E062134334
:104D9000CB60BFF34F8F00BFFDE700BF00ED00E029
:104DA0000400FA0500239B6AB3F5804F03D219680B
:104DB000064A914203D000230370836070470122AA
:104DC00002709A689B694260F7E700BF07B0CD5E4A
:104DD00008B54FF00053024A1A60FFF7D1FF00BF39
:104DE00002020FF073B5494B04461A781AB1022239
:104DF0001A7002B070BDCDE900220028F9D001265A
:104E00001E7022F098F9424D424B18601CF0ECFAEB
:104E10002B785BB900F0B8FB40B93F4808233F4A04
:104E20003F49006816F0F0FB00B92E703D4B5A6800
:104E3000E2603D4A9A601A6E22605A6E6260D3F850
:104E40007021A2601B6E5C0440D5384AD368D80735
:104E5000FCD4374B1A68531C3DD04FF48013934059
:104E6000344A13660423334C23664FF4806323666D
:104E700022F086F801300ED022F082F840F20113C1
:104E8000984208D04FF4804323664FF400432366D2
:104E90001023C4F870311023264C4FF08042236653
:104EA0004FF400536846236601A92266636622F028
:104EB0004CF8009B2366019B63662B78002B98D0EF
:104EC000164B1A6822665B68636692E71A4AD368D3
:104ED000D907FCD4BDE7194B1B78002BC2D1184B66
:104EE0005A68144B12B94FF480121A66154A526868
:104EF00012B94FF400121A66134B5B68002BB1D144
:104F00004FF480020B4B1A66ACE700BF3DAF0020A8
:104F10003BAF002080590020D80A0020785900209B
:104F2000007108000080004455CEAC000000044031
:104F3000D00A002000900044000004503CAF002044
:104F40000080055000C005500000065038B5224DC5
:104F500004462B78012B02D001232B7038BD00288A
:104F6000FCD022F00DF8013009D022F009F840F20F
:104F70000113984203D0194AD368DB07FCD4226896
:104F8000174B1A6662685A66A268C3F87021E26815
:104F9000D40744BF00229A60124B1A68013213D121
:104FA000114A127882B911494968C80748BF1A6086
:104FB0000F4A5268D10744BF01221A600D4A526855
:104FC000D20744BF02221A601CF016FA0A4B186876
:104FD00022F0B7F80023C0E73DAF002000000440F6
:104FE00000800044D00A00203CAF00200080055023
:104FF00000C00550000006508059002070B5002404
:10500000A36AB3F5804F22D21A68124B9A421ED17E
:10501000114E337813F0FD0517D11048FFF7E2FE6B
:1050200008214FF480330E4A0E48C2F88011C36045
:1050300011600D4A1361AB6ADB6998470446074863
:10504000FFF784FF0CB901233370204670BD4FF485
:105050008174FAE707B0CD5E3CAF002068590020AC
:1050600000E100E000A000440090004413B51F4B95
:105070001B7803B9FEE700231D4CCDE900336A46D7
:1050800008231C49206816F0BFFAF0B91A4AD2F872
:105090004031D2F840211F2B4FF0010310D9203AA4
:1050A0009340019A1343019308236A4611492068EB
:1050B00016F060FA4FF00053104A1A60FFF760FED6
:1050C0009340009A13430093EEE70D4B9842F1D1C1
:1050D000094AD2F84031D2F840211F2B4FF001038A
:1050E00002D9203A9340DEE79340ECE73DAF002041
:1050F000D80A002000710800008000440B020FF065
:105100000BE000F005490A681318054883428CBF7C
:105110004FF0FF320B601046704700BFD40A0020EA
:105120000080012008B5032101230422002000F0A3
:1051300075FF002022F019F80122244B0C20C3F83F
:105140004424234AD2F8803043F00303C2F880306D
:1051500000F086FC1F4B00F5D520D3F8F02000F2BC
:10516000FC4042F00102C3F8F020D3F8FC2042F0EA
:105170008072C3F8FC20184AA3F55D431A60174BF0
:105180000222B0FBF3F0164B01381861C3F8F0208F
:105190004FF48072C3F804234FF06043114A00209B
:1051A000C3F8B02F104AC3F8802ED3F8002E42F473
:1051B0008072C3F8002EFF2283F82020D3F8002E3F
:1051C00022F48072C3F8002E08BD00BF00D0035047
:1051D0000080005000ED00E0FF030040F8590D0092
:1051E000000004E055CEACC5090001004FF060435B
:1051F000D3F8802E30B5D20715D501240B4D84404D
:10520000D5F8FC2042F08072C5F8FC20D3F8002EBF
:105210002243C3F8002E53F82020002AF0D003F8D0
:105220002010002030BD1120FCE700BF00ED00E0A1
:1052300038B5124B05461B78DBB1E0B121F07BFF9E
:105240000F4A00231146147B54B92B6001251A0123
:1052500001EB03131D738C5021F073FF204638BD02
:105260000133082B02F11002EDD121F06AFF05484D
:10527000F5E70548F3E70548F1E700BF3EAF00203A
:1052800084590020048000F0028000F0018000F0CA
:105290000D4B10B51B78044693B1072812D821F0A6
:1052A0004AFF0A4B03EB04131A7B2AB100241C7338
:1052B00021F047FF204610BD21F043FF0448FAE7E4
:1052C0000448F8E70448F6E73EAF00208459002080
:1052D000068000F0028000F0018000F0154B13B54D
:1052E0001868002301908DF8043021F024FF124B40
:1052F0001C7824B121F025FF104802B010BD012216
:105300001A7021F01EFF0E4B01A81C731C7783F846
:105310002C4083F83C4083F84C4083F85C4083F891
:105320006C4083F87C4008238DF8073000F0CCFEF9
:105330002046E2E7CC4103003EAF0020038000F0AE
:1053400084590020F8B50D4D2D7885B1072810DC63
:105350000B4D060105EB0014277B67B1AB5100250F
:10536000069BA560636000F0D9FE2846F8BD05489D
:10537000FCE70548FAE70548F8E700BF3EAF002024
:1053800084590020028000F0018000F0078000F0C6
:105390000A4A08B5127852B107280AD8084A02EB1F
:1053A00000131B7B3BB100F007FF002008BD054840
:1053B000FCE70548FAE70548F8E700BF3EAF0020E4
:1053C00084590020028000F0018000F0078000F086
:1053D000204B2DE9F0471F6D5A6D1F4C174010D51B
:1053E0004FF000411D4A1165D868C0F30420030145
:1053F000E35804EB00125BB3BDE8F04700215268AC
:10540000184701260025DFF85480DFF85490374212
:1054100017D02368C8F850609BB1A16828460131B5
:105420006268A1609847637B012B0AD148B909EBF8
:1054300045131A7B60F341021A731A7F60F341022D
:105440001A770135082D4FEA460604F11004DED123
:10545000BDE8F0870000045084590020002004506B
:10546000045A002070B5044601250B4E04B970BDE6
:1054700094FAA4F0B0FA80F005FA00F306EB0012FB
:1054800024EA03045368002BF0D0117B11B191681A
:105490009847EBE79847E9E7045B002008B5192037
:1054A00000F060FD28B14FF00072074BC3F8802177
:1054B0001A601A2000F056FD28B14FF08062024BAE
:1054C000C3F880211A6008BD00E100E038B5054648
:1054D0000C4621F030FE0022044B03EB05135C6008
:1054E0001A73BDE8384021F02CBE00BF045B0020D9
:1054F000F8B505460F46164621F01DFE104B05F087
:10550000FC02D3F824140023EC1804F00304144321
:1055100021FA04FC1CF0010F07D00133042BF3D156
:10552000FF2421F00EFE2046F8BDFF2CF9D0012209
:10553000044B03EB0413C3E901761A73F1E700BFD0
:1055400000C00350045B0020064BD3F82404D3F8BA
:10555000202403F50053104000F05530C3F8200418
:10556000FFF780BF00C00350064BD3F82404D3F8E4
:10557000202403F50053104000F0AA30C3F82004A3
:10558000FFF770BF00C00350024B1968024B186848
:1055900015F01ABFDC0A0020D80A002037B59200A7
:1055A00004460D4601922EF0C7FD431C0BD060B996
:1055B00029462046019A2EF01BFB0028044808BF0C
:1055C000002003B030BD0348FBE70348F9E700BF04
:1055D00010E000F021E000F024E000F010B50446F7
:1055E0002EF0A2FD431C10D088B900F001FF234625
:1055F00020F003002044984201D1002010BD53F850
:10560000042B0132F7D00348F8E70348F6E70348D4
:10561000F4E700BF0EE000F021E000F024E000F02D
:1056200008B521F081FD014B186008BD44630020DE
:10563000014B186821F07CBD44630020054B5B6979
:10564000DB0605D51022044B5A610122034B1A7068
:10565000704700BF0080045000A004503FAF0020FE
:1056600041F6713310B5104C104AA0428CBF4FF474
:1056700080140024D169D363936801F4803123F44A
:105680004013234393600A4B98420A4BD3F81822E5
:105690008CBF42F0020222F00202C3F8182211B1BC
:1056A0000022024BDA6310BD005A62020000035070
:1056B00080F0FA0200C007502E4B98424AD022D800
:1056C0002D4B984240D014D82C4B984239D00AD850
:1056D0002B4B984232D02B4B98422FD02A4B9842DA
:1056E0002CD000207047294B9842FAD1284B186FD4
:1056F0007047284B98422AD0274B9842F1D1244B2F
:10570000D3F880007047254B98422BD009D8244B02
:10571000984223D0234B9842E3D11D4BD3F88C0001
:105720007047214B984221D003F5740303F51053C1
:105730009842D6D1164BD3F898007047144B986D09
:105740007047134B586E7047114B586F7047104B92
:10575000986F70470E4BD3F8840070470C4BD3F80A
:10576000880070470A4BD3F890007047084BD3F875
:10577000940070470048E8010024F400C0CF6A009C
:1057800080841E0000093D0040420F00405DC600BD
:105790000080E00FC0EA210180BA8C01007E560330
:1057A00080D54302006CDC020090D00338B5134B67
:1057B0000546D3F820010C4600F00700042804D861
:1057C000DFE800F01A0A0E1216000023184605B191
:1057D000286004B1236038BDFFF732FA0423F6E7EE
:1057E000FFF76AFA0323F2E7FFF780FA0523EEE7F3
:1057F000FFF778FA0223EAE70123E8E70080005088
:1058000037B50C460021124A0191D2F88021054695
:1058100002F00302022A0ED0032A11D0012A14D169
:1058200001A8FFF7C3FF0D230DB1019A2A6004B14F
:10583000236003B030BDFFF759FA05230190F3E769
:10584000FFF750FA02230190EEE70B46ECE700BFAA
:105850000080005038B5104B0546D3F840310C4657
:1058600003F00303022B0BD0032B0DD0012B0FD120
:1058700021F065FB082305B1286004B1236038BD21
:10588000FFF778FA0723F6E721F05CFB0923F2E73C
:1058900001230020EFE700BF0080005038B5104B17
:1058A0000546D3F860310C4603F00303022B0BD0FE
:1058B000032B0DD0012B0FD121F041FB082305B1A3
:1058C000286004B1236038BDFFF754FA0723F6E7D8
:1058D00021F038FB0923F2E701230020EFE700BFA6
:1058E0000080005038B5144B0546D3F800020C4632
:1058F00000F00700042804D8DFE800F01B0A0E12AD
:1059000016000023184605B1286004B1236038BD95
:1059100021F015FB0823F6E7FFF72CFA0723F2E73F
:1059200021F010FB0923EEE7FFF7B0F90C23800A02
:10593000E9E70123E7E700BF0080005038B5144BCA
:105940000546D3F808020C4600F00700042804D8E6
:10595000DFE800F01B0A0E1216000023184605B1FE
:10596000286004B1236038BD21F0E9FA0823F6E786
:10597000FFF700FA0723F2E721F0E4FA0923EEE744
:10598000FFF784F90C23800AE9E70123E7E700BF6A
:105990000080005038B5104B0546D3F840320C4615
:1059A00003F00303022B0BD0032B0DD0012B0FD1DF
:1059B00021F0C5FA082305B1286004B1236038BD81
:1059C000FFF7D8F90723F6E721F0BCFA0923F2E73D
:1059D00000231846EFE700BF0080005038B5104B99
:1059E0000546D3F800310C4603F00303022B0BD01D
:1059F000032B0DD0012B0FD1FFF75EF9032305B167
:105A0000286004B1236038BDFFF7B4F90723F6E737
:105A100021F093FA0623F2E701230020EFE700BF0D
:105A200000800050032814D005D8012805D0022892
:105A300009D0002005E00F28FBD1084B186FC0F3F8
:105A4000013001307047054BD3F89000C0F304607B
:105A5000F7E7024B186FC0F38020F2E70080005098
:105A60001FB500230193252817D8DFE800F0131A8B
:105A70001D262B353A50555A5F646977161A3F1622
:105A800016551A262B26351A5026773A3A3A3A26D0
:105A900026265A5FFFF7E0F80190019805B05DF8FF
:105AA00004FBFFF7F3F8F7E7FFF7D6F8024602200A
:105AB000FFF7B8FFB2FBF0F0EEE7FFF7E7F80246BA
:105AC0000320F5E7FFF7E2F802460320FFF7AAFFFD
:105AD000B2FBF0F04008DFE7002101A8FFF790FEDD
:105AE000DBE7002101A8FFF761FED6E702934FF044
:105AF000E0231B695B0705D5FFF7C8F80290029BFE
:105B00000193CAE703A902A8FFF7A4FEF7E7002163
:105B100001A8FFF79FFEC0E7002101A8FFF7BEFE26
:105B2000BBE7002101A8FFF7DDFEB6E7002101A8D1
:105B3000FFF704FFB1E7002101A8FFF74FFFACE733
:105B4000094BD3F8803003F00303022BA9D0032BB9
:105B500001D00020A0E7FFF7C9F89DE7002101A8C8
:105B6000FFF718FF99E700BF0080005008B501203B
:105B7000FFF776FFBDE80840034988428CBF022149
:105B80000121032000F002B880F0FA02032810B5CA
:105B90000C4627D004D8012804D0022817D010BD05
:105BA0000F28FCD121F0A3FA21F0A9FA124B013CF5
:105BB000196F21F4405141EA04341C67FFF766F87D
:105BC0000021FFF74DFDBDE81040FFF7CFBF0A4BA6
:105BD000013CD3F8901021F0F85141EA0464C3F875
:105BE0009040DCE7044B013C196F21F4806141EAED
:105BF00084241C67D3E700BF008000501FB500233A
:105C00000193252821D8DFE800F013202020202A46
:105C10002F454A4F54595E7120203420204A2020BD
:105C200020202A204520712F2F2F2F2020204F5455
:105C3000314B1B6F03F00703013B032B05D8DFE853
:105C400003F00C02080A04230193019805B05DF8E3
:105C500004FB0323F8E70623F6E70223F4E700201A
:105C600001A9FFF7CDFDF0E7002001A9FFF79EFD98
:105C7000EBE702934FF0E0231B695B0705D5FFF7C5
:105C800005F80B230393039BDEE703A902A8FFF7A4
:105C9000E1FDF8E7002001A9FFF7DCFDD5E70020D2
:105CA00001A9FFF7FBFDD0E7002001A9FFF71AFECD
:105CB000CBE7002001A9FFF741FEC6E7002001A9BC
:105CC000FFF78CFEC1E70C4BD3F8803003F00303E1
:105CD000022B03D0032B05D00023B5E7FEF7D6FF38
:105CE0000B23B1E7FFF702F80523ADE7002001A978
:105CF000FFF750FEA9E700BF0080005038B5054609
:105D0000FFF7DAFC214B04465A68012A04D12049E6
:105D10004A609A699207FCD10020FFF76FFF0428C0
:105D200003D121F0E4F921F0EAF91A4A24F0407392
:105D3000954221D0184A954221D0184AD16811F0D5
:105D4000060FFBD190689360916803F4F81301F497
:105D5000F8118B4216D12846FEF778FF0020FFF796
:105D60004DFF042810D1FEF791FF0021FFF778FCCA
:105D7000BDE83840FFF7FABE43F00073DDE743F0BB
:105D80008073DAE79060E9E738BD00BF00C00150DA
:105D900000E0015040420F0080841E0000000150CE
:105DA00070B504460020FFF729FF03287CD045F694
:105DB0000E030221414AC2F88030414B9962012111
:105DC00003F580539962936DD903FCD4D4E9001391
:105DD0001B0543EA0163E17B94F822500B43217BCE
:105DE00094F8236043EA0143617B43EA0133A17BDA
:105DF00043EA811313619169D4E904031B0643EA62
:105E0000806301F000410B43A17EE07E0B43217EC5
:105E100043EA0143617E43EA01239361136AE26925
:105E200023F00D03002A0CBF0021082143EA0203DE
:105E300043EA8003214A43EA0103136294F82030C5
:105E40004FEA431331D1906A94F8211020F03300C7
:105E500043EA0113034343F001039362194B916D2D
:105E600033EA0101FBD10221154B9962936D5B006E
:105E7000FCD41069A36820F4700040EA035010615C
:105E80004FF000420E4B9A611DB9022203F5805378
:105E90009A6216B901220C4B9A6294F824301BB115
:105EA000064B0A4AC3F8802070BD916A21F0330185
:105EB00031430B4343EA45039362EEE700C00050D1
:105EC00000D000500300014000E00050F1A7FFFFA8
:105ED000014B93F90000704740AF0020F0B5D0E9C6
:105EE00001434FF4D1560227164A4178057856628D
:105EF000154E4F2977604FF0010728BF4F2106F557
:105F0000805677601669F603FCD441EA0521516199
:105F10001B01417B43EA04230B43017B43EA41031A
:105F20009360C37B817B1B0143EA4113417C0B439C
:105F3000017C43EA41035360837C13B16FF4D15376
:105F40005362F0BD0000025000100250014B188057
:105F5000704700BF5E0C0020014B1880704700BFE7
:105F60005C0C0020054B420953F8223000F01F0062
:105F700023FA00F0C04300F00100704700E100E0A8
:105F8000034A0179D36E23F030030B43D366704785
:105F900000400050072AF7B50D4614461F460FD89B
:105FA00003219600B14000FA06F21548019121F054
:105FB000CBF805F0030201991248B24021F0C4F871
:105FC000114B12499DF82000002F08BF19460123EC
:105FD00003FA04F40C600E4B0E49002808BF0B4670
:105FE0001C600D4B9DF82400C3F820441031A3F62B
:105FF000DC33002808BF0B461C6003B0F0BD00BFB7
:1060000000C4035008C4035010E4035010D40350DC
:1060100014D4035014E4035000E00350F8B50446D0
:106020000D461F4616464AB101238B403021194ABE
:1060300001FB0022FFB141F21001535004EB440375
:10604000072D4FF00F014FEA031317D8A80006FAE7
:1060500000F281401048184421F076F856B9012129
:1060600030230C4801FA05F503FB040077B141F237
:106070001003C550F8BD42F21001DEE7A5F108009B
:10608000800006FA00F281400448E4E742F210037F
:10609000EFE700BF00C0035004C003500CC0035022
:1060A0003022084B072995BF02FB003002FB00336A
:1060B0004068D86888BF0839890020FA01F101F0EA
:1060C0000F00704700C0035030B5047845788178E0
:1060D000C27801200F4B41EA0541240658609C60BC
:1060E0009961FF2199620021996319644FF0004181
:1060F00059654FF0FF314FF4001003F50053196557
:1061000005491301DBB2C1F8800181F8153308603D
:1061100030BD00BF0000045000E100E02DE9F04177
:1061200001250C46C3B2DFF888E0D1F800809D401D
:106130008F7ACB7A94F80DC0097BCEF850500EF5CB
:10614000005E4EF820804FF0300E184E1B050EFBFF
:10615000006043EA074343EA415322F00302C0F8D8
:1061600060C0C365026720F0E6FF736D2B43736563
:10617000237A13B1336C2B433364637A13B1B36B5B
:106180002B43B3632279A37943EA0243084A93611C
:106190006179E37943EA014306498B61034B556317
:1061A0009D64BDE8F04120F0CCBF00BF000004506A
:1061B000002004500010045010B50124C0B28440E7
:1061C00020F0B9FF044B5A6D22EA04025A659C6222
:1061D000BDE8104020F0B5BF0000045010B5012408
:1061E000C0B2844020F0A7FF074BDA6A224209D1EF
:1061F0005B6B34EA03030CBF0124002420F0A1FFF1
:10620000204610BD0024F9E70000045041F6713229
:10621000034BDA63012203F50053DA60704700BFD5
:106220000000035041F671320121044BDA6303F59B
:106230000052D1600022DA63704700BF00000350B3
:10624000013825289ABF024B185C0020704700BF18
:10625000F44103002338032803D804299CBF024BD0
:10626000595C0846704700BF1A420300021E30B551
:106270004FF000000CBF0C25042547F607740849B1
:1062800052B9831D51F82330234023B10130854298
:10629000F6D14FF0FF3030BD00F11203F2E700BF3E
:1062A0000080035038B5C2F30625044602F0070209
:1062B00041B90C4B42EA052242F44022063443F82D
:1062C000242038BD11462846FFF7C4FF0146284662
:1062D000FFF7B6FF034B41EA0020123443F82400D5
:1062E000EFE700BF00800350014BD3F894007047E4
:1062F00000400050CB784A7810B55B010C7843EA37
:1063000082030A79234343EA02130C22424302F137
:10631000B0421363012C02BF8A78024B43F820205D
:1063200010BD00BFD080035008B54FF0B0435A688D
:1063300002B960B15B680BB120F02FFF4FF0B041A4
:1063400030B10120074B586020F027FFC86008BD1E
:1063500020F023FF0223CB6020F01FFF0122024B1D
:106360005A60F4E700100058002000584FF0B04386
:106370005B6870B50BB120F010FF0121104B457820
:10638000596083780679002BC37814BF0224002457
:10639000002B14BF042200224379DB0043EA0613DA
:1063A0002B43234313434FF0B0429360054B596096
:1063B0000378002B14BF0B460223D36070BD00BFCF
:1063C0000020005800100058054B5B69C3F385128C
:1063D000827003F03F021B0B42700370704700BFD6
:1063E00000C00750014B986CD96C70470080E00FDB
:1063F0000120034B9B680A3303F01F03984070474A
:106400000080E00F0D4B984208D1A3F50033C3F88C
:106410008411C36D43F08003C3657047084B9842F5
:1064200004D1A3F51033C3F89411F2E7054B984259
:1064300004BFA3F52033C3F8A411EAE70080055098
:1064400000C005500000065070B5054616461C46B3
:1064500019B90320FFF704FB0146402C1BD003D8D9
:10646000DCB1202C1BD070BD602CFCD1042303FBBD
:1064700006F2560806EB4113B3FBF2F3094A203B40
:1064800002EAC303AA6822F06002AA60AA68144361
:10649000AC60EB61E7E70623E9E71023E7E70823B1
:1064A000E5E700BFF8FF7F00012200F5805310B53B
:1064B0005A6040F6AA6341F2050243610023124983
:1064C0008360C365C26000F500520361C361C364A9
:1064D00091640E498365884206D00D4CA04203D0DA
:1064E00004F58044A0420BD18842036506D0084BD6
:1064F000984203D003F58043984201D100234365BD
:106500000123536010BD00BFFFFF01000080055054
:1065100000C0055070B50D46FFF7C6FF012300F51A
:1065200080567360AB7C04461BB1836843F08043A4
:106530008360EB7C1BB12046297DFFF763FF2A8A2D
:106540006B7B20461343EA891343E3602B7BD5E939
:106550000112FFF779FF6B7D1BB1A36843F4803311
:10656000A360AB7D1BB1A36843F40043A360EB7D44
:106570002A7E1B07120502F4E00203F0E0431343F6
:10658000A3656A7E931E012B214B20D89C421AD012
:1065900003F580439C4218D003F580439C420CBF16
:1065A00002234FF0FF3341F2AC5102205B0103F1B3
:1065B000A04303F570335850032A23D10423F36515
:1065C0002B78636170BD0023EDE70123EBE79C426C
:1065D00014D0104B9C4213D003F580439C420CBF57
:1065E00002234FF0FF3342F2AC5102205B0103F172
:1065F000A04303F570335850012ADEE70023F2E789
:106600000123F0E7042204F50053DA65D8E700BF60
:106610000080055000C0055073B50F4D04462B781F
:10662000ABB100210D4B1E680D4B0E481A6800F0EF
:1066300079F82B78012283F001032B700023314677
:1066400000932046084B2BF00CFD02B070BD074BA9
:106650001978074B1E68E7E744AF0020F863002075
:106660000C640020006400201966000041AF002087
:10667000FC630020642A70B50D46144630D8194ECC
:106680007270B37030700BB102B148B916482BF07C
:10669000EAFC2A460021154800F044F8012070BDAC
:1066A000642A05D110482BF0DEFC2A463178F2E747
:1066B0000F4A1048116000220F490A7014FB03F1C1
:1066C00001EB81010160C4F1640103FB01F40B4B98
:1066D00004EB8404114604481C60FFF79DFFDDE7CE
:1066E0000020DCE741AF002010640020006400209F
:1066F0000C640020FC63002044AF0020F8630020FD
:10670000014B1860704700BF34640020014B1860D3
:10671000704700BF3C640020014B1860704700BF09
:10672000386400201FB5094B1B6863B140B101906C
:106730008DF80810184601A9039220F0EBFD012006
:1067400005B05DF804FB1846FAE700BF4864002076
:10675000104A10B593689060434003F4806413F4CA
:10676000007314D00C4A106818B14CB10B4A106871
:1067700020B910BD094B1B68984706E0002BF9D0E3
:10678000054B1B689847002CF4D10120F1E7002C41
:10679000ECD1FAE728640020446400204064002023
:1067A000014B9868704700BF2864002040B1827A8E
:1067B000FF2A05D00123934019B1034AC2F82034BF
:1067C0007047024AFAE700BF00D0035000E00350D0
:1067D000F7B50D461646044690B3807A91B3FF286C
:1067E000257E07D00023CDE900330246617A207A66
:1067F000FFF7D0FB0EB10023337000222169607ACD
:10680000FEF776FE0126C2B2164B06FA02F1A2721C
:10681000C3F820144FF4A063636002F00703236001
:10682000E37AC5F34007207A617AC5F3800513B98E
:106830002B463D461F463B46CDE90056FFF7AAFBD7
:1068400003B0F0BDFF28FBD00123064A8340C2F805
:106850002434C2F82034FEF739FEFF23C4E9005582
:10686000A372EDE700E0035010B580B10122437A36
:10687000047A9A40C37A8B424FF03001044B01FBFB
:1068800004330CBF41F2100142F210015A5010BD06
:1068900000C003500F4A104B117821B90F49096C01
:1068A000198001211170B3F900201888002AB8BF9F
:1068B00080F06200B3F9021042001A805A88002961
:1068C000BCBF82F4805282F00B02510059805040CC
:1068D000704700BF46AF0020F0AD00200080E00F01
:1068E00008B5114B1A78EAB9012210481A70FFF75F
:1068F00007FF20F0A4FC1920FFF734FB60B1FEF77E
:10690000CDFD01202BF0ACFB0948FFF7FFFEBDE8F1
:1069100008400848FFF700BF1A20FFF723FB0028B4
:10692000EDD1EEE708BD00BF45AF002020420300D7
:106930000373020059490000054B1A7E0AB1013069
:10694000C0B253F82020013243F82020704700BF26
:106950004C64002008B5084B5B7E5BB150B94FF02A
:10696000FF3015F0A3FA052804D1BDE80840042043
:10697000FFF7E2BF08BD00BF4C640020064B70B5B6
:1069800006460D4614460021582218462DF067F998
:10699000C0E90965C46270BD6864002070B51E4618
:1069A0005306154615D5114A1479937814F002044C
:1069B00004D054799C4234BF0024012492799A4235
:1069C00012D3002C14BF0321012100220848FFF735
:1069D000A9FE084B1D4204D0002205481146FFF7CE
:1069E000A1FE2846314670BD0021EEE76864002014
:1069F000A864002009500100C20570B504460D4688
:106A000009D511F4807618BF4FF48066FFF7C8FEF1
:106A10003043FFF79DFEA30508D5FFF7C1FE05F43F
:106A2000007620F400703043FFF792FE660506D52D
:106A3000264AC5F38023D17863F30001D170200585
:106A400006D5224AC5F3C023117963F341011171C0
:106A5000E10406D51D4AC5F30033117963F3000143
:106A60001171A20406D5194AC5F34033D17863F3F6
:106A70000411D17063041AD5144AC5F38033D07859
:106A8000002163F3C300D07010F0080018BF107924
:106A9000D3791CBF400000F002004FEA4303127A92
:106AA00018BF40F0800003F0FE03FFF7E3FDE3B200
:106AB00013B1064B83F83250240C240424B1034B49
:106AC000198E01EB15451D80012070BD6864002002
:106AD00070B5064620F030FC04460B4DFFF73AFF38
:106AE00084F00101686AC9B22BF0F9FE56B14CB9C5
:106AF000AB6A98472246214605F14000BDE8704048
:106B0000FFF710BE70BD00BF68640020084B10B5D1
:106B10005A6A044652B1820604D5D87800F00100C2
:106B2000FFF7D6FF630701D520F001FC10BD00BFC1
:106B30006864002037B50546104CC3882386FFF7EC
:106B4000CFFEEA88AB884FF6FF7013442380AF2353
:106B5000637142F2FF73E380142323722968FFF705
:106B60004BFF2020FFF7D2FF40220023606ACDE9CF
:106B700000232BF0B0FD03B030BD00BF68640020DF
:106B800038B50446054D2BF06EFE0FCC0FC594E8CA
:106B90000F0085E80F00002038BD00BFC064002052
:106BA00047F6FF739A42F0B566D0022966D8344D95
:106BB000CF0015F8313005EBC100012B847813D1DB
:106BC0000025C3781B1B9D4202D3E018C0B2F0BD64
:106BD000591B4668A3EB510136F911609642D4BFA8
:106BE0000D4601F1FF33EEE740680028EFD0B0F921
:106BF0000030934204DBB0F902309342B8BF134631
:106C000082883D44FF2A19BFC8214FF0280CB0F9F3
:106C10000610B0F908C0A1EB03020CBF0126002644
:106C200092FBFCF26D78324412B2954201DD002AEB
:106C300001DA6A1E12B24FF47A7700EBC206F188CD
:106C4000B668013213FB016112B221EAE1715C31D5
:106C50009542B1FBF7F104DD00EBC206B6888E4227
:106C6000EBD200EBC20232F8040C884228BF08467F
:106C7000A04238BF2046A9E7FF20A8E70020A6E7EA
:106C8000C06400200229F0B553D82B4800EBC104A2
:106C900010F83110636801290FD1E078A478904290
:106CA00094BFC4EB0001C4EB0201001BCAB28242D4
:106CB000C8BF002233F91200F0BD002B39D0A178F3
:106CC000914202D3B3F90200F6E7E178B3F900008C
:106CD0009142F1D999886478A1F1FF06013C714293
:106CE00003F10405E4B2714103F10C071FFA82FCC1
:106CF000CEB2B44216D805EBC1014FF47A756A439F
:106D0000B1F902404968521A04EBD47102EB6102F6
:106D100092FBF4F29042CFDBB3F902009042CBDC5D
:106D200010B2C9E737F831E04E1CE645E3D33146EF
:106D3000DEE70248C0E700BFC06400200080FFFF1C
:106D400008B50448FFF71CFFBDE8084001202BF000
:106D5000C4BD00BF3842030000487047600C0020EB
:106D600007B5FEF7BBFA084B984200D040B90021A6
:106D700001A8FEF75DFA18B99DF804002BF0E6FBB8
:106D800003B05DF804FB00BF038000F07FB5022272
:106D9000084B0949CDE901234FF00073CDE90313F6
:106DA000052301A94FF0FF3005932BF094FE07B0A7
:106DB0005DF804FB006A1800000204002DE9F843A6
:106DC00005F0A4FD0128074605D905F0D3FD061EF0
:106DD00002DA01241EE00026DFF8808098F80030F7
:106DE00003F0FF0493BB4FF05009194D05F1100358
:106DF0002846C5E90044AB60C5F80C9005F0D2FF09
:106E0000286650B90124012F04D9304605F0D4FD7D
:106E10000028DEDB2046BDE8F8830E4D214605F153
:106E200010032A460120C5E90044C5E9023906F0ED
:106E300079F828660028E5D03022074B83F8012333
:106E400002221A60012388F80030DCE70024DAE728
:106E500044650020E064002000E100E047AF00202E
:106E600008B505F053FD022809D1064B4FF0FF315C
:106E7000186E05F0D9FF003818BF012008BD0020AA
:106E8000F9E700BF4465002008B505F03FFD022882
:106E900007D1054B186E05F0F7FF003818BF012029
:106EA00008BD0020F9E700BF4465002008B54FF099
:106EB00098435B6CD90208D505F028FD02380128FB
:106EC00003D8094B186E06F0B9F84FF098435A6C86
:106ED000D202FCD55B6D054A03F4702313600222D5
:106EE000034BC3F8802108BDE0640020040B0020A0
:106EF00000E100E038B5054600283AD0FFF7B0FFC2
:106F00000446002836D1284620F06CF995F8203048
:106F100043B94FF098435A6CD202FCD55D6D05F42D
:106F200070251BE04FF09842936D43F00203936588
:106F300005F0ECFC02281AD1104B4FF0FF31186E0F
:106F400006F046F84FF09842936D23F002039365E4
:106F500090B94FF4A0220A4B1D681A60FFF794FF06
:106F600004463DB12846BDE8384020F033BA2046FB
:106F7000E8E72124204638BD0124FBE7E064002037
:106F8000040B00202DE9FF4700230E461746044658
:106F9000009300285BD00AB1002958D037F00308CD
:106FA00007F0030A25D04FF000094FF0E063C4E971
:106FB0000039012301962046029301A948F00053AD
:106FC000C4F80890C4F81C90039320F0F8F84146E8
:106FD000204620F0FEF82046FFF78CFF054640B122
:106FE0004246494630462CF03AFE284604B0BDE8F9
:106FF000F0874FF00009BAF1000F2AD04FF0E0639C
:10700000C4E900390123CDF804D00293124B204685
:1070100001A9C4F80890C4F81C90039320F0CFF89D
:107020000421204620F0D5F82046FFF763FF0546EF
:1070300008B13A46D5E7034600994644DA000133E1
:1070400021FA02F29A4506F8012BF7D1CDE7212566
:10705000CBE75546C9E700BF040000202DE9F04109
:1070600004681E4624F04003802B054688461746D8
:1070700092B002D0B4F5807F43D11C2200210BA82E
:107080002CF0EDFD224A234B0121B8F1010F18BF6E
:1070900013460A932B1D0193E4081F4B44F0005440
:1070A00002910AA803940497059106930796089104
:1070B00001A9099320F079F804A90AA820F075F82D
:1070C00007A90AA820F07BF829680AA8C90820F0B7
:1070D00080F810210AA820F07CF8FFF7C1FE98B9CB
:1070E0000AA820F07FF84FF098435A6CD202FCD5E2
:1070F0005C6DFFF7C9FE04F47024204612B0BDE8B1
:10710000F0816FF07100F9E74FF0FF30F6E700BF54
:1071100000010104000100041000002038B5134DE7
:10712000FFF74CFE124B134A1349144807F0DCF8E2
:107130002B7803F0FF04BBB905F0E8FB012802D966
:1071400005F018FC04462B782BB90D4B0D481B6835
:10715000984701232B7005F0D9FB012804D920465C
:10716000BDE8384005F028BC38BD00BF48AF00205E
:10717000F7740200CB740200A3740200AD74020025
:10718000800B0020E89F002030B5154B87B002939C
:10719000144B0390049346F611030D46059300F03B
:1071A0006DF91428044616D1684620F049FA4FF0CC
:1071B000A843032202A95A6319601D619A63DA6B1E
:1071C0009207FCD1142C02D1684620F047FA00F057
:1071D000C7F9044601E00028E9D0204607B030BDD9
:1071E0000C660020040000202DE9F04FB1B00546E8
:1071F0008C46E9466E4F3B9EDDF8F8E0409C07F177
:10720000100AC846386879680837A8E80300574567
:10721000C146F6D10EEB0208C8F1000909F00F09CA
:10722000002E00F0AF80774207F00F070121DDF854
:10723000FCB0C4F1100ACDF810B0059144F0005133
:1072400006914FEA0A2101F4F85141F0210107911A
:1072500006B96B460893002D40F09680002C00F094
:10726000938004AB0993002E00F0908046F0005309
:107270000A93002D40F08D80002C14BF01232123A0
:1072800043EA07230B9308A942F00053CDF830C01E
:107290003D980D910E934FEA092343F041030F935C
:1072A000109002B10CA9002A16BF00224FF0005224
:1072B000412342EA0E021191129213933C9B3D4AE4
:1072C000149310AB15933C4B0021169340F6110319
:1072D00017933A4B002D08BF1346189314AB19931C
:1072E000374B10221A9311231B931CAB18462CF01A
:1072F000B6FC01221D924AF080421E9200220346F3
:10730000239205B9EB46102C08BF01230DF1900A1A
:10731000102200215046CDF880B0219322942CF009
:107320009EFC002C37D020AB002125938F4218BF44
:10733000534647F0804226923A9A2CA88A422892D5
:10734000299313460CBF4FF080430B461022334362
:107350002B912A932CF083FCFEB95346C8442D93FD
:107360002CA948F0804318A82E93FFF70DFF30B9E1
:107370002DB90346A34212D1002818BF2C2031B0EA
:10738000BDE8F08F102751E701236BE747F000536A
:107390006EE7212374E70123C6E728ABDEE703F19C
:1073A000C0026A4412F8C02C01331043E2E700BF68
:1073B0002443030038430300100000203C43030033
:1073C00004000020F0B5C0299FB0249E4FD0B1F535
:1073D000807F04D0802941D029201FB0F0BD40F229
:1073E000344440F21445002E08BF2C4621271025B6
:1073F000019401240296039404950597259F06970E
:1074000006B102AC07940124089509940A9221223E
:107410000B940C950D92174A0AAC0E92164A0F94D3
:10742000109242F611021192129313941495159230
:1074300001AA1692CBB112AB179304231893112310
:10744000199316AB1A901B9340F61103C9081C91AF
:107450001AA806A91D93FFF797FEBEE7002E14BFDA
:107460004FF486644FF48264C0E70EABE4E70F206C
:10747000B3E700BF4043030010000010334A2DE97A
:10748000F041D2F8803243F00103C2F88032304B31
:107490005C68C4F308044CB14FF0A842D36B13F0FE
:1074A000430FFBD114242046BDE8F081DFF8AC8007
:1074B00098F80030C3B105F029FA022807D1254B0E
:1074C0004FF0FF31186E05F0AFFC002837D1224D88
:1074D0002B681BB90421284606F07EFE2B68013379
:1074E00043F000432B60DEE705F010FA0128064662
:1074F00005D905F03FFA071E02DA0D24D3E7274627
:1075000098F8002002F0FF037AB9124DC5E9003364
:1075100005F11003AB6050232846EB6005F042FCF8
:107520002866012578B188F80050012EC3D90025BE
:10753000384605F041FA002803DB002DBBD00124BA
:10754000B1E70224AFE7012EF2D8F8E7008000503F
:1075500000ED00E0A86500200C66002049AF002087
:107560000A4B10B55C68C4F308046CB905F0CEF999
:10757000022807D1064B186E05F086FC003818BFAC
:10758000012010BD2046F9E70020FAE700ED00E0F9
:10759000A865002038B505461FF0CDFD054B1C68D9
:1075A00014B1237AAB4203D11FF0CBFD204638BD86
:1075B0002468F5E724660020F7B5074601A80E46C3
:1075C00014461D4601F0D2FE30B9684601F06AFD4E
:1075D00020B1019801F0DCFE03B0F0BD009A64F028
:1075E0006F0453685673147317611D70009B01215B
:1075F000586820F069FB009B019A588153601FF086
:107600009AFD0446019904484A6820F0B8FB2046D8
:107610001FF097FDE0E700BF2C6700202DE9F04345
:10762000064687B008460F4691469846FFF7B2FFD8
:10763000019048B190F87030002B0CBF2E24042428
:10764000204607B0BDE8F08301A801F0AFFE044674
:107650000028F5D1019D6881E87385F870002860E5
:1076600085F809902F7285F80C8085F80D806420CC
:1076700002F07AFC012368610393019D264B02A866
:10768000029305F1B80304935023059305F08AFB98
:10769000C5F808010198D0F8083123B90623192448
:1076A00080F87030CCE7A4301FF093FC0198A8302C
:1076B0001FF08FFC0198AC301FF08BFC0198B030AC
:1076C0001FF087FC0198B4301FF083FC05F01EF911
:1076D000022805D1114B4FF0FF31186805F0A4FBCB
:1076E00001990F481FF078FC0E490D481FF091FCDE
:1076F00005F00CF9022803D1084B186805F0C4FB0B
:107700000022019B83F81021C3F80C21012237715C
:10771000B260336094E700BF444303002866002052
:1077200024660020EF76020013B5044601A801F09C
:107730001DFE30B9684601F089FC20B1019801F0C6
:1077400027FE02B010BD009B1C61227A5A73E27AB8
:1077500062F07F021A73019A53601FF0ECFC04463A
:10776000019904484A6820F00AFB20461FF0E9FC12
:10777000E7E700BF2C6700202DE9F347044605F03A
:10778000C5F8022805D14FF0FF31D4F8080105F003
:107790004BFB1FF0D0FC07463C4D296819BBA046A7
:1077A0000E4658F8AC5F65BB04F1300002F07EFB7A
:1077B00025742546237B637355F8B01F002954D1E7
:1077C000254655F8B41F002956D138461FF0B9FC9C
:1077D00005F09CF8022856D1D4F8080102B0BDE8A3
:1077E000F04705F051BBD1E900631B69A34206D104
:1077F0002A4620461FF09EFF637B013363733146A8
:10780000CCE7D5E90092937B2946013B9373404630
:107810001FF0F5FB69688B7BABB9D4F884A0BAF193
:10782000000F04D08A6933234968207AD0476868FA
:10783000466001F0E7FC284601F08AFDE37B4D46F7
:10784000013BE373AFE701A801F0CEFD227A019B73
:107850001A70D4F884205A60D4F890209A606A682C
:107860009169D96016619361E5E70E682A46204662
:107870001FF060FF3146A1E70E682A4620461FF040
:1078800059FF31469FE702B0BDE8F0872C67002022
:1078900010B5427B037B04469A4227D1D0F80C31C5
:1078A00023BB303002F002FB062384F8703005F071
:1078B0002DF8022805D10E4B4FF0FF31186805F066
:1078C000B3FA21460B481FF09AFB05F01FF8022877
:1078D00003D1074B186805F0D7FAD4F8080105F072
:1078E000FDFA204601F078FD012010BD0020FCE7E4
:1078F0002866002024660020242230B593B00021A1
:107900000DEB02002CF0ABF91022002105A82CF0A1
:10791000A6F9012350250293204B01A80193204B87
:107920000495039305F03EFA1E4C206018B31E4BDD
:107930000021212005AACDE9073505F0F3FA1B4DFA
:107940002860A8B11A4B0021099323230F93194BE8
:1079500019480D934FF480530E93184B09AA0B93BB
:1079600058230C9305F056F838B9286805F098FBB1
:10797000206805F0B3FA19200EE011481FF029FB2A
:1079800010481FF026FB10481FF023FB0F481FF084
:1079900020FB01F0C3FA002013B030BD56430300B2
:1079A0002C660020286600207C660020CC66002023
:1079B0006E430300900E00201D7D0000D466002061
:1079C00024660020106600202C670020D06600206E
:1079D000014B186805F032BBCC6600202DE9F04160
:1079E0004B6804461B7B0D467F2B4FEA931690464F
:1079F00098BF00261FF09FFB074646B9637B6BB913
:107A000004F1B00029466A6820F0B9F913E0032EAA
:107A100016D1A37BA3B90123A37301E0013B6373D8
:107A200029466A68084820F0AAF9B8F1000F02D088
:107A30000120FFF7CDFF3846BDE8F0411FF081BBC4
:107A400004F1B400DEE700BF2C67002038B505461E
:107A50001FF071FB0446291D05481FF0BDFA2046A2
:107A60001FF06FFBBDE838400220FFF7B1BF00BF39
:107A70001066002073B505461FF05DFBAB68064637
:107A8000012B03D91FF05DFB042412E000232C68B6
:107A9000AB608CB92879FFF77DFD044630B190F8D2
:107AA0007030013B012B94BF00241F2430461FF08F
:107AB00048FB204602B070BD1FF043FB04F026FFD8
:107AC000022805D14FF0FF31D4F8080105F0ACF9D8
:107AD0002B7953BB04F1A406D4F8A430A3BB04F162
:107AE000A806D4F8A830ABBBD4F80C0108B105F057
:107AF000A5FA94F870302BB1033B022B42D82046F4
:107B0000FFF73AFE2B795BBB0123204684F87030E7
:107B1000FFF79CFF04F0FAFE022803D1D4F8080115
:107B200005F0B2F900242C60C3E7207A01F0ACFE26
:107B30000028CFD004F0EAFE022803D1D4F80801CF
:107B400005F0A2F930469DE730461FF050FA01F0EB
:107B5000BBFBC1E730461FF04AFA01F0B5FBC0E7B6
:107B600002234FF47A7084F8703002F0FDF900239C
:107B70000146CDE90033044A234604F1500020F0C9
:107B800090F9C7E7012494E7E77B02002DE9F04173
:107B900005461FF0D0FA05F1AC08074640461FF035
:107BA00026FA044648B14268967B013EF6B29673C7
:107BB00046B10146404620F0E7F83846BDE8F041BE
:107BC0001FF0BFBA38461FF0BCFA6368186801F0AE
:107BD000D1FA63681E601FF0AEFA0646214662685D
:107BE000084820F0D1F82B7C304601332B74EB7B16
:107BF000013BEB731FF0A5FABDE8F0410120FFF750
:107C0000E7BE00BF2C6700202DE9F341036804465E
:107C10001B797F2B4FEA931798BF00271FF08BFA31
:107C20002569804625B3002F3CD0032F31D1002396
:107C3000D5F89060AB731EB1A2696168287AB0472D
:107C400000232046636001F0DDFAD5F8B430002B44
:107C50005AD005F1B4001FF0CAF9014618B14268C4
:107C6000937B013B937301222846FFF7B7FE13E095
:107C70000FB1032F0DD1A66987B9776827B13323D8
:107C8000F26861683078B84700233046636001F0DD
:107C9000BDFB204601F0B6FA002612E0032FF3D117
:107CA000B768EBE7267FE6B1D5F8846026B13B469E
:107CB000A2696168287AB04700262046267701F03D
:107CC000A1FA144B1B6813B10120FFF781FE16B116
:107CD0002846FFF7BBFE404602B0BDE8F0411FF06A
:107CE00030BA204601F08EFA0428EAD1D5F8AC303B
:107CF000002BE6D0CDE900662346074A696905F105
:107D0000300020F0CEF8DCE795F87060731E5E421C
:107D10005E41D6E72C6700204F7C02002DE9F04F32
:107D20002DED048BB5488DB020F000F800F028FF51
:107D3000002840F0AD8301F0C5FD002840F0A88385
:107D4000AF481FF0D6FFAF4B4FF0FF31186805F07A
:107D50003FF90DF11E0108A800F0FEFF8246002841
:107D600040F00D82A54B5B7883B9089B052118680C
:107D7000B0F805201FF0B5FF20B1089B1B681B78E9
:107D8000142B03D0089801F03DFAF8E1089A136823
:107D900093F804B059785E88BDF81E30BBF17F0FB0
:107DA0004FEA9B1598BF0025B34228BF33460846CB
:107DB000138108EE101AFFF7EDFB0446002800F0CF
:107DC000CE8204F0A3FD022805D14FF0FF31D4F894
:107DD000080105F029F815F0FD0F0DD1089B1B7D5A
:107DE00053B91FF0A8F9D4F8AC3008EE900A0BF0A4
:107DF00007084BBB1FF0A5F9089B1B7D53B120461C
:107E000018EE101AE27AFFF7D7FB002308980375E3
:107E100001F0F8F9002E00F03D81022E00F22681DB
:107E2000062318EE101A2046E27AFFF7C5FB0898E1
:107E300001F0E8F904F06AFD022840F0A081D4F8CE
:107E4000080105F021F89AE15B68E27B1B681B7969
:107E5000C3F30213591C1A4401F0070102F0070290
:107E6000914206D8884501D3904506D918EE900A6C
:107E7000C0E7904501D98845BCD3984598BF08F123
:107E80000808A8EB03085FFA88F34FF0000884F8AD
:107E90001080059302F04EF8D4E90632C01A61EB67
:107EA0000201594A1378002B67D0C4E90801400841
:107EB00040EAC1704908C4E90A0182F8008005203F
:107EC000D4E90A9802F050F8814578F1000305D210
:107ED000052002F049F80023A062E362D4E90A0316
:107EE0004FEA83084FEA800948EA9078D4E908030A
:107EF00019EB000941F2883048EB030802F034F82E
:107F00000023484573EB08036ED241F2883002F03B
:107F10002BF88146C4F8149004F1300001F0C6FF3C
:107F200004F1AC0309EE103A059A5FFA8AF3934222
:107F30006CD318EE900A1FF004F904F1B008D4F8DD
:107F4000B030002B3FF458AF637B002B3FF454AFAD
:107F50001FF0F1F8824640461FF049F8814618B1FB
:107F60004268937B013B937350461FF0EAF800226E
:107F700049462046FFF732FDE1E7D4E90A2C920892
:107F800042EA8C7212EB020E4FEA9C0C4CEB0C098D
:107F90001EEB020E4CEB090CD4E908381A1A68EBF8
:107FA0000109B9F1000F02DA524269EB490992085E
:107FB00042EA89721EEB02024CEBA90CC4E90A2CBE
:107FC0004FF0070CDB0843EA4873A3FB0C234FEA8E
:107FD000D8080CFB0838C00840EA4170101848EB7C
:107FE000D101C4E908016AE7052001F0BDFF814520
:107FF00078F100038ED2052089E700BF4AAF002048
:1080000014660020CC660020700C002019EE100AC7
:108010001EF0EDFF804618B14268937B013B9373DD
:10802000D8F8049099F80E30DBB9D4F884201746BC
:108030002AB1D9F81820D9F80410207AB8470023BB
:108040004846C9F8043001F0DDF8404601F080F9F7
:10805000637B0AF1010A01336373E37B013BE37342
:1080600062E74FF0010389F81C30EEE7089B023EFF
:10807000D3F80480B6B2314640461FF063FE314665
:10808000024640461FF02DFE20B9002D7FF4CFAEF2
:108090000123C6E6002D40F0B880CDE909550B95C7
:1080A00094F87030089F022B03D105232A46217AC9
:1080B0001BE0637AE27AD90701D50623F7E7CBF311
:1080C0000210904240F092801BF0080F09D1324616
:1080D000384604F1A40101F0D3F810B30323E27A87
:1080E000E5E7217A29B1062302462046FFF764FA24
:1080F00085E0D4F87880B8F1000F0AD00BAB02937A
:1081000009AB01930AAB00932946334628467A68A7
:10811000C047786801F020F8002338467B6001F002
:1081200071F8D4F80C0108B104F088FFD4F8883055
:108130001BB1D4F88C10207A9847E37A204601339B
:1081400003F00703E372FFF7EFFA0A9949B1099ABE
:108150003AB10B9B92B20093102320461FF08BFC88
:1081600002E0084601F06CF994F87030012B7FF4BE
:1081700061AE2046FFF78CFB00283FF45BAE01F0B8
:1081800017FB00F04FFE48B3A74D2B6833B31EF02A
:10819000D2FF044628461EF02AFF054618B1426861
:1081A000937B013B937320461EF0CBFF6C68237BCF
:1081B00020467F2B4FEA931798BF002700F060FFFF
:1081C000002800F0D6801EF0B6FF2246064629465B
:1081D00095481FF0D9FD30461EF0B3FF934D2B6834
:1081E000002B40F0258100F081F9ACE5531E984248
:1081F00002D042B9072806D12046FFF795FA384643
:1082000001F000F8B0E7022351E7022D36D1CBF39D
:108210000113012B089F94F8706025D17B681B78AF
:108220005A1E042A24D8DFE802F0181F1F03210079
:108230001E460125384600F0E5FF002D94D094F845
:108240007030022B16D004F1300001F02FFE2046D2
:1082500084F870601FF05DFA86E7D4F8AC50002D0A
:10826000E8D02046FFF792FC0025E3E70326E0E78D
:108270000526DEE72046FFF77FFA75E7032D65D177
:10828000637ADDF820809A070BF0370701D4404667
:10829000B6E7C7B95B07FAD43246404604F1A801F5
:1082A00000F0EEFF0028F2D1D4F894301BB1D4F8DE
:1082B0009810207A9847D4F80C0100283FF454AF66
:1082C00004F0BCFE50E7042F32D1D4F87890B9F115
:1082D000000F21D00023D8F804200A930BAB207A9A
:1082E00002930AAB019309AB294600933346C84772
:1082F0000999C9B10A9ABAB10B9B2046009392B270
:108300003B461FF0B8FB034630B1D4F890501DB186
:108310000B9A0999207AA847D8F8040000F01CFFAE
:108320000023C8F80430B2E7084601F089F8F3E703
:10833000312FACD1404600F065FF227A002A7FF44D
:1083400013AF628108231146009206E720460623F8
:1083500018EE101AE27AFFF72FF9089850E7022D6D
:108360003FF410AD0523024618EE101AFFF724F96A
:1083700008E526890EB10236B6B2D7B904F0C6FABE
:10838000022806D123694FF0FF31D3F8080104F029
:108390004BFD237B216923F00702CB7A1343237320
:1083A00004F0B4FA022804D12369D3F8080104F0D8
:1083B0006BFD0122617B237B0092206832461FF017
:1083C000C7FC1EF0B8FE21890646204600F004FDD9
:1083D00050B12246294614481FF0D6FC206800F010
:1083E000C9FE00232360F6E697B920692246294694
:1083F000AC301FF0C4FC2469E37B0133E373237CBE
:10840000002B7FF4E8AE01F095FDC4E90601E2E639
:1084100030461EF096FE022F284602D100F0B8FF2B
:10842000DCE600F095FFD9E62C67002010660020FE
:108430001EF081FE064628461EF0D9FD0446304651
:108440001EF07FFE04F062FA0228A4F1040605D1B2
:108450004FF0FF31D6F8080104F0E6FC3046FFF794
:1084600017FA07461EF067FE804628461EF0BFFD3D
:10847000044640461EF065FE3FB904F047FA022864
:1084800003D1D6F8080104F0FFFC002CDAD1AAE6EB
:108490000DB0BDEC048BBDE8F08F00BF2DE9F041BD
:1084A0000446884617461EF046FE257B064625B143
:1084B0001EF047FE0420BDE8F08121460948C4E9CA
:1084C00001871EF08DFD084A304613780133137082
:1084D000012323731EF035FE0320FFF779FA2846A7
:1084E000E9E700BF306700204DAF00202DE9F047DD
:1084F000134E4FF000083778DFF848903D461EF0E5
:108500001AFE824648461EF072FD044650461EF092
:1085100018FE44B1D4E9013084F80C80013D98473D
:1085200015F0FF05EBD11EF006FE3378BB4232BFDB
:108530000023DB1BDBB23370BDE8F0471EF001BE49
:108540004DAF0020306700202DE9F04385B01EF0CC
:10855000F2FD234F234C06463868FCF719FF2378B9
:108560002BB1304605B0BDE8F0431EF0EABD03A8CC
:1085700000F0BAFD814638B10123237030461EF069
:10858000E0FD05B0BDE8F083174B184D1C8801468F
:10859000013C10222846A4B2DDF80C80C4F30A0482
:1085A0002BF05DFB2A68124B2401134044F0447405
:1085B0001C432C600F4B104C2A46C5E901380F496B
:1085C0000F4B25603868CDF80090FCF7BBFE4FF4E8
:1085D000847123681A8861F30E121A80CEE700BFF7
:1085E000486700205CAF0020F4AD0020D467002075
:1085F0000F80EFFC24800550F4670020C467002042
:10860000C58800002DE9F04F354B561AB6B20D461D
:108610001446DFF8E89087B01E8068B905A800F01E
:1086200063FD50B1D9F80000FCF7B2FE01222D4BDA
:108630001A7007B0BDE8F08F0590059BB4F5006F88
:10864000294FDFF8BCA0DFF8BC8003EB050B1BD87B
:108650001022002138462BF002FB731EC3F30A03DD
:108660001B0143F0447303EA0A03C7E90038C7F863
:1086700008B000231D4A009312681D4B1D49D9F80C
:108680000000FCF75FFED4E7C5F5FF650735102253
:1086900000213846ADB203932D012BF0E0FA164AC3
:1086A00045F040752A40C7E900281322FA601022DD
:1086B0000021B818C7F808B02BF0D1FA6FF40063A6
:1086C000E218C2F30A02039B120142F0447202EA6A
:1086D0000A0203F50063C7E90428BB61C9E700BFCC
:1086E000F4AD00205CAF0020D4670020F4670020C8
:1086F000C5880000C4670020F07F000348670020A1
:10870000F07F1003248005502DE9F74F1EF013FD74
:108710004A4B80461B682BB91EF013FD1B2003B08B
:10872000BDE8F08F5F681D891022D7F80090444C97
:10873000DFF82CA1434E002D77D0002120462BF0EE
:108740008EFAC4E900A94FF01309B5F5006FA660D1
:10875000C4F80C903CD81022013D0021A018D7F895
:1087600004A02BF07CFAABB2374DC4E9066945EAA8
:108770000315364B2B400225C4E9043A04EB0513DC
:108780001022002118462BF06AFA314A4FEA0519E7
:108790000A3744F80920C0E90176002304EB0312EC
:1087A000917801336FF304119170DAB29542F5D2EA
:1087B0000024284B28481C7000942346204A27494F
:1087C0000068FCF7BFFD40461EF0BBFC2046A6E754
:1087D000B5F5805F24D81022D7F804A0DFF86CB07C
:1087E0000021A0182BF03BFA10220021C4E904BAA2
:1087F000C4E9066904F120002BF031FA6FF400633C
:108800001D44ABB2104DC4F82C9045EA031505EA9F
:108810000B050AF500632562C4E909360325ADE7B7
:1088200040461EF08EFC212079E7294620462BF099
:1088300016FAC4E900A9A660AFE700BFD46800201B
:10884000906800203C80055000001030F07F103010
:1088500010001030720C0020D868002080680020C2
:1088600060001030F8B51EF066FC054613481EF097
:10887000BEFB0446E0B14268114E937B0F4F013BB3
:1088800093736068FFF7C0F928461EF05AFC1EF08B
:1088900052FC2146054630461EF09EFB38461EF02F
:1088A000A6FB044620B14268937B013B9373E8E743
:1088B0002846BDE8F8401EF044BC00BF7C6800209C
:1088C000D06800202DE9F04F002485B00394ADF866
:1088D0000A401EF030FCDFF89C929C4B06461A685A
:1088E00099F8003095682BB1994B89F800401A78B7
:1088F0001C70AD1ADFF880A29AF8003093B32B6891
:10890000944C0D21C4F80730AB880DF10A02A4F88D
:108910000B30AB79601C63731FF0F0F9074670B938
:108920002B6828462360AB88A380AB79A37100F045
:10893000E9FB072239460846FFF764FE2BE0BDF845
:108940000A3001339BB2E218ADF80A30E3582B60CD
:108950009388AB809379AB7100238AF800300123B0
:1089600089F80030DFF814827B4F98F80040002C23
:1089700000F0E48079481EF03AFB18B14268937B1E
:10898000013B9373386068B90122754B1A70754BBF
:108990001868FCF7FDFC30461EF0D3FB002005B044
:1089A000BDE8F08F99F80020D2B9072128461FF0C2
:1089B000A5F98346A0B9674B2A6828461A60AA8899
:1089C0009A80AA799A7100F09DFB396863484A68D9
:1089D0001FF0D5F90123072259468AF80030AAE78B
:1089E0003A68698853682846198111812A681B688A
:1089F0001A60AA889A80AA795B4D9A7100F082FB6E
:108A000039684A681389002B57D1012388F8003050
:108A100007232B8099F80010002900F08C8003A810
:108A200000F062FBDFF82891009000287DD1BDF8AE
:108A30000A10B5F800A0C1F10702D2B2DFF814B1F4
:108A400007315245039889F8002093B259445FD307
:108A50003B68A2EB0A02D4B25246019389F8004067
:108A60002BF0D6F8019B039A5B685A60002C48D023
:108A700003A800F039FB0446002835D12B88BDF847
:108A80000A1099F800A01944073152465944039836
:108A90002BF0BEF80722514603982A80FFF7B2FD5B
:108AA00089F80040012388F8003039682F484A6867
:108AB0001FF065F91FF0F7F86DE72888B0F5817FA2
:108AC0000CD90623294813751FF059F900241FF00B
:108AD000EAF801233C6088F8003099E700242B80F5
:108AE00088F800400B8195E71E4B1868FCF750FC96
:108AF000009B89F80030072301222B801C4B1A7041
:108B000049E707222A8021462046FFF77BFDC9E777
:108B100000932BF07DF8009B524619460398FFF70F
:108B200071FD002C3FF437AFBFE70E4B1868FCF720
:108B30002FFC0023DDE708462A88F0E707223B6880
:108B40005B685D60084B1A80DDE700BFF4670020BA
:108B50005EAF00204EAF002034670020F867002091
:108B60005FAF002048670020F4AD002000680020BF
:108B70005CAF002060AF00205DAF0020710C0020D2
:108B8000F0B589B04FF480525C4B1A605C481EF01F
:108B900020FA5C481EF01DFA5B481EF01AFA5B488A
:108BA0001EF017FA5A481EF014FA5A481EF011FA2D
:108BB00059481FF09EF80026584D514F281D00F0CF
:108BC000E7FA044618B11924204609B0F0BD294639
:108BD0006A68384601361FF0D7F80A2E05F10C05F1
:108BE000ECD14F4D494E2946304601341EF0F4F980
:108BF0000A2C05F10C05F6D10123042205210020E1
:108C0000484DFDF70BFA01AC01230222062100209A
:108C1000FDF704FA0FCD01270FC495E807000025E2
:108C200084E80700404C01A920468DF804508DF8D7
:108C30001D70FDF76FFC14223C4B0421C3F8AC25DA
:108C40004FF4A022C3F8C4254FF4C0222846C3F82D
:108C5000BC252B460222FDF7E1F94FF480230422C4
:108C6000334E3946C6F8B435324B0220DA652B460E
:108C7000FDF7D4F902234FF0FF32C6F8AC3503F507
:108C80008033C6F8B835E36C05213B43E3642A4BD7
:108C900020469A644FF4406363611EF0C1FAFCF70A
:108CA0001DFB10B1254B984226D1254D00212846A9
:108CB000FCF7BEFA0146002885D12248FCF7B8FA35
:108CC000044618B12868FCF7E3FA7CE74FF48023E8
:108CD0001D4A1E4913601E4BC2E9010019600121A3
:108CE000D06051720722C3E90100D8605972194B54
:108CF0001A80FFF729FC67E7102465E700E100E030
:108D0000F8670020FC67002000680020D068002081
:108D1000D46800207C680020386700204C67002061
:108D200004680020784303000080055000C0035011
:108D300000D003500090055000A00550038000F0C3
:108D400048670020D8680020C467002002000400A3
:108D500080680020F4AD0020F8B50E4607461EF0EE
:108D6000EAF9054617481EF042F9044620B350F8C8
:108D7000043F9A7B013A9A733B604FF481733380CE
:108D800000F006FA064690B9626821460E481EF0C9
:108D9000FBFF0E4B1A782AB11E700D4B1B780BB9D6
:108DA000FFF7D2FB28461EF0CCF90020F8BD214683
:108DB00008481EF011F9F5E728461EF0C2F91B20FD
:108DC000F4E700BF00680020F86700205FAF0020D4
:108DD0005CAF0020FC670020F8B50D4606461EF08B
:108DE000AAF907460D481EF002F9044638461EF05F
:108DF000A8F98CB1258166601EF09DF92146626854
:108E0000054607481EF0BBFFFFF77EFC04462846D8
:108E10001EF097F92046F8BD0324FBE7D068002038
:108E2000D4680020044B1878044B1B68002B08BF43
:108E3000002000F001007047720C0020D068002074
:108E40002DE9F0411EF077F90646134FDFF8548004
:108E50003D689DB1281D00F09BF9044670B9384665
:108E60001EF0C5F86A68294640461EF08DFF0B4B80
:108E70001A7802B11C703B68002BE9D1084B1A78B4
:108E80002AB1064A127812B91A70FFF75DFB304614
:108E9000BDE8F0411EF055B9FC6700205FAF00202F
:108EA0005CAF0020F867002008B5144B144A9B6C97
:108EB00003F001039364FBB1124B1868FDF78EF9C0
:108EC0000122114B11481A701EF091F8014618B199
:108ED0004268937B013B93734A680D481EF04FFF35
:108EE00000220C490C48FFF7D9FA084B1B681BB14C
:108EF000BDE80840FFF708BC08BD00BF0080055072
:108F000000A00550D8680020720C0020D468002012
:108F10007C68002065880000386700204FF4B0634B
:108F200037B5354800932C222021344B00681EF0C1
:108F30007DFFBC233248009313220721314B006888
:108F40001EF074FF202330480093082201212F4B8C
:108F500000681EF06BFF40F6B4732D4800930F229B
:108F600040F209112B4B00681EF060FF4FF48C6338
:108F70002948009304224FF48C71284B00681EF09E
:108F800055FFA823264800930E220C21254B00688C
:108F90001EF04CFF7823244800930F220821234B16
:108FA00000681EF043FF7023F02521480093214CF8
:108FB0000E220821204B00681EF038FF20680F2287
:108FC00010211E4B00951EF031FF20680F2210214A
:108FD0001A4B00951EF02AFF4FF441731848009376
:108FE00005229821174B00681EF020FF164803B099
:108FF000BDE830401DF0EDBF080B0020E868002000
:10900000200B00207C6F0020280B002044700020E3
:10901000300B002070700020100B0020901E0020EC
:10902000380B002030800020480B0020F483002003
:10903000500B0020180B002078840020806E002048
:10904000400B0020E4800020E884002010B5044696
:1090500078B10A4B18681EF090FE60B10023C0E999
:109060000033C0E902338361036103752060184651
:1090700010BD2220FCE71A20FAE700BF080B0020F1
:1090800010B5044648B1064B18681EF076FE00285D
:10909000206014BF00201A2010BD2220FCE700BF72
:1090A000200B002073B5054601A8FFF7CFFF04464B
:1090B00078B90B4B019E18681EF05FFE02230199E0
:1090C0007060CB734B683BB9064B1A2418681EF0CE
:1090D00052FE204602B070BD01230B812960F8E7E3
:1090E000280B0020080B0020054B10B5044618681B
:1090F0001EF043FE002820600CBF1A20002010BD87
:10910000300B0020014608B528B1044B18681EF04A
:1091100032FE002008BD2220FCE700BF300B0020FB
:10912000014608B580B1094B18681EF024FE0848B6
:109130001DF05DFF014618B1064B18681EF01BFEBE
:10914000FFF77EFE002008BD2220FCE7300B002048
:10915000E8840020380B0020014608B528B1044BF4
:1091600018681EF008FE002008BD2220FCE700BFA2
:10917000300B0020014608B528B1044B18681EF0DA
:10918000FAFD002008BD2220FCE700BF200B0020D4
:1091900073B5054600282CD001A8FFF757FF0446F9
:1091A00058B90198FFF76CFF019E336843B9314607
:1091B000114B1A2418681EF0DEFD204602B070BD67
:1091C0000E4B1B7863B90E4B18681EF0D6FD019B41
:1091D00070605A682AB91868FFF7CCFF0199E7E771
:1091E000746000220121019B1A81D9731A752B60CA
:1091F000E3E72224E1E700BF080B00204AAF00208C
:10920000300B002038B50446E8B1837BEBB94168E8
:10921000C57B29B1022D12D10D4B18681EF0ABFD94
:10922000206808B1FFF7A6FF0A4B214618681EF018
:10923000A2FD012D01D1FFF703FE002004E0012D66
:10924000EED1054BE9E7222038BD0420FCE700BF42
:10925000280B0020080B0020300B002010B504461E
:1092600048B1064B18681EF088FD0028206014BF26
:1092700000201A2010BD2220FCE700BF380B002080
:10928000F7B50E4617460546D0B1C9B101A8FFF79C
:10929000E5FF044688B901996B6808604B60EB7B79
:1092A00030468B720F811DF09BFE2868FFF762FF2E
:1092B000044B294618681EF05EFD204603B0F0BD41
:1092C0002224FAE7080B002010B50446C0B141681B
:1092D00031B1837A022B0AD10A4B18681EF04BFD7C
:1092E000094B2146BDE8104018681EF044BD012B13
:1092F000F6D1064B18681EF03EFDFFF7A1FDEFE723
:1093000010BD00BF280B0020380B0020300B0020C0
:1093100008B543680B6003890146138002481DF0BD
:109320005BFE002008BD00BFE884002010B50446A5
:1093300048B1064B18681EF020FD0028206014BFBD
:1093400000201A2010BD2220FCE700BF480B00209F
:10935000014608B528B1044B18681EF00CFD00202A
:1093600008BD2220FCE700BF480B002010B50446D2
:1093700048B1064B18681EF000FD0028206014BF9D
:1093800000201A2010BD2220FCE700BF500B002057
:10939000014608B528B1044B18681EF0ECFC00200B
:1093A00008BD2220FCE700BF500B002010B504468A
:1093B00060B1084B18681EF0E0FC206040B14FF42B
:1093C0008C7200212AF04BFC002010BD2220FCE70B
:1093D0001A20FAE7100B0020024B014618681EF015
:1093E000CABC00BF100B002010B5044648B1064BA4
:1093F00018681EF0C2FC0028206014BF00201A204C
:1094000010BD2220FCE700BF180B0020024B0146D4
:1094100018681EF0B0BC00BF180B002010B5044641
:1094200048B1064B18681EF0A8FC0028206014BF45
:1094300000201A2010BD2220FCE700BF400B0020B6
:10944000014608B528B1044B18681EF094FC0020B2
:1094500008BD2220FCE700BF400B00200122014B89
:109460001A70704762AF002010B50123022200215C
:109470001B481EF0AAF92E2804462ED058BB0821FE
:10948000184A17481EF0A3F9044618B11448FEF70D
:10949000F1FA20E0144A32B1052111481EF097F983
:1094A00004460028F2D10721104A0D481EF08FF91A
:1094B00004460028EAD102210C4A09481EF087F927
:1094C00004460028E2D10321094A05481EF07FF92D
:1094D00004460028DAD1204610BD1224FBE700BF65
:1094E0001885002001990000000000006598000028
:1094F0005D9400000623F0B50B70054640681646E3
:10950000A0F58052FF2A0C4685B010D80422C0B2C4
:1095100040F480534A804B602B7A013B012B01D8E9
:109520001EF075FB63880433336005B0F0BDB0F501
:10953000A06F2ED012D840F20222904214D009D847
:10954000042802D9B0F5007F3ED1002363601523C3
:10955000A36017E040F201329042F5E7B0F5C06F2A
:109560001ED0B0F5885FEFE704224A80A96829B1D0
:10957000012909D0002363600323E9E7144AC4E901
:1095800001011160082309E0114AC4E901011160D9
:10959000F8E7297A0F4A6060117004236380C1E7FD
:1095A0000D4FEB68A86803A93B6000F0EFFC38B9E9
:1095B000CDE900003B46094A039909481EF08DFC9D
:1095C0004FF4C0636360E8E7002363600D23BFE7E7
:1095D0001485002061AF0020EC840020937D020000
:1095E000F084002000487047944303002DE9F047C1
:1095F000154606220A7043680C46302B88B000F0EE
:1096000099801ED8042B06D8013B032B57D8DFE8DE
:1096100003F05A85606A202B00F08680A3F5805203
:10962000FF2A4FF0000200F2AB808DF81830DBB259
:1096300043F48053636005A805921EF00BFA207274
:1096400045E040F20222934200F093800CD8502B68
:1096500074D0B3F5007F75D0402BDFD14B601EF086
:109660006BFBA06008233CE040F20132934200F023
:109670008380B3F5885FD1D1002637464B6001F176
:10968000070901F1870A731C02A8CDE90277CDE929
:1096900005778DF80C608DF81830049707971EF049
:1096A000D9F9804605A81EF0D5F948EA001009F856
:1096B000010F0236CA45F6B2E5D1842311E000233A
:1096C0004B60A360CEE701234B6004230B7205239C
:1096D00007E003230422CB60C1E9013202230B61BE
:1096E0001023638014E00F46042347F8043FFFF77C
:1096F00079FF01902AF066FB461CB6B2902E28BF77
:10970000902601993246381D04362AF081FA668087
:10971000638804332B6008B0BDE8F08702234B60F8
:10972000204B9B78DB00CCE74B604FF480734A8082
:109730000B81EDE74B601C4B1B68C2E74B601EF0D2
:10974000FEFA8EE74B6005A8FBF72CFB069BE36057
:10975000002323619DF81430012B02D10323A36061
:10976000BEE723B9A3604FF0FF33E360B8E70423FB
:10977000F5E74B600D4BDFE700234B600223A0E7CA
:10978000A3F5E061FF290AD88DF81830DBB243F465
:10979000E063636005A805921EF06BF94FE70D23A7
:1097A00062608EE74AAF00201085002014850020FB
:1097B0001FB5174C237843B116481EF04BF9062805
:1097C00020D1FFF751FED0B92070134B1B78A3B105
:1097D0000323104800930DF10A02002303A91EF091
:1097E00052F850B9BDF80A30039823B10B4A0378F8
:1097F00011680B441360FFF793FC04B010BD012304
:109800002370E2E70128E0D00248FEF733F9DCE7F5
:1098100062AF00201885002061AF00201085002075
:109820004FF0005398B1012815D04FF000534FF27C
:109830000F025A80BFF34F8F0849094BCA6802F4E0
:10984000E0621343CB60BFF34F8F00BFFDE740F2F0
:1098500001221A80E9E740F20222FAE700ED00E077
:109860000400FA0510B50846144609B1FFF7E8FDF3
:10987000034B9C4203D1034B1868FFF7D1FF10BD87
:10988000EFBEADDE1485002030B585B0054603A8D7
:10989000FFF7C4FD044678B90623039945F48055C3
:1098A0000B8005234B8002234D600B720922034677
:1098B000009003481EF068F9204605B030BD00BF97
:1098C000188500207FB5FFF7CFFD044603A8FFF7FA
:1098D000A5FD00260623039D2B806E601EF069FA0D
:1098E00008230399A8600C224B80044802230096A9
:1098F0001EF04AF9204604B070BD00BF1885002054
:109900002DE9F3471446DDE90AA700220329CAF826
:10991000002080460E46DDF830903A6000D041BB12
:10992000B8F1000F25D16288043B9A4221D1C9F8D1
:10993000008001A8FFF772FDD8B9019D032ECAF877
:10994000005063786B7038D12378022B17D0032B2B
:1099500028D0012B0DD12B7004236B8008233B6092
:109960001D4B18681EF051FA686028B91B4BC9F8E6
:10997000003002B0BDE8F087C9F80080F9E76368FD
:10998000202B09D023F01002402A05D05A1E032AAA
:1099900002D9B3F5007FECD13A4629462046FFF7BD
:1099A00025FEE6E740F2022362689A42E1D13A4698
:1099B00029462046FFF79EFDDBE7002ED9D123780C
:1099C000022BE9D0032BF2D0002BD2D104232E702E
:1099D0006E803B60CDE700BF14850020EFBEADDE9A
:1099E00013B50024064A6846536F43F001035367DA
:1099F00000948DF80440FCF7C3FA204602B010BD75
:109A00000040005008B50248FCF778F9002008BD76
:109A100000B4C40430B58BB06C46174D0FCD0FC4E5
:109A20000FCD0FC495E8030084E80300134BD3F86F
:109A30004C21120317D4D3F85041E4B28DF81940E9
:109A4000FCF746FA204480F308008DF818000C4813
:109A5000FBF738F96846FCF7A3F93220FCF77CFAEB
:109A600000200BB030BD074B1C884FF6FF739C42A3
:109A700008BF8124E2E700BFA04303000080E00F9D
:109A800000F049020001E00F30B5094D87B001AC8C
:109A90000FCD0FC42B6801A8236025238DF8053056
:109AA000FCF71CFA6420FCF751FA002007B030BD27
:109AB000C84303006FF00402502110B50A480B4C54
:109AC00012F0800FD3B21BBF03F00F03043BA318A7
:109AD0001B1802F101020CBF83F8001319763D2A0E
